:020000040800F2
:1000000000050020CD000008371B0008351B000844
:1000100000000000000000000000000000000000E0
:10002000000000000000000000000000D51B0008D8
:100030000000000000000000391B0008D71B00086A
:10004000DF00000800000000DF000008DF000008FB
:10005000DF000008DF000008DF000008DF00000804
:1000600000000000DF000008DF000008DF000008DB
:10007000DF000008DF000008DF00000800000000CB
:10008000DF000008DF000008DF000008DF000008D4
:10009000DF000008DF000008DF000008DF000008C4
:1000A000DF000008DF000008DF000008DF000008B4
:1000B000DF000008DF0000080348854600F034F840
:1000C00000480047E91C000800050020044880475C
:1000D00004480047FEE7FEE7FEE7FEE7FEE7FEE72F
:1000E000991C0008B900000870B50446002903D027
:1000F00000202022012310E0002801D00020C0436E
:10010000C046C0460DE02546D5408D4205D30D467C
:100110009540641B1D46954040191546521E002D02
:10012000F1DC214670BD0000064C0125064E05E0BD
:10013000E36807CC2B430C3C98471034B442F7D308
:10014000FFF7BEFFB8240008D8240008F0B581B03E
:10015000044605200507012128460A4600F074FCE4
:100160007948006800274762416A312908D8416A06
:10017000312905D8416A312902D8416A3229F3D39D
:10018000012128463A4600F05FFC6F48006847624C
:10019000416A312908D8416A312905D8416A312993
:1001A00002D8416A3229F3D3102128463A4600F09A
:1001B0004BFC02210122284600F046FC6248006800
:1001C0004762416A312908D8416A312905D8416A14
:1001D000312902D8416A3229F3D31021012228465D
:1001E00000F032FC584800684762416A312908D85B
:1001F000416A312905D8416A312902D8416A322938
:10020000F3D3102128463A4600F01EFC022128466E
:100210003A4600F019FC4C4800684762416A3129AF
:1002200008D8416A312905D8416A312902D8416A82
:100230003229F3D310210122284600F005FC424860
:1002400000684762416A312908D8416A312905D8D6
:10025000416A312902D8416A3229F3D31021284654
:100260003A4600F0F1FB022128463A4600F0ECFB4A
:10027000354800684762416A312908D8416A312906
:1002800005D8416A312902D8416A3229F3D31021B5
:100290000122284600F0D8FB2B4800684762416ADB
:1002A000312908D8416A312905D8416A312902D853
:1002B000416A3229F3D33E4603E0761C6400092EDE
:1002C0002FD0102128463A4600F0BEFBE005C20FB1
:1002D0000221284600F0B8FB1B4800684762416ACB
:1002E000312908D8416A312905D8416A312902D813
:1002F000416A3229F3D310210122284600F0A4FBE1
:100300001148006800214162416A3129D5D8416A0B
:100310003129D2D8416A3129CFD8416A3229F3D361
:10032000CBE701B0F0BDC046F0B583B00F460290F8
:1003300005200407012120460A4600F085FB024EF5
:1003400030680025456201E0AC000020416A312997
:1003500008D8416A312905D8416A312902D8416A51
:100360003229F3D3012120462A4600F06DFB306884
:100370004562416A312908D8416A312905D8416A64
:10038000312902D8416A3229F3D3102120462A4666
:1003900000F05AFB02210122204600F055FB306894
:1003A0004562416A312908D8416A312905D8416A34
:1003B000312902D8416A3229F3D310210122204683
:1003C00000F042FB30684562416A312908D8416A31
:1003D000312905D8416A312902D8416A3229F3D33B
:1003E000102120462A4600F02FFB022120462A46F3
:1003F00000F02AFB30684562416A312908D8416A19
:10040000312905D8416A312902D8416A3229F3D30A
:1004100010210122204600F017FB30684562416A36
:10042000312908D8416A312905D8416A312902D8D1
:10043000416A3229F3D3102120462A4600F004FBFA
:1004400002210122204600F0FFFA30684562416A2D
:10045000312908D8416A312905D8416A312902D8A1
:10046000416A3229F3D310210122204600F0ECFA30
:1004700030684562416A312908D8416A312905D876
:10048000416A312902D8416A3229F3D3102120462A
:100490002A4600F0D9FA02984006C20F02212046EF
:1004A00000F0D2FA30684562416A312908D8416AC1
:1004B000312905D8416A312902D8416A3229F3D35A
:1004C00010210122204600F0BFFA30684562416ADF
:1004D000312908D8416A312905D8416A312902D821
:1004E000416A3229F3D3102120462A4600F0ACFAA3
:1004F00002988006C20F0221204600F0A5FA30685B
:100500004562416A312908D8416A312905D8416AD2
:10051000312902D8416A3229F3D310210122204621
:1005200000F092FA30684562416A312908D8416A80
:10053000312905D8416A312902D8416A3229F3D3D9
:10054000102120462A4600F07FFA0298C006C20F0A
:100550000221204600F078FA30684562416A31296C
:1005600008D8416A312905D8416A312902D8416A3F
:100570003229F3D310210122204600F065FA3068B9
:100580004562416A312908D8416A312905D8416A52
:10059000312902D8416A3229F3D3102120462A4654
:1005A00000F052FA02980007C20F0221204600F024
:1005B0004BFA30684562416A312908D8416A3129CD
:1005C00005D8416A312902D8416A3229F3D3102172
:1005D0000122204600F038FA30684562416A31292C
:1005E00008D8416A312905D8416A312902D8416ABF
:1005F0003229F3D3102120462A4600F025FA02982A
:100600004007C20F0221204600F01EFA3068456202
:10061000416A312908D8416A312905D8416A31290E
:1006200002D8416A3229F3D30197102101222046D2
:1006300000F00AFA30684562416A312908D8416AF7
:10064000312905D8416A312902D8416A3229F3D3C8
:10065000102120462A4600F0F7F902988007C20FC1
:100660000221204600F0F0F9374630684562416AC1
:10067000312908D8416A312905D8416A312902D87F
:10068000416A3229F3D3102101262046324600F078
:10069000DBF938684562416A312908D8416A312955
:1006A00005D8416A312902D8416A3229F3D3102191
:1006B00020462A4600F0C8F9029A3240022120461C
:1006C00000F0C2F93E4638684562416A312908D8CF
:1006D000416A312905D8416A312902D8416A322953
:1006E000F3D31021012720463A4600F0ADF93068D7
:1006F0004562416A312908D8416A312905D8416AE1
:10070000312902D8416A3229F3D3102120462A46E2
:1007100000F09AF901980740022120463A4600F07D
:1007200093F930684562416A312908D8416A312914
:1007300005D8416A312902D8416A3229F3D3102100
:100740000122204600F080F930684562416A312973
:1007500008D8416A312905D8416A312902D8416A4D
:100760003229F3D3102120462A4600F06DF9019F6B
:10077000B807C20F0221204600F066F930684562D2
:10078000416A312908D8416A312905D8416A31299D
:1007900002D8416A3229F3D310210122204600F009
:1007A00053F930684562416A312908D8416A3129D4
:1007B00005D8416A312902D8416A3229F3D3102180
:1007C00020462A4600F040F97807C20F0221204651
:1007D00000F03AF930684562416A312908D8416A27
:1007E000312905D8416A312902D8416A3229F3D327
:1007F00010210122204600F027F930684562416A45
:10080000312908D8416A312905D8416A312902D8ED
:10081000416A3229F3D3102120462A4600F014F908
:100820003807C20F0221204600F00EF930684562F9
:10083000416A312908D8416A312905D8416A3129EC
:1008400002D8416A3229F3D310210122204600F058
:10085000FBF830684562416A312908D8416A31297C
:1008600005D8416A312902D8416A3229F3D303B04D
:10087000F0BD0000B0B5044600F0EEF80546601C7F
:1008800002D097480078041900F0E6F8401BA04217
:10089000FAD3B0BDF0B58BB007466548874205D0A6
:1008A000052000900D68002D06D1BEE003200090C9
:1008B0000D68002D00D1B8E0012300200646019309
:1008C00004460890099006910A9712E03243059E6B
:1008D000584842600D682846D840089A121D089270
:1008E00008365B1CA41C099A521C0992002800D1EE
:1008F0009BE05A1E01980792904005400495E9D06C
:1009000005964E68122E029461D80125B5404B4AD7
:1009100015425CD00325A540BA68AA430699CF6862
:10092000A74017430A998F60320907998A400A99AC
:100930004F68874317430A9847600A9F0699E84320
:10094000099A5400FA6802408D680394A540154343
:10095000FD6010223243122A12D11C21089A114044
:100960000F228A40079DED08AD007D192F6A97433D
:10097000069A12698A403A430A9F06992A624E688B
:100980003A680240032530462840039CA0401043AB
:100990003860F000059E029C9CD5182030400F2244
:1009A00082403E46079FAF433546224EF7193E6EC2
:1009B000964360370522120795420ED0204A954291
:1009C00009D0204A9542009D08D1022506E0032067
:1009D000A040C043B6E7012500E00025854035432F
:1009E0003D60154805684868C20302D5049E35433A
:1009F00001E0049EB5430A9F0F4A156055688203C3
:100A000001D5354300E0B5430B4A5560094A1568E6
:100A1000C20201D5354300E0B543064A156052686D
:100A2000800200D552E7B24351E70BB0F0BDC0469B
:100A3000000C00500018024080180240060006001A
:100A40000004005000080050002A02D018228150F3
:100A50007047282281507047054800687047C0469B
:100A60001F48007802490A68101808607047C0469D
:100A7000F8000020B0B50124200208490A680243AA
:100A80000A600025284600F00BF8002801D0204617
:100A9000B0BD00F027F82C462046B0BD0020024033
:100AA00070B50F4E31780124002916D005467D20FF
:100AB000C000FFF719FB014646480068FFF714FB2A
:100AC00000F09CFE032D08D8002806D10024E04346
:100AD0002946224600F022F87560204670BDC046C7
:100AE0004000002080B582B00B48416801221143CC
:100AF00041604168114001910199110702680A4360
:100B0000026000680840009000980320400200F056
:100B10006BFE02B080BDC0463C100240002805D4E8
:100B20000322034693430C4A9A1806E00F22024020
:100B3000083A03239A43074BD2188007C00E890155
:100B4000C9B28140FF238340106898430843106076
:100B50007047C0461CED00E000E400E0F0B581B055
:100B6000032569021A4E3246143A13688B43034335
:100B70001360012461020022884226D1F8480168EE
:100B80003068400521D50092A7020620484312494B
:100B9000FFF7AAFA201A022816D0316839420FD07E
:100BA000012811D0316839420AD000280CD03168B0
:100BB000394205D0001D032806D031683942EAD1F8
:100BC000009A104601B0F0BD2A46104601B0F0BDB3
:100BD000147000404800002040420F000120000235
:100BE0005C490A6802430A607047C046F0B587B0A6
:100BF00081788907564F01D400254FE005900123E5
:100C000019073A46183A10680840049006D110684F
:100C100008431060106808400690069802920391FD
:100C200001931E024B4C206830432060FFF714FFF5
:100C30000546206830420AD1FFF70EFF401B02280C
:100C4000F7D9032505980499002922D026E0032529
:100C50002902B868084011D00599896988420BD0EB
:100C6000B86801990904BA680A43BA60BA688A4345
:100C7000BA6039490840B860C00757D1BA683648E9
:100C80000240059881691143B96000250499002943
:100C900004D1029B1968039A914319600668F10711
:100CA00007D1B1070DD4B10613D4012172041AD4AF
:100CB00028E039680322914342680A433A60B10749
:100CC000F1D539680C22914382680A433A60B10633
:100CD000EBD5032109033A688A43C168114339609F
:100CE000012172040ED53A681C4B1A404469224314
:100CF0003A605A1C944205D10A043B46483B1C68A2
:100D000014431C6032050ED58C03032292033B680A
:100D10009343026913433B60A24204D10804483F55
:100D2000396801433960284607B0F0BDFFF794FEEB
:100D30000646864CB8688007A0D4FFF78DFE801B5E
:100D4000A042F7D9059804990029A2D0A6E7C04689
:100D50005410024000700040FFFCFFFFFFFFFF3F08
:100D6000F0B583B00D46012100281BD001910290FF
:100D70007548006807242040A84216D272490868C6
:100D8000A04328430860714EFFF766FE07466E4891
:100D900000682040A84208D0FFF75EFEC01BB042AA
:100DA000F5D90321084603B0F0BD029E30688107E3
:100DB000674B0CD5410703D521031A680A431A6013
:100DC0000F2109021A688A43B16811431960C007EC
:100DD0001BD15D4800682040A8422CD95A490868B8
:100DE000A04328430860594FFFF736FE0646564891
:100DF00000682040A8421ED0FFF72EFE801BB8429C
:100E0000F5D90321084603B0F0BD029840680328D5
:100E10005DD8810001A251588F46C0462D0E0008B2
:100E2000D30E0008DD0E0008E70E00081946083949
:100E30000968490559E0029A10784007444B05D5E6
:100E4000200319688143D068084318601868800639
:100E5000400F22D01A6838210A403E48082A23D081
:100E60001A680A40102A5ED1596803220A40032AF0
:100E700000D0394859684906490F491CFFF734F931
:100E8000334949684904490E484331494968490F83
:100E9000491CFFF729F92E4B06E018460838006870
:100EA0008004410F2C48C840196889093C220A4037
:100EB0002A4989581F220A40D040294908602948F8
:100EC0000068FFF7EDFD0146084603B0F0BD596D1F
:100ED0000AE0194608390968890306E01946083905
:100EE0000968890101E0996D8907019900D459E7E2
:100EF0001968A14301431960144FFFF7ADFD064681
:100F0000134800683821014002984068C0008142BF
:100F100000D15EE7FFF7A0FD801BB842F0D90321A6
:100F2000084603B0F0BD18680840202802D101200F
:100F3000C003B9E718680840182801D00020B3E7BB
:100F40007D200002B0E7C046002002408813000068
:100F50000810024000127A000024F400582400080F
:100F60004800002044000020F0B587B0012500288B
:100F700000D1F9E1049505900078C007FC4F2AD014
:100F8000B868F96803252A468A43382101401020B1
:100F90004840821850425041082914D0002812D1EC
:100FA00005984268012001048A4208D005231B04E9
:100FB0009A4200D0DAE082043B6813433B603A680F
:100FC0000A433A60DBE03868800304D5059840683E
:100FD000002800D176E105980078800723D4059891
:100FE000007800070CD5B86838210140182971D164
:100FF000386E800704D505988069002800D161E12A
:10100000059A1078400700D42EE1B86838210140D5
:10101000202974D1F86D800700D425E1906800285C
:1010200000D021E14EE1B96838200840102141404C
:10103000FA6803252A4002235340CA1851425141FD
:10104000002820D000291ED13868059AD1680029CF
:1010500000D1A2E00721C902884311690143396028
:10106000012001023A680A433A608402FFF7F4FC67
:1010700006463868204200D0A1E0FFF7EDFC801B57
:101080000228F6D970E139684905059B03D5D9686E
:10109000002900D116E17F2109027A688A43596943
:1010A00009021143796000280DD10720C002396878
:1010B000814318690843386038688004400FAD499F
:1010C000C140AD480160AD480068FFF7E9FC002869
:1010D00085D0F7E0386E05998969002979D001211A
:1010E00008433866FFF7B8FC0646386E800787D499
:1010F000FFF7B2FC801B03250228F6D934E101205A
:1011000003900107F86B0840029006D1F86B084382
:10111000F863F86B084006900698019198480068BB
:10112000C00513D403980402954908682043086059
:10113000FFF792FC064692480068204206D1FFF76E
:101140008BFC801B03250228F5D90DE105988068EA
:101150008C4C012805D005285AD1F86D0421014393
:10116000F965F86D03990843F8655BE03B688B43CC
:101170003B6081043B688B433B60002A3AD04404C7
:10118000FFF76AFC06463868204200D023E7FFF7E5
:1011900063FC801B6428F6D9E6E001210A02904333
:1011A00038608C02FFF758FC06463868204200D1B0
:1011B00015E7FFF751FC801B0228F6D9D4E07F2009
:1011C000000279688143059840690002084378600D
:1011D00005E7012188433866FFF73EFC0646386E76
:1011E000800700D40CE7FFF737FC801B032502289B
:1011F000F5D9B9E04404FFF72FFC064638682042D1
:1012000000D1E8E6FFF728FC801B6428F6D9ABE0A4
:10121000F96D039A9143F965F96D04229143F965DB
:1012200000280CD0FFF718FC0646F86D800713D491
:10123000FFF712FC801B0325A042F6D994E0FFF7CC
:101240000BFC0646F86D800706D5FFF705FC801BF2
:101250000325A042F6D987E002980028059A03D119
:10126000F86B01998843F863D069002826D0B968E3
:1012700038220A40102A29D1012823D0F8680321F6
:101280000140059B1A6A91421CD1702101405A6AA3
:10129000914217D17F21090201409A6A12029142BC
:1012A00010D11F2149040140DA6A9142049D5BD1AB
:1012B000072149070840196B884255D10025284667
:1012C00007B0F0BD049D284607B0F0BD012213060B
:1012D00039689943396002280FD103930492540668
:1012E000FFF7BAFB0646386820421BD0FFF7B4FB75
:1012F000801B03250228F6D936E0F8680325A843A9
:10130000F860F86820490140F9605606FFF7A4FB31
:10131000044638683042D1D0FFF79EFB001B0228FC
:10132000F7D921E0F86819490140059E20366DCEB5
:10133000084310431902014329433143F9603868D7
:1013400003990843386004980007F9680143F9607D
:10135000FFF782FB064638682042AFD1FFF77CFBDF
:10136000801B03250228F6D9284607B0F0BDC046E9
:10137000001002400024F400480000204400002037
:101380000070004088130000FFFFFEEF8C80C11F3B
:1013900002684068801889004018012109024058FD
:1013A0007047F0B500684368180CC8703F261E40AF
:1013B0008E701C0A1F2525404D701F047F0F0F7073
:1013C000002A01D00020F0BD0F22134037090A2661
:1013D0007743FB188B7014402B0973431B194B7018
:1013E0000240C0B2000970438018C8700020F0BDF0
:1013F000F0B581B0006883684B600369164C1C40EF
:101400008C6004687F20274607408F706302DB0FE3
:10141000CB70250A28404870230C3F261E400E70D2
:10142000002A02D0002001B0F0BD0F22009214402B
:101430003F090A2257433C198C70009C2540000943
:10144000504340194870234030095043C018087079
:10145000002001B0F0BDC046FF7F000070B500283D
:101460004AD00446064628367078002807D1002066
:1014700030701120C0026060204600F055F8022054
:1014800070702068CA21416253214162C1684906D7
:1014900016D4C16880220A43C260FFF7DDFA054610
:1014A0002068C16849060BD4FFF7D6FA401B7D219E
:1014B000C9008842F4D9032070702168CA6818E016
:1014C0008169184A0A408261A16862690A43E16938
:1014D000114382690A43826121690161E16809045B
:1014E00002690A430261204600F028FB21680028B7
:1014F00004D0FF224A6270BD012070BD0720400762
:101500008A6982438A61206A626A0243A069104341
:101510008A6902438A61FF204862012070700020BE
:1015200070BDC046BFFF8FFB81B000680A4988428A
:1015300001D001B070470120C103084A136A0B4370
:10154000136280021168014311601168014000912B
:10155000009801B07047C046002800403C1002408F
:10156000F0B583B004462820205C012802D1022077
:1015700003B0F0BD234628330220587001271F70A6
:10158000002A0097029306D0C87800044A78120215
:1015900017188E783CE04878C20603D5EF22104039
:1015A0000A304870CA7800260A2A0FD30A3AD3B202
:1015B000CD255D43EB0A0A255D43521B1B01103309
:1015C0001343DAB20A2806D233460EE033461343F9
:1015D000DAB20A28F8D30A38C3B2CD255D43EB0A44
:1015E0000A255D43401B1B01103312040343D8B28C
:1015F000070288780A2809D30A38C3B2CD255D438B
:10160000EB0A0A255D43401B1E01103617430643B3
:101610002068CA224262532242620A78C16849069F
:1016200001921CD4C16880220A43C260FFF714FAF9
:1016300005462068C168490611D4FFF70DFA401B22
:101640007D21C9008842F4D90320029B587021688B
:10165000CA68FF224A620021197003B0F0BDF1B2DE
:101660000F4301994903C02297430F434760204627
:1016700000F064FA2168FF224A620028029BEAD146
:101680000098587000200021197003B0F0BD0000D0
:10169000F0B583B004462820205C012802D1022046
:1016A00003B0F0BD16460D46224628320220507087
:1016B0002068CA21416253214162012101911170C8
:1016C000C168490602921CD4C16880220A43C260E4
:1016D000FFF7C2F907462068C168490611D4FFF731
:1016E000BBF9C01B7D21C9008842F4D90320029FA9
:1016F00078702168CA68FF224A620021397003B0FD
:10170000F0BD826940211140002E04D0002915D17E
:101710000021E97014E0002901D10021E9702A7844
:1017200000210A2A17D30A3AD3B2CD265E43F30A20
:101730000A265E43921B1B0110330DE0E9788905F0
:10174000029F019E2A7812046B781B029A18AB78CC
:10175000D3180B432BE00B461343DAB213046A7819
:101760000A2A0AD30A3AD6B2CD277743FE0A0A27B5
:101770007743D21B3601103600E00E46029F164317
:10178000F2B212021A43AB780A2B09D30A3BD9B240
:10179000CD264E43F10A0A264E439B1B0901103108
:1017A000019E1943C9B20A43E9788B0513430D49D9
:1017B00019400160B10482698A438261E9682A693B
:1017C0000A43816911438161204600F0B7F921681D
:1017D000FF224A62002890D17E70002000213970DB
:1017E00003B0F0BD7F7F7F0003214902024A1368E6
:1017F0008B4303431360704700000140401E010EFD
:1018000001D0012070470749074A50600748036824
:101810000B400321890759180160002090600721BF
:1018200011607047FFFFFF0010E000E020ED00E0D6
:1018300070B53C22825C012A01D1022070BD0246B3
:101840003C3202235370006845688368674CA042AD
:1018500001D02E4604E00F263605B5434E682E43D0
:101860007025AE430D68354345605E4DA84204D0F7
:101870005D4DA84201D0A04204D18024A3438968D1
:1018800019438160002010700121517070BDC04665
:10189000B0B5002824D0044605463C3568780028B9
:1018A00004D100202870204600F060F80220687003
:1018B000206803684D4A904202D04A49884211D1BB
:1018C00070218B43A1681943234B98420EDC454B92
:1018D000984214D0234B984211D090420FD039E057
:1018E0000120B0BD19461C4B9842F0DD3E4A9042A3
:1018F00005D01A4A904202D0194A90422AD10322B6
:101900001202914322690A4380218A43A16911434B
:101910000160E168C16261688162134941180A226D
:10192000D141072906D801228A40E1210A4201D08B
:1019300061690163012141612973A970E97029710D
:101940006971A971E97129726972A972E972697084
:101950000020B0BD0A46D7E7FF3F014000480140E4
:10196000004401400020004000D4FEBF81B0006868
:101970001E49884201D001B070470120C0020549CC
:101980000A6802430A60096801400091009801B0AA
:101990007047C046401002403D21415C012918D1EA
:1019A00001463D3102220A7001680E48814205D08D
:1019B0000D48814202D00D4881420CD188680C4A02
:1019C00002400020062A03D001231B049A4202D1C0
:1019D0007047012070470868012202430A60002016
:1019E0007047C0460004004000400140002C014008
:1019F0000700010070B53C22825C012A01D102205F
:101A000070BD02463C320223537000688368474C25
:101A10001C4084600B683F2B19DD5F2B1EDD602BA3
:101A200041D001246503AB4255D0702B79D1FF23FF
:101A30001B0284689C434B688D68C9681D4309027A
:101A400029432143816083687721194368E01F2B74
:101A50001EDC002B20D0102B1ED062E0402B4AD081
:101A6000502B5ED1036A046A0125AC430462846989
:101A7000F025AC43CD682D01254385610A24A3439D
:101A8000496819430162836829491940573147E081
:101A9000202B01D0302B44D18168254C0C402343AE
:101AA000072119433CE0036A1024A34303620F2378
:101AB0001B0384699C43CB681B032343046A836133
:101AC000A0239C43496809012143016283681849A6
:101AD0001940673124E0FF231B0285689D434B6852
:101AE0008E68C9681E430902314329438160A303FC
:101AF0008168194314E0036A046A0125AC43046257
:101B00008469F025AC43CD682D01254385610A2405
:101B1000A343496819430162836805491940473165
:101B20008160002010700121517070BD8800CEFFCF
:101B300088FFCFFFFEE7FEE770470000F0B581B0F9
:101B40000446234F38460C380168802291430160D7
:101B50007D20C6003868800615D42068C168A022A0
:101B60009143C160FEF778FF05462068C068800693
:101B700023D4FEF771FF401BB042F6D92921032080
:101B8000605401B0F0BD386820210091884338606E
:101B90002068C168A0229143C160FEF75DFF054641
:101BA0002068C06880060BD4FEF756FF401BB04289
:101BB000F6D929210320605403E0002001B0F0BDD4
:101BC00000203968009A1143396001B0F0BDC04669
:101BD00018280040704780B5FEF742FF80BD000026
:101BE000F0B599B000251295119510950F950E95A9
:101BF0000D950B950A9509950895079506950595F8
:101C0000049503950295019501267002FEF7A6FF43
:101C1000FEF7E4FF1F480168182291430160700736
:101C200018907004009017900820169015950224C3
:101C30001494139440201190109537020F970E962C
:101C400006200C900CA8FFF78FF9002803D0EFF3C3
:101C5000108072B6FEE73E46009F0B950A9507205E
:101C60000890099408A82146FFF77AF8002803D0C5
:101C7000EFF3108072B6FEE70796019701A8FEF712
:101C8000B5FF002803D0EFF3108072B6FEE719B05D
:101C9000F0BDC0465C1002400120C006014908604A
:101CA0007047C04608ED00E010B500242046FEF75E
:101CB0004DFA4820FEF74AFA3020FEF747FA022094
:101CC000FEF744FAAF204000FEF740FA1020FEF77E
:101CD0003DFA0620FEF73AFAA0B20021FEF724FBF7
:101CE000641C5F2CF8D110BD92B0FEF7C3FEFFF765
:101CF00077FF00261196DC48016804221143016039
:101D0000016811400A910A9901682022114301607B
:101D1000016811400A910A9901680127394301605D
:101D2000016839400A910A9901680224214301603F
:101D3000006820400A900A980520000709901325A2
:101D400029463246FEF780FEC84821463246FEF755
:101D50007BFE10960F960E970D950DAD09982946AE
:101D6000FEF798FD10960F960E970D94BF482946E2
:101D7000FEF790FDBE48BF493F24BF4A54C00160F2
:101D800046608660C66010960F960E960C38FFF778
:101D90007FFD002803D0EFF3108072B6FEE7380312
:101DA0000D90B3480DA9FFF725FE002803D0EFF3EF
:101DB000108072B6FEE70C960B960A96AC480AA9FC
:101DC000FFF736FD002803D0EFF3108072B6FEE770
:101DD000AA4DFF207F21AA4A2A63BA07AE63E963AE
:101DE00028646E64AE64EE642A656E652F463037F3
:101DF0003846FFF733FB002803D0EFF3108072B6AC
:101E0000FEE79B48FFF7C8FDFFF74EFF012138466C
:101E10000891FFF7BDFA9B49884200D003E1A40274
:101E2000029704940AE00020A8706878401C68704B
:101E3000029F049C0398C000FEF71CFD0E200226A2
:101E40003146FEF771FA12203146FEF76DFA294647
:101E50001C31002638463246FFF7CAFAE91C3846DC
:101E60003246FFF79EFA2A7F6B7FA87F0090E81D1D
:101E7000874900F017F97D2003900001A97908181F
:101E80006A792B79009028461130824900F00AF9CE
:101E9000697FC8B2CD235843C20A05931846504300
:101EA000C00A0A2307935843101AC0B2431EA87FE2
:101EB000082B099403D85B00774DEB5A0993079BD5
:101EC0005A43891AC9B2491E0829069403D8490001
:101ED000714A515A0691C1B2059A5143C90A4A43FF
:101EE000D20A5A438A1AD2B2521E082A254603D869
:101EF0005200694B9D5A079B37465943401AC0B25E
:101F0000401E082802D8400063490C5A099E069BCF
:101F100030460996089A104029461140E207920F70
:101F200051188900DA07920F891809185B48C05BBD
:101F30001E46FEF7F9F9BF1CA0B24408A8B2450836
:101F4000B0B24308099880B24608202FE0D14B4830
:101F5000007F0690C0B205994843C00A4143C90AB0
:101F6000079B5943411AC9B2491E0829049F3A46A2
:101F700002D84900484A525A43430698C01AC0B290
:101F8000401E082802D8400043490F5AEF2006029D
:101F9000CF2000020024424D134602461DE00840B7
:101FA000E907890F0818F907090F4018D907490FE1
:101FB00041181019008C07961E46FEF7B5F9A41CAF
:101FC0006D08B8B24708B0B24308099880B2420819
:101FD000079880B24608202C08D006980B28099252
:101FE000104608992D4ADAD83046D8E7234DA8780C
:101FF000411CA970C9B23C2900D114E769783C2979
:10200000029F049C06D100206870A8702878401CAC
:1020100028700FE72978182900D00BE700212980C4
:10202000801CA87006E70D960DA98E7016480880D2
:102030000F960E961196109614480A900122384673
:10204000FFF726FB002803D0EFF3108072B6FEE7FF
:102050000AA901223846FFF783FA002800D1DEE6FC
:10206000EFF3108072B6FEE7341002400004005017
:10207000AC000020FFFF0000002C014050000020B9
:1020800000280040F2320000154000000508192227
:10209000A624000898240008462400080000002018
:1020A000A06C00000FB410B504A9074B02AA039856
:1020B00000F01CF8044602A9002000F0BFF92046F9
:1020C00010BC08BC04B018473D24000802E008C852
:1020D000121F08C1002AFAD170477047002001E0A2
:1020E00001C1121F002AFBD170470000FFB58FB05D
:1020F0000546002606E025280AD0129A1199904735
:102100006D1C761C28780028F5D1304613B0F0BD40
:10211000002402940121B54A009400E004436D1CA0
:102120002B780846203B98401042F7D128782A287F
:102130000ED00222287801463039092916D8029992
:102140000A2359433039401814436D1C0290F1E7BB
:10215000109802C802911090002904DA012040036F
:10216000044348420290022004436D1C28782E2824
:1021700017D10420044368786D1C2A280CD11098CC
:102180006D1C02C8009110900BE000990A22514387
:10219000303940186D1C00902878014630390929E3
:1021A000F3D928786C2810D006DC4C281AD068287F
:1021B0000ED06A2817D104E0742813D07A2812D1DF
:1021C00010E00120400504430CE00121090501E075
:1021D000032109050C436978814203D101200005E0
:1021E00024186D1C6D1C2878692874D006DC002822
:1021F0008BD0632827D0642806D16CE06E2808D0E5
:1022000073282CD0752878D0129A11999047761C93
:102210005FE06002400F022809D003280DD0042897
:10222000109801680DD00E60001D109051E01098BC
:10223000F21701680E604A60F6E7109801680E8098
:10224000F2E70E70F0E710986A4601781173001DEE
:1022500010900020507303A80190012005E0109811
:1022600002C8019110900020C04361070CD50027DF
:1022700000E07F1C00998F420FDA8742F9DB019959
:10228000C95D0029F5D108E0002700E07F1C8742E6
:10229000FCDB0199C95D0029F8D102982146C01BD9
:1022A0000290129B119A00F0B3F88019C61907E04A
:1022B000019801990078491C0191129A119990474F
:1022C0007F1EF5D22146129B119A029800F090F8D9
:1022D00086196D1C16E70A200190109901C910910A
:1022E0006102490F032900D100B2042900D140B294
:1022F000002803DA40422D2103E00DE0210504D53A
:102300002B216A461173012103E0E10711D020213E
:10231000F7E70CAF0C9114E00A200190109901C965
:1023200010916102490F032900D180B2042900D124
:10233000C0B20021EDE70199FDF7D6FE30317F1ED6
:1023400039700028F7D104A8C01B20300190600725
:1023500004D5012000048443009801E0012000908E
:102360000199884201DD401A00E0002041180090E8
:102370000C9809180298401A0290E00306D42146EE
:10238000129B119A029800F043F8861900200D90D4
:1023900008E003A9085C129A119990470D98401C17
:1023A000761C0D900C998842F3DBE0030CD5214696
:1023B000129B119A029800F02BF8861904E0129AE9
:1023C000302011999047761C0099481E00900029F2
:1023D000F5DC05E03878129A7F1C11999047761C3D
:1023E0000199481E01900029F4DC6BE709280100DF
:1023F000F8B5044600251E461746880404D405E0B7
:1024000039462020B0476D1C641EF9D52846F8BD1A
:10241000FFB50446002581B01E46C80301D530270C
:1024200000E02027880404D505E038460399B0472A
:102430006D1C641EF9D5284605B0F0BD0A68531C12
:102440000B6010707047006000DB00F3006700B79E
:1024500000BF00E000FF00F70000000000000000E7
:10246000000000000000000000000000000000006C
:102470000000000000000000010000000200000059
:102480000300000004000000060000000700000038
:102490000800000009000000253032642D2530328C
:1024A000642D25326400253032643A253032643A96
:1024B0002530326400000000D8240008000000200D
:1024C00050000000CC200008282500085000002003
:1024D000B0040000DC200008FE00FE0035003100E2
:1024E0002D002900250021001D00190015001100F4
:1024F0000D00090005000100FE00FE003400300060
:102500002C002800240020001C00180014001000DB
:102510000C0008000400000001000000040000009E
:082520000024F400000000009B
:04000005080000B936
:00000001FF
