:020000040800F2
:1000000038060020CD000008812400087F24000865
:1000100000000000000000000000000000000000E0
:100020000000000000000000000000001D25000886
:100030000000000000000000832400081F250008C5
:10004000DF00000800000000DF000008DF000008FB
:10005000DF000008DF000008DF000008DF00000804
:1000600000000000DF000008DF000008DF000008DB
:10007000DF000008DF000008DF00000800000000CB
:10008000DF000008DF000008DF000008DF000008D4
:10009000DF000008DF000008DF000008DF000008C4
:1000A000DF000008DF000008DF000008DF000008B4
:1000B000412F00084D2F00080348854600F054F8F2
:1000C000004800479D2F000838060020044880475C
:1000D00004480047FEE7FEE7FEE7FEE7FEE7FEE72F
:1000E000E5250008B900000810B5044605E00B78C6
:1000F0000370401C002B00D0491C521EF7D2204632
:1001000010BD421C0178401C0029FBD1801A7047A9
:1001100030B504460020034600E05B1C934203D246
:10012000E05CCD5C401BF8D030BD70B504460029C2
:1001300003D000202022012310E0002801D000205D
:10014000C043C046C0460DE02546D5408D4205D38C
:100150000D469540641B1D46954040191546521E9C
:10016000002DF1DC214670BD064C0125064E05E050
:10017000E36807CC2B430C3C98471034B442F7D3C8
:10018000FFF79EFF7039000890390008F0B581B084
:10019000044605200507012128460A4600F0E8FC30
:1001A0007948006800274762416A312908D8416AC6
:1001B000312905D8416A312902D8416A3229F3D35D
:1001C000012128463A4600F0D3FC6F480068476298
:1001D000416A312908D8416A312905D8416A312953
:1001E00002D8416A3229F3D3102128463A4600F05A
:1001F000BFFC02210122284600F0BAFC62480068D8
:100200004762416A312908D8416A312905D8416AD3
:10021000312902D8416A3229F3D31021012228461C
:1002200000F0A6FC584800684762416A312908D8A6
:10023000416A312905D8416A312902D8416A3229F7
:10024000F3D3102128463A4600F092FC02212846BA
:100250003A4600F08DFC4C4800684762416A3129FB
:1002600008D8416A312905D8416A312902D8416A42
:100270003229F3D310210122284600F079FC4248AC
:1002800000684762416A312908D8416A312905D896
:10029000416A312902D8416A3229F3D31021284614
:1002A0003A4600F065FC022128463A4600F060FC20
:1002B000354800684762416A312908D8416A3129C6
:1002C00005D8416A312902D8416A3229F3D3102175
:1002D0000122284600F04CFC2B4800684762416A26
:1002E000312908D8416A312905D8416A312902D813
:1002F000416A3229F3D33E4603E0761C6400092E9E
:100300002FD0102128463A4600F032FCE005C20FFB
:100310000221284600F02CFC1B4800684762416A15
:10032000312908D8416A312905D8416A312902D8D2
:10033000416A3229F3D310210122284600F018FC2B
:100340001148006800214162416A3129D5D8416ACB
:100350003129D2D8416A3129CFD8416A3229F3D321
:10036000CBE701B0F0BDC046F0B583B00F460290B8
:1003700005200407012120460A4600F0F9FB024E41
:1003800030680025456201E0C4000020416A31293F
:1003900008D8416A312905D8416A312902D8416A11
:1003A0003229F3D3012120462A4600F0E1FB3068D0
:1003B0004562416A312908D8416A312905D8416A24
:1003C000312902D8416A3229F3D3102120462A4626
:1003D00000F0CEFB02210122204600F0C9FB30686C
:1003E0004562416A312908D8416A312905D8416AF4
:1003F000312902D8416A3229F3D310210122204643
:1004000000F0B6FB30684562416A312908D8416A7C
:10041000312905D8416A312902D8416A3229F3D3FA
:10042000102120462A4600F0A3FB022120462A463E
:1004300000F09EFB30684562416A312908D8416A64
:10044000312905D8416A312902D8416A3229F3D3CA
:1004500010210122204600F08BFB30684562416A82
:10046000312908D8416A312905D8416A312902D891
:10047000416A3229F3D3102120462A4600F078FB46
:1004800002210122204600F073FB30684562416A78
:10049000312908D8416A312905D8416A312902D861
:1004A000416A3229F3D310210122204600F060FB7B
:1004B00030684562416A312908D8416A312905D836
:1004C000416A312902D8416A3229F3D310212046EA
:1004D0002A4600F04DFB02984006C20F022120463A
:1004E00000F046FB30684562416A312908D8416A0C
:1004F000312905D8416A312902D8416A3229F3D31A
:1005000010210122204600F033FB30684562416A29
:10051000312908D8416A312905D8416A312902D8E0
:10052000416A3229F3D3102120462A4600F020FBED
:1005300002988006C20F0221204600F019FB3068A5
:100540004562416A312908D8416A312905D8416A92
:10055000312902D8416A3229F3D3102101222046E1
:1005600000F006FB30684562416A312908D8416ACB
:10057000312905D8416A312902D8416A3229F3D399
:10058000102120462A4600F0F3FA0298C006C20F56
:100590000221204600F0ECFA30684562416A3129B8
:1005A00008D8416A312905D8416A312902D8416AFF
:1005B0003229F3D310210122204600F0D9FA306805
:1005C0004562416A312908D8416A312905D8416A12
:1005D000312902D8416A3229F3D3102120462A4614
:1005E00000F0C6FA02980007C20F0221204600F070
:1005F000BFFA30684562416A312908D8416A312919
:1006000005D8416A312902D8416A3229F3D3102131
:100610000122204600F0ACFA30684562416A312977
:1006200008D8416A312905D8416A312902D8416A7E
:100630003229F3D3102120462A4600F099FA029875
:100640004007C20F0221204600F092FA306845624E
:10065000416A312908D8416A312905D8416A3129CE
:1006600002D8416A3229F3D3019710210122204692
:1006700000F07EFA30684562416A312908D8416A43
:10068000312905D8416A312902D8416A3229F3D388
:10069000102120462A4600F06BFA02988007C20F0C
:1006A0000221204600F064FA374630684562416A0C
:1006B000312908D8416A312905D8416A312902D83F
:1006C000416A3229F3D3102101262046324600F038
:1006D0004FFA38684562416A312908D8416A3129A0
:1006E00005D8416A312902D8416A3229F3D3102151
:1006F00020462A4600F03CFA029A32400221204667
:1007000000F036FA3E4638684562416A312908D819
:10071000416A312905D8416A312902D8416A322912
:10072000F3D31021012720463A4600F021FA306821
:100730004562416A312908D8416A312905D8416AA0
:10074000312902D8416A3229F3D3102120462A46A2
:1007500000F00EFA01980740022120463A4600F0C8
:1007600007FA30684562416A312908D8416A31295F
:1007700005D8416A312902D8416A3229F3D31021C0
:100780000122204600F0F4F930684562416A3129BF
:1007900008D8416A312905D8416A312902D8416A0D
:1007A0003229F3D3102120462A4600F0E1F9019FB7
:1007B000B807C20F0221204600F0DAF9306845621E
:1007C000416A312908D8416A312905D8416A31295D
:1007D00002D8416A3229F3D310210122204600F0C9
:1007E000C7F930684562416A312908D8416A312920
:1007F00005D8416A312902D8416A3229F3D3102140
:1008000020462A4600F0B4F97807C20F022120469C
:1008100000F0AEF930684562416A312908D8416A72
:10082000312905D8416A312902D8416A3229F3D3E6
:1008300010210122204600F09BF930684562416A90
:10084000312908D8416A312905D8416A312902D8AD
:10085000416A3229F3D3102120462A4600F088F954
:100860003807C20F0221204600F082F93068456245
:10087000416A312908D8416A312905D8416A3129AC
:1008800002D8416A3229F3D310210122204600F018
:100890006FF930684562416A312908D8416A3129C7
:1008A00005D8416A312902D8416A3229F3D303B00D
:1008B000F0BD000070B500282CD0014624314A78E4
:1008C000022A29D1046822680E239A432260426CCE
:1008D0001568304B1D401560256801229543256041
:1008E000046C1C2525401446AC402B4D2E68264335
:1008F0002E60846CC56C6560046D002C05D0256885
:100900001D402560436D806D58604A7000200022B4
:100910000A7070BD012070BD0422C2630120002254
:100920000A7070BD70B52521415C02292DD10146A8
:10093000243103681A680E24A2431A601C6801223D
:1009400094431C60446C2568124B1D402560046C68
:100950001C2525401446AC400F4D2E6826432E60C2
:10096000846CC56C6560046D002C05D025681D4045
:100970002560436D846D5C6000240C704A70816B4F
:10098000002900D08847204670BD0421C1630120A2
:1009900070BDC046FFFEFFFF04000240B0B5044634
:1009A00000F0EEF80546601C02D097480078041964
:1009B00000F0E6F8401BA042FAD3B0BDF0B58BB012
:1009C00007466548874205D0052000900D68002D38
:1009D00006D1BEE0032000900D68002D00D1B8E0E4
:1009E00001230020064601930446089009900691D1
:1009F0000A9712E03243059E584842600D68284627
:100A0000D840089A121D089208365B1CA41C099A4B
:100A1000521C0992002800D19BE05A1E01980792AF
:100A2000904005400495E9D005964E68122E029438
:100A300061D80125B5404B4A15425CD00325A5403D
:100A4000BA68AA430699CF68A74017430A998F60EE
:100A5000320907998A400A994F68874317430A98D1
:100A600047600A9F0699E843099A5400FA680240D1
:100A70008D680394A5401543FD6010223243122A6D
:100A800012D11C21089A11400F228A40079DED08BF
:100A9000AD007D192F6A9743069A12698A403A433E
:100AA0000A9F06992A624E683A680240032530463A
:100AB0002840039CA04010433860F000059E029C33
:100AC0009CD5182030400F2282403E46079FAF43FE
:100AD0003546224EF7193E6E9643603705221207BF
:100AE00095420ED0204A954209D0204A9542009D59
:100AF00008D1022506E00320A040C043B6E7012547
:100B000000E00025854035433D601548056848688C
:100B1000C20302D5049E354301E0049EB5430A9FFB
:100B20000F4A15605568820301D5354300E0B5438F
:100B30000B4A5560094A1568C20201D5354300E0E9
:100B4000B543064A15605268800200D552E7B243A9
:100B500051E70BB0F0BDC046000C00500018024039
:100B600080180240060006000004005000080050F3
:100B7000002A02D0182281507047282281507047E5
:100B8000054800687047C0461F48007802490A6857
:100B9000101808607047C04630020020B0B501242C
:100BA000200208490A6802430A600025284600F02E
:100BB0000BF8002801D02046B0BD00F027F82C46E5
:100BC0002046B0BD0020024070B50F4E31780124A0
:100BD000002916D005467D20C000FFF7A6FA014681
:100BE0004C480068FFF7A1FA00F002FF032D08D877
:100BF000002806D10024E0432946224600F02EF8C2
:100C00007560204670BDC0464000002080B582B0AF
:100C10000B48416801221143416041681140019134
:100C20000199110702680A430260006808400090B9
:100C300000980320400200F0D1FE02B080BDC04603
:100C40003C100240002805D41F21084001218140AA
:100C5000014801607047C04600E100E0002805D46B
:100C60000322034693430C4A9A1806E00F220240DF
:100C7000083A03239A43074BD2188007C00E890114
:100C8000C9B28140FF238340106898430843106035
:100C90007047C0461CED00E000E400E0F0B581B014
:100CA000032569021A4E3246143A13688B430343F4
:100CB0001360012461020022884226D1F5480168B0
:100CC0003068400521D50092A7020620484312490A
:100CD000FFF72BFA201A022816D0316839420FD0BC
:100CE000012811D0316839420AD000280CD031686F
:100CF000394205D0001D032806D031683942EAD1B7
:100D0000009A104601B0F0BD2A46104601B0F0BD71
:100D1000147000404800002040420F0001200002F3
:100D20005C490A6802430A607047C046F0B587B064
:100D300081788907564F01D400254FE005900123A3
:100D400019073A46183A10680840049006D110680E
:100D500008431060106808400690069802920391BC
:100D600001931E024B4C206830432060FFF708FFC0
:100D70000546206830420AD1FFF702FF401B0228D7
:100D8000F7D9032505980499002922D026E00325E8
:100D90002902B868084011D00599896988420BD0AA
:100DA000B86801990904BA680A43BA60BA688A4304
:100DB000BA6039490840B860C00757D1BA683648A8
:100DC0000240059881691143B96000250499002902
:100DD00004D1029B1968039A914319600668F107D0
:100DE00007D1B1070DD4B10613D4012172041AD46E
:100DF00028E039680322914342680A433A60B10708
:100E0000F1D539680C22914382680A433A60B106F1
:100E1000EBD5032109033A688A43C168114339605D
:100E2000012172040ED53A681C4B1A4044692243D2
:100E30003A605A1C944205D10A043B46483B1C6860
:100E400014431C6032050ED58C03032292033B68C9
:100E50009343026913433B60A24204D10804483F14
:100E6000396801433960284607B0F0BDFFF788FEB6
:100E70000646864CB8688007A0D4FFF781FE801B29
:100E8000A042F7D9059804990029A2D0A6E7C04648
:100E90005410024000700040FFFCFFFFFFFFFF3FC7
:100EA000F0B583B00D46012100281BD001910290BE
:100EB0007548006807242040A84216D27249086885
:100EC000A04328430860714EFFF75AFE07466E485C
:100ED00000682040A84208D0FFF752FEC01BB04275
:100EE000F5D90321084603B0F0BD029E30688107A2
:100EF000924B0CD5410703D521031A680A431A60A7
:100F00000F2109021A688A43B16811431960C007AA
:100F10001BD15D4800682040A8422CD95A49086876
:100F2000A04328430860594FFFF72AFE064656485B
:100F300000682040A8421ED0FFF722FE801BB84266
:100F4000F5D90321084603B0F0BD02984068032894
:100F50005DD8810001A251588F46C0466D0F000830
:100F6000131000081D100008271000081946083942
:100F70000968490559E0029A107840076F4B05D57A
:100F8000200319688143D0680843186018688006F8
:100F9000400F22D01A6838210A406948082A23D015
:100FA0001A680A40102A5ED1596803220A40032AAF
:100FB00000D0644859684906490F491CFFF7B5F845
:100FC0005E4949684904490E48435C494968490FEC
:100FD000491CFFF7AAF8594B06E018460838006884
:100FE0008004410F5748C840196889093C220A40CB
:100FF000274989581F220A40D0402F4908602648B7
:101000000068FFF7E1FD0146084603B0F0BD596DE9
:101010000AE0194608390968890306E019460839C3
:101020000968890101E0996D8907019900D459E7A0
:101030001968A14301431960144FFFF7A1FD06464B
:101040003E4800683821014002984068C000814253
:1010500000D15EE7FFF794FD801BB842F0D9032171
:10106000084603B0F0BD18680840202802D10120CE
:10107000C003B9E718680840182801D00020B3E77A
:101080007D200002B0E7C046002002408813000027
:10109000C4380008480000204400002006480068CA
:1010A00026490968890A1C220A40044989581F22D6
:1010B0000A40D0407047C04648000020043900086C
:1010C00010B51E4C20688006400F06D022683821DB
:1010D0000A401B48082A07D110BD083C206880043C
:1010E000410F1848C84010BD22680A40102A15D187
:1010F000616803220A40032A00D012486168490649
:10110000490F491CFFF711F861684904490E48432B
:101110006168490F491CFFF708F810BD20680840B6
:10112000202802D10120C00310BD206808401828E3
:1011300001D0002010BD7D20000210BD081002402B
:1011400000127A000024F400F0B587B001250028D1
:1011500000D1F9E1049505900078C007FC4F2AD032
:10116000B868F96803252A468A43382101401020CF
:101170004840821850425041082914D0002812D10A
:1011800005984268012001048A4208D005231B0407
:101190009A4200D0DAE082043B6813433B603A682D
:1011A0000A433A60DBE03868800304D5059840685C
:1011B000002800D176E105980078800723D40598AF
:1011C000007800070CD5B86838210140182971D182
:1011D000386E800704D505988069002800D161E148
:1011E000059A1078400700D42EE1B86838210140F4
:1011F000202974D1F86D800700D425E1906800287B
:1012000000D021E14EE1B96838200840102141406A
:10121000FA6803252A4002235340CA18514251411B
:10122000002820D000291ED13868059AD1680029ED
:1012300000D1A2E00721C902884311690143396046
:10124000012001023A680A433A608402FFF798FCE1
:1012500006463868204200D0A1E0FFF791FC801BD1
:101260000228F6D970E139684905059B03D5D9688C
:10127000002900D116E17F2109027A688A43596961
:1012800009021143796000280DD10720C002396896
:10129000814318690843386038688004400FAD49BD
:1012A000C140AD480160AD480068FFF78DFC0028E3
:1012B00085D0F7E0386E05998969002979D0012138
:1012C00008433866FFF75CFC0646386E800787D413
:1012D000FFF756FC801B03250228F6D934E10120D4
:1012E00003900107F86B0840029006D1F86B0843A1
:1012F000F863F86B084006900698019198480068DA
:10130000C00513D403980402954908682043086077
:10131000FFF736FC064692480068204206D1FFF7E8
:101320002FFC801B03250228F5D90DE10598806864
:101330008C4C012805D005285AD1F86D04210143B1
:10134000F965F86D03990843F8655BE03B688B43EA
:101350003B6081043B688B433B60002A3AD04404E5
:10136000FFF70EFC06463868204200D023E7FFF75F
:1013700007FC801B6428F6D9E6E001210A029043AD
:1013800038608C02FFF7FCFB06463868204200D12B
:1013900015E7FFF7F5FB801B0228F6D9D4E07F2084
:1013A000000279688143059840690002084378602B
:1013B00005E7012188433866FFF7E2FB0646386EF1
:1013C000800700D40CE7FFF7DBFB801B0325022816
:1013D000F5D9B9E04404FFF7D3FB0646386820424C
:1013E00000D1E8E6FFF7CCFB801B6428F6D9ABE020
:1013F000F96D039A9143F965F96D04229143F965FA
:1014000000280CD0FFF7BCFB0646F86D800713D40C
:10141000FFF7B6FB801B0325A042F6D994E0FFF747
:10142000AFFB0646F86D800706D5FFF7A9FB801BCA
:101430000325A042F6D987E002980028059A03D137
:10144000F86B01998843F863D069002826D0B96801
:1014500038220A40102A29D1012823D0F868032114
:101460000140059B1A6A91421CD1702101405A6AC1
:10147000914217D17F21090201409A6A12029142DA
:1014800010D11F2149040140DA6A9142049D5BD1C9
:10149000072149070840196B884255D10025284685
:1014A00007B0F0BD049D284607B0F0BD0122130629
:1014B00039689943396002280FD103930492540686
:1014C000FFF75EFB0646386820421BD0FFF758FB4B
:1014D000801B03250228F6D936E0F8680325A843C7
:1014E000F860F86820490140F9605606FFF748FBAC
:1014F000044638683042D1D0FFF742FB001B022877
:10150000F7D921E0F86819490140059E20366DCED3
:10151000084310431902014329433143F9603868F5
:1015200003990843386004980007F9680143F9609B
:10153000FFF726FB064638682042AFD1FFF720FBB5
:10154000801B03250228F6D9284607B0F0BDC04607
:10155000001002400024F400480000204400002055
:101560000070004088130000FFFFFEEF8C80C11F59
:10157000026840688018890040180121090240581B
:10158000704703684068C0188900401801210902AB
:1015900042507047F0B500684368180CC8703F2689
:1015A0001E408E701C0A1F2525404D701F047F0FA2
:1015B0000F70002A01D00020F0BD0F221340370920
:1015C0000A267743FB188B7014402B0973431B19B1
:1015D0004B700240C0B2000970438018C8700020F0
:1015E000F0BD0000F0B581B0006883684B6003690E
:1015F000164C1C408C6004687F20274607408F7083
:101600006302DB0FCB70250A28404870230C3F266D
:101610001E400E70002A02D0002001B0F0BD0F2243
:10162000009214403F090A2257433C198C70009CD9
:101630002540000950434019487023403009504369
:10164000C0180870002001B0F0BDC046FF7F000048
:1016500070B500284AD0044606462836707800281F
:1016600007D1002030701120C0026060204600F0D9
:1016700055F8022070702068CA21416253214162EE
:10168000C168490616D4C16880220A43C260FFF7C8
:1016900077FA05462068C16849060BD4FFF770FA4F
:1016A000401B7D21C9008842F4D903207070216855
:1016B000CA6818E08169184A0A408261A1686269B3
:1016C0000A43E169114382690A4382612169016128
:1016D000E168090402690A430261204600F0D2FE73
:1016E0002168002804D0FF224A6270BD012070BD2D
:1016F000072040078A6982438A61206A626A02433E
:10170000A06910438A6902438A61FF204862012070
:101710007070002070BDC046BFFF8FFB81B00068B5
:101720000A49884201D001B070470120C103084A2C
:10173000136A0B4313628002116801431160116840
:1017400001400091009801B07047C0460028004059
:101750003C100240F0B583B004462820205C0128EC
:1017600002D1022003B0F0BD234628330220587076
:1017700001271F70002A0097029306D0C878000442
:101780004A78120217188E783CE04878C20603D5D2
:10179000EF2210400A304870CA7800260A2A0FD378
:1017A0000A3AD3B2CD255D43EB0A0A255D43521BAD
:1017B0001B0110331343DAB20A2806D233460EE077
:1017C00033461343DAB20A28F8D30A38C3B2CD2518
:1017D0005D43EB0A0A255D43401B1B0110331204D5
:1017E0000343D8B2070288780A2809D30A38C3B25B
:1017F000CD255D43EB0A0A255D43401B1E011036D3
:10180000174306432068CA224262532242620A7882
:10181000C168490601921CD4C16880220A43C26093
:10182000FFF7AEF905462068C168490611D4FFF7F5
:10183000A7F9401B7D21C9008842F4D90320029BEF
:1018400058702168CA68FF224A620021197003B0EB
:10185000F0BDF1B20F4301994903C02297430F43F2
:101860004760204600F00EFE2168FF224A620028F1
:10187000029BEAD10098587000200021197003B033
:10188000F0BD0000F0B583B004462820205C01289C
:1018900002D1022003B0F0BD16460D462246283282
:1018A000022050702068CA21416253214162012107
:1018B00001911170C168490602921CD4C16880224E
:1018C0000A43C260FFF75CF907462068C168490611
:1018D00011D4FFF755F9C01B7D21C9008842F4D906
:1018E0000320029F78702168CA68FF224A620021A3
:1018F000397003B0F0BD826940211140002E04D040
:10190000002915D10021E97014E0002901D100213E
:10191000E9702A7800210A2A17D30A3AD3B2CD26D1
:101920005E43F30A0A265E43921B1B0110330DE04F
:10193000E9788905029F019E2A7812046B781B02C0
:101940009A18AB78D3180B432BE00B461343DAB24B
:1019500013046A780A2A0AD30A3AD6B2CD27774303
:10196000FE0A0A277743D21B3601103600E00E46E6
:10197000029F1643F2B212021A43AB780A2B09D324
:101980000A3BD9B2CD264E43F10A0A264E439B1B91
:1019900009011031019E1943C9B20A43E9788B0548
:1019A00013430D4919400160B10482698A43826181
:1019B000E9682A690A43816911438161204600F080
:1019C00061FD2168FF224A62002890D17E700020CC
:1019D0000021397003B0F0BD7F7F7F0003214902F1
:1019E000024A13688B4303431360704700000140B1
:1019F000401E010E01D0012070470749074A506080
:101A0000074803680B40032189075918016000202B
:101A10009060072111607047FFFFFF0010E000E0B9
:101A200020ED00E070B53C22825C012A01D1022049
:101A300070BD02463C3202235370006845688368DB
:101A4000674CA04201D02E4604E00F263605B54370
:101A50004E682E437025AE430D68354345605E4D9C
:101A6000A84204D05D4DA84201D0A04204D18024F8
:101A7000A3438968194381600020107001215170CF
:101A800070BDC046B0B5002824D0044605463C359C
:101A90006878002804D100202870204600F060F803
:101AA00002206870206803684D4A904202D04A497B
:101AB000884211D170218B43A1681943234B98426E
:101AC0000EDC454B984214D0234B984211D09042E3
:101AD0000FD039E00120B0BD19461C4B9842F0DD13
:101AE0003E4A904205D01A4A904202D0194A90428A
:101AF0002AD103221202914322690A4380218A4398
:101B0000A16911430160E168C162616881621349A2
:101B100041180A22D141072906D801228A40E12131
:101B20000A4201D061690163012141612973A970F1
:101B3000E97029716971A971E97129726972A972D3
:101B4000E97269700020B0BD0A46D7E7FF3F014047
:101B500000480140004401400020004000D4FEBF86
:101B600081B000681E49884201D001B07047012051
:101B7000C00205490A6802430A60096801400091F1
:101B8000009801B07047C046401002403D21415CC2
:101B9000012918D101463D3102220A7001680E4820
:101BA000814205D00D48814202D00D4881420CD1BE
:101BB00088680C4A02400020062A03D001231B0437
:101BC0009A4202D1704701207047086801220243FF
:101BD0000A6000207047C0460004004000400140F9
:101BE000002C01400700010070B53C22825C012AF4
:101BF00001D1022070BD02463C32022353700068BE
:101C00008368474C1C4084600B683F2B19DD5F2BB9
:101C10001EDD602B41D001246503AB4255D0702BF3
:101C200079D1FF231B0284689C434B688D68C96887
:101C30001D430902294321438160836877211943A9
:101C400068E01F2B1EDC002B20D0102B1ED062E082
:101C5000402B4AD0502B5ED1036A046A0125AC4365
:101C600004628469F025AC43CD682D01254385616C
:101C70000A24A3434968194301628368294919402A
:101C8000573147E0202B01D0302B44D18168254CBF
:101C90000C402343072119433CE0036A1024A3436B
:101CA00003620F231B0384699C43CB681B032343FC
:101CB000046A8361A0239C434968090121430162AE
:101CC000836818491940673124E0FF231B028568A7
:101CD0009D434B688E68C9681E43090231432943FE
:101CE0008160A3038168194314E0036A046A012533
:101CF000AC4304628469F025AC43CD682D012543D3
:101D000085610A24A3434968194301628368054930
:101D1000194047318160002010700121517070BD61
:101D20008800CEFF88FFCFFFB0B58021415C01293C
:101D300001D10220B0BD02468032242151600168E9
:101D40000B680C680125AC430C606C07A3430B6067
:101D5000002141661170202050600846B0BD7047D8
:101D600070470000F0B581B08022825C012A02D168
:101D7000022001B0F0BD054668352422EA610668FC
:101D8000376832680124A243326007225206B368E2
:101D900093430B43B360406E0028204615D0009754
:101DA000B768B068400F2B49095C2B4A105CC00033
:101DB000FEF7BBF904463801009F400F2549095C36
:101DC000254A105CC000FEF7B0F928806C803760AF
:101DD000002028762021E96101B0F0BDF0B581B086
:101DE0008022825C012A02D1022001B0F0BD0546AA
:101DF00068352422EA610668376832680124A24304
:101E0000326007225207B36893430B43B360406EBE
:101E10000028204615D00097B768B068400F0D49DC
:101E2000095C0D4A105CC000FEF77FF904463801DA
:101E3000009F400F0749095C074A105CC000FEF78D
:101E400074F928806C803760002028762021E961B1
:101E500001B0F0BD543900084C3900087047704794
:101E600070470000F0B58BB001460368DF692020A1
:101E700006900125EE0232462F323A4018680C4691
:101E80005C3407949C68202A08930A97099410D11F
:101E90000246069F3A4001231B072340D2180646FC
:101EA00015D00A6F002A00D1A0E1084690470BB078
:101EB000F0BD03960F363742064608D02C46D34A6B
:101EC00032402D07681C099B184082187BD132468E
:101ED000102604923240534253410A9F3A46324000
:101EE000544254410591CA6E521E551EAA412243C6
:101EF0001A433ED001240126B305099803405A42F3
:101F00005A41FB02234600D51346002B059800D109
:101F1000E9E03A0608D5802204990A40F305099DB4
:101F20001D40521900D04CE14023049D1D406A42DF
:101F30006A417D06254600D51546002D00D109E1F0
:101F4000B20704980240504250413A02224600D55E
:101F50000246002A059800D13EE10499002900DBE1
:101F60003EE10026F90100D53DE1002C00D03DE125
:101F700048E108990E628868400600D5BAE00C4630
:101F80000798418802884388002B059800D12DE1ED
:101F9000511A0A0400D129E109225201236893430E
:101FA0002360A2689A4B1340A360079A069BD362F2
:101FB0000022C26602672268B243226089B2FFF73C
:101FC000CEFE0BB0F0BD0190009505910A9A22401B
:101FD00053425341220204963240554255411D431B
:101FE00006D10122089B1A62079D2B6B13432B63BA
:101FF0000120099B029003405A425A410A998D07D9
:102000002546039E00D51546002D07D10222089DC6
:102010002A620798026B0425154305635A425A4108
:102020004B0723460ED51346002B059D0DD10422E8
:10203000089802620798026B0223134303630A079E
:1020400016D504E0002B059DF1D00A0710D50199A3
:102050004A1E914104988206224600D40A46012A6B
:1020600006D10822089802620798036B13430363A2
:102070000298830604990B405A425A410A9830420A
:102080000ED01446002C079B099C0DD108980662BF
:102090001A6B069802431A631A6B002A08D1A5E04E
:1020A000002C079B099CF1D01A6B002A00D19DE0FF
:1020B00006980A9A024005D0009A14400140214334
:1020C00000D095E00899079C206B282202408B687D
:1020D000402003409A184BD12846FFF7C1FE00204C
:1020E00020630BB0F0BD3105089A1162FFF7B7FE0F
:1020F0000BB0F0BD059DE86F03685C68A7B2002FC8
:1021000074D0079A1288974270D2079F7C803C4611
:102110001B689B0616D4404A20320B6813400B60A4
:102120008A6801239A438A608A6840239A438A60B6
:10213000069AE2620022EA660A68B2430A60FEF783
:10214000B9FB22886088101A81B22846FFF707FE83
:102150000BB0F0BD08990868984308600021059805
:1021600041670799069A8A6200F088F90BB0F0BDC2
:10217000092252010B6893430B608A68244B134079
:102180008B60EA6E012A03D10A6810239A430A6021
:10219000069AE2620022EA662A678A68520616D523
:1021A0008A6882438A60E86F002810D019498163E9
:1021B000FEF7B8FB002819D0E86F816B88470BB099
:1021C000F0BD416F002911D088470BB0F0BD284603
:1021D000FFF746FE0BB0F0BDFFF740FE0BB0F0BDC1
:1021E000F90100D4C1E63446002C0BD00BB0F0BD91
:1021F0002A6F002A0899079C00D165E72846904776
:10220000296861E7FFF7ACFD0BB0F0BD20010004C9
:10221000FEFFFFEFF5270008DFFEFFFFB0B5002847
:1022200030D00446054680356868002804D1002077
:102230002870204600F028F8242068602068016893
:102240000125A9430160204600F0B0FC012817D009
:10225000A06A002802D0204600F0CCF90920C00274
:1022600021684A6882434A6088682A2290438860CD
:102270000868012202430A60204600F025FA05465C
:102280002846B0BD0120B0BD70B586B000240594CD
:10229000049403940294019400682D4988421CD050
:1022A0002C49884251D12C488268012105914B0468
:1022B0001A43826082681A400092009A02680A43B8
:1022C0000260006808400090049403940220029089
:1022D0000C20019000981C242AE0012082041E4951
:1022E0008B6813438B608B6813400093009A0A68D5
:1022F00004252A430A600A682A400092009A0A6864
:1023000002430A6009680140009100990594049411
:10231000039402260296C0020190104801A9FEF71C
:102320004DFB0595049403940296202001901D24F2
:102330000520000701A9FEF741FB002120460A46BF
:10234000FEF78CFC2046FEF77DFC06B070BDC04653
:102350000048004000440040341002400008005093
:1023600070B58823C4580223202C10D101240029E1
:102370001AD0002A18D001252C038668A64208D15D
:10238000CC0706D00469002C03D1284670BD18463E
:1023900070BD064680363478012C1C4604D00024DB
:1023A000C466357000F0C6FC204670BD80B5034998
:1023B0000A3103480A22FFF7D3FF80BD50000020F6
:1023C000A0010020F0B581B08423C4580223202C42
:1023D00013D1012500290DD0002A0BD086680124D5
:1023E00000942703BE420CD1CC070AD00469002C0C
:1023F00007D1009D284601B0F0BD1D46284601B01A
:10240000F0BD044680342578012D1D46F2D00346E8
:1024100054335A800025E5601A80016521216160EE
:10242000009B5907426E8A4206D1BE4202D1016921
:10243000002908D0104907E0BE4202D101690029F5
:1024400009D00B4908E00B49002222704167D905E9
:102450000068083004E00549257041670068802164
:1024600002680A430260284601B0F0BD152E00083C
:10247000B12E0008552E0008ED2E00087047FEE72B
:10248000FEE77047F0B581B00446234F38460C385C
:1024900001688022914301607D20C6003868800673
:1024A00015D42068C168A0229143C160FEF768FB83
:1024B00005462068C068800623D4FEF761FB401BF8
:1024C000B042F6D929210320605401B0F0BD38682C
:1024D00020210091884338602068C168A022914380
:1024E000C160FEF74DFB05462068C06880060BD42E
:1024F000FEF746FB401BB042F6D929210320605469
:1025000003E0002001B0F0BD00203968009A1143BB
:10251000396001B0F0BDC04618280040704780B552
:10252000FEF732FB80BD0000F0B599B00025129592
:10253000119510950F950E950D950B950A9509958A
:1025400008950795069505950495039502950195BF
:1025500001267002FEF7A2FBFEF7E0FB20480168AF
:102560001822914301607007189070040090179032
:10257000082016901595022414941394402011906D
:10258000109537020F970E9606200C900CA8FEF7B8
:10259000DBFD002803D0EFF3108072B6FEE73E4665
:1025A000009F0B950A9507200890099408A82146DA
:1025B000FEF776FC002803D0EFF3108072B6FEE73A
:1025C00007960395B81C019001A8FEF7AFFB002801
:1025D00003D0EFF3108072B6FEE719B0F0BDC0462D
:1025E0005C1002400120C006014908607047C046E7
:1025F00008ED00E0B0B5816ACA070CD18A0714D48F
:102600004A071CD40A0724D4CA062CD48A0634D418
:102610004A063CD44CE00122520403685C689443AF
:10262000C26A22435A608A07EAD50122120403686B
:102630005C689443026B22435A604A07E2D5012248
:10264000920403685C689443426B22435A600A0711
:10265000DAD50122D20303685C689443826B22437B
:102660005A60CA06D2D50122120303689C689443BB
:10267000C26B22439A608A06CAD5012252030368BC
:102680009C689443026C22439A604A0610D501224A
:102690001305026854689C43456C2C4354609D426A
:1026A00006D103235B0554689C43836C234353602A
:1026B000090607D50121C904026853688B43C06C21
:1026C00018435060B0BD0000F0B585B004468C20C2
:1026D0000026265020468C30029027468037FEF791
:1026E0004FFA05462068016809070496039727D525
:1026F000C169890224D4012047050190C60202E085
:10270000C16939421CD1FEF73BFA421B20680168BF
:10271000374B9A4249D84907F2D5C1693142EFD0C7
:1027200006620D21490102688A4302608168019AAC
:10273000914381602020039A5060906002994FE09D
:102740000168490727D5C069400224D401208705C4
:102750000190C60202E0C06938421CD1FEF710FAAF
:10276000421B20680168224B9A422CD84907F2D5B7
:10277000C1693142EFD006620D21490102688A43E6
:1027800002608168019A914381602020039A506021
:102790009060029924E02020039A50609060049990
:1027A000E1660846117005B0F0BD0D22520191435B
:1027B00001608168019A914381602020039A5060F2
:1027C000114608310CE00D225201914301608168ED
:1027D000019A914381602020039A5060114608318C
:1027E0002020086003200499117005B0F0BDC04698
:1027F000FFFFFF0180B5806A0146563100220A8141
:1028000056214252FFF72CFB80BDB0B50446602034
:10281000225A88202158206822290ED121465C3175
:10282000436A1A40A36D1A804A88521E4A809A1C35
:10283000A2654A88002A05D0B0BD816908220A43F2
:102840008261B0BD0922520103689343036082682C
:1028500001239A4382602022CA6200252567E26E26
:10286000012A09D1026810239A4302600988204690
:10287000FFF775FAE566B0BD2046FFF797FDE56600
:10288000B0BD0000F0B585B006466020355A30680E
:10289000C169036884688822B258222A00D081E086
:1028A0000394029334465C3420220092A289002AC9
:1028B0007BD0009A114078D00122039911400391F6
:1028C00004921102029A0A4002920195416A29403B
:1028D000B26D11806188491E6180911CB165C76924
:1028E00079072CD0029B5A425A41FB07049B00D027
:1028F0001346002B04D101220262236B134323638E
:10290000039B5A425A41BB07049B00D51346002B38
:1029100005D102220262226B042313432363039B2B
:102920005A425A410029049926D4002927D0206B05
:10293000002804D03046FFF793FA00202063608817
:1029400000282BD101200102306802688A4302600E
:102950008168954A114081602021E1620025356738
:10296000F16E012915D1016810229143016021887F
:102970003046FFF7F4F90FE011460029D7D10421C2
:102980000162206B022101432163206B0028D1D119
:10299000D5E73046FFF70AFDF566019DB80604D578
:1029A000306893E7183008220EE0608800280ED0C7
:1029B000A18988420BD2074830677B48411C3068A8
:1029C00082680A408260009A01681143016005B084
:1029D000F0BDC0460B280008B0B504466020225A5E
:1029E00088202058216822280FD120465C30496A6F
:1029F0001140A26D11704188491E4180A16D491C92
:102A0000A1654188002905D0B0BD8869082202432C
:102A10008A61B0BD09214A0121680B6893430B60AC
:102A20008A6801239A438A602022C26200252567B2
:102A3000E26E012A09D10A6810239A430A600188CC
:102A40002046FFF78CF9E566B0BD2046FFF7AEFCE7
:102A5000E566B0BDF0B585B004466020255A206813
:102A6000C169036886688822A258222A00D083E0C0
:102A70000396029326465C3620220092B289002AF1
:102A80007DD0009A11407AD0012203991140039120
:102A900004921102029A0A4002920195406A28406B
:102AA000A16D08707088401E7080A06D401CA065EC
:102AB0002068C76979072CD0029B5A425A41FB070C
:102AC000049B00D01346002B04D101220262336B19
:102AD00013433363039B5A425A41BB07049B00D5FF
:102AE0001346002B05D102220262326B04231343EA
:102AF0003363039B5A425A410029049926D4002982
:102B000027D0306B002804D02046FFF7A9F9002019
:102B10003063708800282BD10120010220680268F0
:102B20008A4302608168204A114081602021F1625D
:102B300000252567E16E012915D101681022914316
:102B4000016031882046FFF70AF90FE0114600299D
:102B5000D7D104210162306B022101433163306B14
:102B60000028D1D1D5E72046FFF720FCE566019D7E
:102B7000B80604D5206891E7183008220EE0708866
:102B800000280ED0B18988420BD2A14820670648A0
:102B9000411C206882680A408260009A01681143E3
:102BA000016005B0F0BDC046FEFFFFEFF0B581B09B
:102BB00004460068026852491140A2682369134321
:102BC00065691D43E2691543636E2B430B43036044
:102BD0000321090343688B43E16819434160A169FC
:102BE000236A0B438168474D0D401D438560C36ACE
:102BF0000F218B43616A0B43C3620023424DA842FD
:102C000006DC444DA84210D0434DA84215D013E035
:102C10003E4DA84211D03E4B98420DD13F4800682E
:102C20008007000F3E4B1B5807E03C4800680C2310
:102C300003403B48C35800E0102326466836012570
:102C4000EF033848BA4210D1082B50D87B441B7987
:102C50005B009F44044C234C1C4C4C4C2200FEF760
:102C60001DFA002817D0616A18E0082B3FD8C0462B
:102C70007B441B795B009F44043A2A3A233A3A3A50
:102C80002900FEF70BFA00281ED0616A1FE0FEF74C
:102C900017FA0028E7D1002529E038464900224AE2
:102CA000515AFDF742FA400061684A081018FDF7D2
:102CB0003CFA1E4901401AD00007400F084313E0B8
:102CC000FEF7FEF90028E0D1002510E03846490063
:102CD000154A515AFDF729FA61684A081018FDF79C
:102CE00024FA80B2102802D32168C8600025104859
:102CF0003060002020676067284601B0F0BDC04604
:102D0000F369FFCFFFF4FF11FF4B0040004C004080
:102D10000038014000440040004800405410024088
:102D20003C3900080024F40024390008F0FF0000BA
:102D300001000100F0B584B05C23C25281650446F5
:102D40005C346280866801468031002E00920396D2
:102D50000BD001231D07AE420CD01B039E420ED1A7
:102D60000369002B04D1514A0CE00369002B08D100
:102D7000FF2207E00269002A03D03F2202E000227E
:102D800000E07F22A28000220192CA6022220291EA
:102D90008A600668B26801273A43B2603D023A038E
:102DA0007B07416E994203D1A189009B99420DD9BD
:102DB0000399914202D1016900291ED0144A029957
:102DC000019B0B7002672035334610E00399914256
:102DD00002D10169002912D00B4A0299019C3346A5
:102DE00008330C7002673068284330603D0718686C
:102DF00028431860002004B0F0BD044ADFE7014A10
:102E0000EBE7C04685280008552A00080B28000873
:102E1000D929000810B58421415821290FD1014634
:102E200056310A88002A0BD0026D13881F4C1C40B3
:102E300003689C62921C02650888401E088010BDD1
:102E400000680168802291430160016840220A43C2
:102E5000026010BD70B58421415821291AD1024663
:102E60005632938A002B15D00168104C02E05B1E8D
:102E70001D040FD01588002D0DD0CD692D06F6D577
:102E8000056D2E8826408E62AD1C056515886D1E69
:102E90001580ECE770BD0120C0058A6882438A6016
:102EA0000868402202430A6070BDC046FF0100006E
:102EB00010B58421415821290DD1014656310A8887
:102EC000002A09D00268036D1C7894625A1C0265BE
:102ED0000888401E088010BD006801688022914368
:102EE0000160016840220A43026010BDB0B5842130
:102EF0004158212918D102465632938A002B13D00B
:102F0000016802E05B1E1C040ED01488002C0CD05B
:102F1000CC692406F6D5046D25788D62641C0465A1
:102F20001488641E1480EDE7B0BD0120C0058A68D6
:102F300082438A600868402202430A60B0BD0000F4
:102F400080B5DC48FEF78EFF80BDC04680B50248E4
:102F5000FEF788FF80BDC046A001002010B5002408
:102F60002046FDF713F94820FDF710F93020FDF752
:102F70000DF90220FDF70AF9AF204000FDF706F930
:102F80001020FDF703F90620FDF700F9A0B200219B
:102F9000FDF7EAF9641C5F2CF8D110BD92B0FDF783
:102FA000FDFDFFF7C1FA00251195BD480168042217
:102FB00011430160016811400A910A9901682022B9
:102FC00011430160016811400A910A9901680127C3
:102FD00039430160016839400A910A990168022663
:102FE00031430160006830400A900A9805200007CC
:102FF0000990132421462A46FDF7BAFDA948314617
:103000002A46FDF7B5FD10950F950E970D940DAC62
:1030100009982146FDF7D2FC10950F950E970D9655
:10302000A0482146FDF7CAFC9F48A0493F24A04A7A
:1030300034C0016045608560C56010950F950E95A0
:103040000C38FEF71FFD002803D0EFF3108072B696
:10305000FEE738030D9094480DA9FEF7C5FD002842
:1030600003D0EFF3108072B6FEE70C950B950A952E
:103070008D480AA9FEF7D6FC002803D0EFF3108094
:1030800072B6FEE708978B480C278B4905624562AC
:1030900085624B22D60142C0056045608560C760ED
:1030A000056145610838FFF7B9F8002803D0EFF350
:1030B000108072B6FEE77F480021FEF78FFE0028E1
:1030C00003D0EFF3108072B6FEE77A480025294658
:1030D000FEF748FE002803D0EFF3108072B6FEE73B
:1030E0007448FEF721FE002803D0EFF3108072B67B
:1030F000FEE7F54AFF237F20F44991640899890788
:103100001565506509939365D56515665566916695
:10311000D566104648300390FEF79AFA002803D08F
:10312000EFF3108072B6FEE7E948EA4942C0056055
:1031300045608560C760056145618561C56105625F
:103140000838FFF76BF8002803D0EFF3108072B651
:10315000FEE7DC48FEF71AFDFFF700FFDA4E3146C6
:103160000A31DB480A220291FFF7FAF80998023087
:10317000B0800899F170039F3846FEF7F9F9D64EF2
:10318000B04200D077E1A0020590CF4E09E00020C8
:10319000B0707078401C7070039F7D20C000FDF7F8
:1031A000FDFB354634350024384629462246FEF7D5
:1031B00019FAB11D384609942246FEF7EBF934207E
:1031C0000690325C6B78A878009034461434204620
:1031D000C44900F09DF9304628300A270490214662
:1031E0003A46FCF781FF35461E3528460299079777
:1031F0003A46FCF779FF07262846BBA13246FCF782
:1032000087FF0746401E39468141AF48C1702846B6
:10321000B7A13246FCF77CFF0446401E214681419F
:10322000A94801712846B4A13246A74EFCF770FFA9
:10323000411E02468A417271002F0FD0002C089F58
:10324000059D01D0002841D1002C37D12220012139
:10325000FDF78AF8002C37D0741D36E0099F0DACBD
:103260002046A749049A00F053F90A2298482146BB
:10327000FFF7A8F86420FDF791FBF41CB07F00284D
:103280000AD039463E46A955761C2846FCF739FF38
:1032900039468642F7D38C4E059D089F15E0C046FF
:1032A0003410024000040050C4000020FFFF000062
:1032B000002C014010010020004400401220012198
:1032C000FDF752F8002CC7D1341D27700E200224C0
:1032D0002146FDF749F812202146FDF745F8352033
:1032E000315CC8B2CD277843C20A38465043C00A81
:1032F000079C6043101AC0B2431E3620305C082B76
:10330000099504D85B007F4CE35A0993079C6243FC
:10331000891AC9B2491E08292B4602D84900794AA0
:10332000535AC1B27943C90A04973A464A43D20A6A
:1033300062438A1AD2B2521E082A2F4604D852007B
:103340001E46704B9F5A33466143401AC0B2401E1E
:1033500008282C4602D840006A490C5A0025099ECC
:1033600030460996089A104039461140E207920FFC
:1033700051188900DA07920F891809186248405BD2
:103380001E46FCF7F1FFAD1CA0B24408B8B24708D6
:10339000B0B24308099880B24608202DE0D14A48CF
:1033A0000699405C0690C0B204994843C00A414364
:1033B000C90A079B5943411AC9B2491E0829059EEB
:1033C000324602D849004F4A525A43430698C01A1F
:1033D000C0B2401E082802D840004A490E5AEF20C9
:1033E0000402CF2000020025484F134602461EE08B
:1033F00008990840F907890F0818F107090F4018C4
:10340000D907490F41185019008C07941C46FCF746
:10341000ABFFAD1C7F08B0B24608A0B243080998C4
:1034200080B24208079880B24408202D07D0069841
:103430000B2809921046344ADAD82046D8E7224EA3
:10344000B078411CB170C9B23C2900D19FE67178B7
:103450003C29039F06D100207070B0703078401C6A
:1034600030709AE63178182900D096E60021318034
:10347000801CB07091E60D950DA98D7017480880DD
:103480000F950E951195109515480A900122384612
:10349000FEF7F8F9002803D0EFF3108072B6FEE7CC
:1034A0000AA901220398FEF755F9002803D0EFF38B
:1034B000108072B6FEE70121039F38463246FEF7C0
:1034C00060F860E6C40000205000002000280040A2
:1034D000A001002000480040F23200001017000058
:1034E00004081922613900080A74696D650D00002D
:1034F0000A706C61790D00000A776966690D000039
:103500005C390008B238000800000020A06C000000
:103510000FB410B504A9074B02AA039800F01CF8D9
:10352000044602A9002000F0BFF9204610BC08BCE8
:1035300004B01847A938000802E008C8121F08C1E3
:10354000002AFAD170477047002001E001C1121F24
:10355000002AFBD170470000FFB58FB0054600265A
:1035600006E025280AD0129A119990476D1C761C06
:1035700028780028F5D1304613B0F0BD002402941D
:103580000121B54A009400E004436D1C2B780846E5
:10359000203B98401042F7D128782A280ED00222EA
:1035A000287801463039092916D802990A23594347
:1035B0003039401814436D1C0290F1E7109802C88E
:1035C00002911090002904DA01204003044348428C
:1035D0000290022004436D1C28782E2817D1042065
:1035E000044368786D1C2A280CD110986D1C02C801
:1035F000009110900BE000990A2251433039401895
:103600006D1C00902878014630390929F3D92878B3
:103610006C2810D006DC4C281AD068280ED06A28F6
:1036200017D104E0742813D07A2812D110E00120B9
:10363000400504430CE00121090501E003210905CF
:103640000C436978814203D10120000524186D1CC8
:103650006D1C2878692874D006DC00288BD063287C
:1036600027D0642806D16CE06E2808D073282CD0AF
:10367000752878D0129A11999047761C5FE0600205
:10368000400F022809D003280DD0042810980168A3
:103690000DD00E60001D109051E01098F2170168D7
:1036A0000E604A60F6E7109801680E80F2E70E702F
:1036B000F0E710986A4601781173001D1090002001
:1036C000507303A80190012005E0109802C80191F1
:1036D00010900020C04361070CD5002700E07F1C3C
:1036E00000998F420FDA8742F9DB0199C95D002901
:1036F000F5D108E0002700E07F1C8742FCDB019940
:10370000C95D0029F8D102982146C01B0290129B86
:10371000119A00F0B3F88019C61907E001980199D1
:103720000078491C0191129A119990477F1EF5D299
:103730002146129B119A029800F090F886196D1C90
:1037400016E70A200190109901C910916102490FF2
:10375000032900D100B2042900D140B2002803DAC5
:1037600040422D2103E00DE0210504D52B216A46BE
:103770001173012103E0E10711D02021F7E70CAF1D
:103780000C9114E00A200190109901C91091610276
:10379000490F032900D180B2042900D1C0B2002111
:1037A000EDE70199FCF7C1FC30317F1E397000282C
:1037B000F7D104A8C01B20300190600704D5012078
:1037C00000048443009801E00120009001998842A0
:1037D00001DD401A00E00020411800900C98091803
:1037E0000298401A0290E00306D42146129B119AD7
:1037F000029800F043F8861900200D9008E003A914
:10380000085C129A119990470D98401C761C0D90F7
:103810000C998842F3DBE0030CD52146129B119AE8
:10382000029800F02BF8861904E0129A30201199C2
:103830009047761C0099481E00900029F5DC05E0B1
:103840003878129A7F1C11999047761C0199481E6E
:1038500001900029F4DC6BE709280100F8B5044663
:1038600000251E461746880404D405E0394620206A
:10387000B0476D1C641EF9D52846F8BDFFB5044657
:10388000002581B01E46C80301D5302700E020275F
:10389000880404D505E038460399B0476D1C641EC2
:1038A000F9D5284605B0F0BD0A68531C0B601070AE
:1038B0007047006000DB00F3006700B700BF00E066
:1038C00000FF00F700000000000000000000000002
:1038D00000000000000000000000000000000000E8
:1038E00000000000010000000200000003000000D2
:1038F00004000000060000000700000008000000AF
:1039000009000000000000000000000000000000AE
:1039100000000000010000000200000003000000A1
:1039200004000000010002000400060008000A0074
:103930000C0010002000400080000001000000008A
:103940000400000002000000080000000101010363
:103950000701000008040204080101010A25730D93
:1039600000253032643A253032643A253032640022
:103970009039000800000020500000003835000891
:10398000E039000850000020E80500004835000834
:10399000FE00FE00350031002D0029002500210029
:1039A0001D001900150011000D000900050001009F
:1039B000FE00FE00340030002C002800240020000F
:1039C0001C001800140010000C0008000400000087
:1039D00001000000040000000024F40000000000CA
:04000005080000B936
:00000001FF
