:020000040800F2
:10000000F8040020D5000008411A00081D1300085C
:1000100000000000000000000000000000000000E0
:10002000000000000000000000000000451A000869
:100030000000000000000000431A0008471A0008F2
:10004000E7000008E7000008E7000008E7000008F4
:10005000E7000008E7000008E7000008E7000008E4
:1000600000000000E7000008E7000008E7000008C3
:10007000E7000008E7000008E7000008E7000008C4
:10008000E7000008E7000008E7000008E7000008B4
:1000900000000000E7000008E70000082113000846
:1000A000E7000008E7000008E7000008E700000894
:1000B000E7000008E7000008000000000000000062
:1000C0000348854600F096F800480047191F0008CD
:1000D000F80400200448804704480047FEE7FEE794
:1000E000FEE7FEE7FEE7FEE7111B0008C10000087F
:1000F000F0B51FB40646002082B0054640240191A9
:1001000000901BE0019922460F46304600F061F84E
:10011000049A059B801A994110D31046194622462D
:1001200000F047F8361A8F4101972246012000213E
:10013000009F00F03EF838184D4100902046641EA4
:100140000028DFDC019B00982946324607B0F0BD4D
:10015000D2B201E00270401C491EFBD2704700225F
:10016000F6E710B513460A4604461946FFF7F0FFB6
:10017000204610BD70B50446002903D0002020227F
:10018000012310E0002801D00020C043C046C04633
:100190000DE02546D5408D4205D30D469540641BA4
:1001A0001D46954040191546521E002DF1DC214692
:1001B00070BD10B5202A04DB0146203A9140002092
:1001C00010BD914020239C1A0346E3401943904000
:1001D00010BD10B5202A04DB0846203AD04000218B
:1001E00010BD0B46D340D0402024A21A91400843B2
:1001F000194610BD064C0125064E05E0E36807CC04
:100200002B430C3C98471034B442F7D3FFF75CFF04
:10021000A0210008C021000870B52521415C0229F9
:100220002DD10146243103681A680E24A2431A60B6
:100230001C68012294431C60446C2568124B1D40CD
:100240002560046C1C2525401446AC400F4D2E68DB
:1002500026432E60846CC56C6560046D002C05D04F
:1002600025681D402560436D846D5C6000240C7022
:100270004A70816B002900D08847204670BD042158
:10028000C163012070BDC046FFFEFFFF04000240B5
:100290002521405C70470000B0B5044600F0F6F838
:1002A0000546601C02D004480078041900F0EEF8FE
:1002B000401BA042FAD3B0BD00000020F0B58BB0C7
:1002C00007466548874205D0052000900D68002D3F
:1002D00006D1BEE0032000900D68002D00D1B8E0EB
:1002E00001230020064601930446089009900691D8
:1002F0000A9712E03243059E584842600D6828462E
:10030000D840089A121D089208365B1CA41C099A52
:10031000521C0992002800D19BE05A1E01980792B6
:10032000904005400495E9D005964E68122E02943F
:1003300061D80125B5404B4A15425CD00325A54044
:10034000BA68AA430699CF68A74017430A998F60F5
:10035000320907998A400A994F68874317430A98D8
:1003600047600A9F0699E843099A5400FA680240D8
:100370008D680394A5401543FD6010223243122A74
:1003800012D11C21089A11400F228A40079DED08C6
:10039000AD007D192F6A9743069A12698A403A4345
:1003A0000A9F06992A624E683A6802400325304641
:1003B0002840039CA04010433860F000059E029C3A
:1003C0009CD5182030400F2282403E46079FAF4305
:1003D0003546224EF7193E6E9643603705221207C6
:1003E00095420ED0204A954209D0CF4A9542009DB1
:1003F00008D1022506E00320A040C043B6E701254E
:1004000000E00025854035433D6015480568486893
:10041000C20302D5049E354301E0049EB5430A9F02
:100420000F4A15605568820301D5354300E0B54396
:100430000B4A5560094A1568C20201D5354300E0F0
:10044000B543064A15605268800200D552E7B243B0
:1004500051E70BB0F0BDC046000C00500018024040
:1004600080180240060006000004005042690B4656
:1004700093430A401104C91881617047002A02D0D1
:10048000182281507047282281507047D348006855
:100490007047C046B0B502464120135C0220202BB5
:1004A00019D1134640331C78012C14D024205870E5
:1004B000106802680124A243026022030568954384
:1004C000056002680A430260016821430160002060
:1004D000187020215970B0BDB0B502464120135CA0
:1004E0000220202B19D1134640331C78012C14D044
:1004F00024205870106802680124A24302600F2271
:1005000012020568954309022943016001682143ED
:1005100001600020187020215970B0BD70477047ED
:10052000F0B581B00122150201688B691C462C4090
:10053000664266410F6880243C406742674137430A
:1005400004D1466C012737434764CD61654265415C
:100550005E05164600D52E46002E05D19502466C46
:10056000082737434764CD61654265419B051346C3
:1005700009D4002B0AD0416C0B22114201D000F0AB
:1005800055FF01B0F0BD2B46002BF4D15202436C55
:1005900002241C434464CA61416C0B221142EED117
:1005A000EFE780B502689169436B1268002B00D0B9
:1005B000984780BD10B500F00DF8042800D110BD9B
:1005C000594C40212046FFF751FF7D20C000FFF726
:1005D00063FEF6E7406C70474121405C70470000C5
:1005E000F0B581B0002822D0044605464035687831
:1005F000002804D100202870204600F047F824206D
:1006000068702068026801218A4302600F22120686
:100610006368934303618368194A13408360A36846
:10062000E668012E06D1CE03334383600AE0012041
:1006300001B0F0BD2127BF023B438360022E01D1F0
:10064000CB02436043680F4E1E434660C3681340AD
:10065000C360226963691343A26912021A43C2602C
:10066000E269236A1343036002680A4302600020C0
:100670006064202169702063A87001B0F0BDC0469D
:10068000FF7FFFFF008000027047000070B586B05A
:1006900000681849884201D006B070BD0126039653
:1006A000154D2868304328602868304000900620A7
:1006B000059000240494122002900320400201902F
:1006C00000980520000701A9FFF7F8FD7005A9684B
:1006D0000143A960A96801400091009817252846A8
:1006E0002146224600F0D6F8284600F0C7F806B0AA
:1006F00070BDC046005400403410024080B5094827
:100700000121017008484021FFF7B0FE80BDC046BE
:1007100080B504480121417003484021FFF7A6FE3F
:1007200080BDC0461000002000080050F0B5034610
:1007300041201C5C0220202C1DD11C464034257811
:10074000012D18D0222060702020A0700020586455
:100750000125EE031D686F68B7436F605A855A8D97
:10076000184EDE6259621849596320701A8529684B
:10077000FC220A432A60F0BDF0B5034641201C5C10
:100780000220202C1DD11C4640342578012D18D084
:10079000212060702020A070002058640125EE0305
:1007A0001D686F68B7436F605A855A8D054EDE62CB
:1007B00059620549596320701A852968FA220A434B
:1007C0002A60F0BD0000FFFFDD1700081F48007819
:1007D00002490A68101808607047C046F4000020FB
:1007E000B0B50124200208490A6802430A600025C6
:1007F000284600F00BF8002801D02046B0BD00F0DC
:1008000027F82C462046B0BD0020024070B50F4EA0
:1008100031780124002916D005467D20C000FFF75D
:10082000A9FC014649480068FFF7A4FC00F0FAFC67
:10083000032D08D8002806D10024E043294622468B
:1008400000F028F87560204670BDC046000000200A
:1008500082B009484168012211434160416811405A
:1008600001910199110702680A430260006808407B
:100870000090009802B070473C100240002805D458
:100880001F21084001218140014801607047C04696
:1008900000E100E0002805D40322034693430C4AFC
:1008A0009A1806E00F220240083A03239A43074BA6
:1008B000D2188007C00E8901C9B28140FF2383404E
:1008C00010689843084310607047C0461CED00E074
:1008D00000E400E0F0B581B0032569021A4E32460B
:1008E000143A13688B43034313600124610200220E
:1008F000884226D1154801683068400521D500920C
:10090000A702062048431249FFF734FC201A0228A8
:1009100016D0316839420FD0012811D031683942E0
:100920000AD000280CD03168394205D0001D0328B8
:1009300006D031683942EAD1009A104601B0F0BDC4
:100940002A46104601B0F0BD147000400800002097
:1009500040420F00F0B587B0817889076A4F01D413
:1009600000254FE00590012319073A46183A106810
:100970000840049006D110680843106010680840D1
:10098000069006980292039101931E025F4C206824
:1009900030432060FFF77AFD0546206830420AD1D7
:1009A000FFF774FD401B0228F7D903250598049929
:1009B000002922D026E003252902B868084011D07A
:1009C0000599496A88420BD0B86801990904BA6848
:1009D0000A43BA60BA688A43BA604D490840B860B1
:1009E000C0077ED1BA684A4802400598416A11435F
:1009F000B96000250499002904D1029B1968039A63
:100A0000914319600668F1070BD1F10611D4B105C5
:100A100018D471051FD4B10626D4012172042DD437
:100A20003BE039680322914342680A433A60F10689
:100A3000EDD5032189023A688A4381681143396000
:100A4000B105E6D5032189043A688A434169114317
:100A500039607105DFD5032109053A688A43816948
:100A600011433960B106D8D5032109033A688A4396
:100A7000C16811433960012172040ED53A68254BD3
:100A80001A40C46922433A605A1C944205D10A04B0
:100A90003B46483B1C6814431C60B2020DD58A05D6
:100AA0003B689343046A23433B60944205D10A06A2
:100AB0003B46483B1C6814431C6032050ED58C0332
:100AC000032292033B689343026913433B60A242B3
:100AD00004D10804483F396801433960284607B00B
:100AE000F0BDFFF7D3FC0646864CB868800700D5FA
:100AF00078E7FFF7CBFC801BA042F6D90598049954
:100B0000002900D179E77DE75410024000700040D1
:100B1000FFFCFFFFFFFFFF3FF0B583B00D46012153
:100B200000281BD0019102907548006807242040DE
:100B3000A84216D272490868A04328430860714E43
:100B4000FFF7A4FC07466E4800682040A84208D082
:100B5000FFF79CFCC01BB042F5D90321084603B047
:100B6000F0BD029E30688107914B0CD5410703D53B
:100B700021031A680A431A600F2109021A688A437E
:100B8000B16811431960C0071BD15D48006820405F
:100B9000A8422CD95A490868A04328430860594FF5
:100BA000FFF774FC0646564800682040A8421ED055
:100BB000FFF76CFC801BB842F5D90321084603B04F
:100BC000F0BD0298406803285DD8810001A2515809
:100BD0008F46C046E50B00088B0C0008950C0008FA
:100BE0009F0C0008194608390968490559E0029A1E
:100BF000107840076E4B05D5200319688143D068F3
:100C00000843186018688006400F22D01A683821FF
:100C10000A406848082A23D01A680A40102A5ED180
:100C2000596803220A40032A00D0634859684906DC
:100C3000490F491CFFF79EFA5D4949684904490E6E
:100C400048435B494968490F491CFFF793FA584BE1
:100C500006E01846083800688004410F5648C8402E
:100C6000196889093C220A40274989581F220A40ED
:100C7000D0402E49086025480068FFF7C7FD0146AF
:100C8000084603B0F0BD596D0AE0194608390968F5
:100C9000890306E0194608390968890101E0996D60
:100CA0008907019900D459E71968A14301431960E4
:100CB000144FFFF7EBFB06463D4800683821014022
:100CC00002984068C000814200D15EE7FFF7DEFB7A
:100CD000801BB842F0D90321084603B0F0BD186864
:100CE0000840202802D10120C003B9E71868084055
:100CF000182801D00020B3E77D200002B0E7C046ED
:100D00000020024088130000182100080400002081
:100D10000648006826490968890A1C220A400449D5
:100D200089581F220A40D0407047C0460800002062
:100D30005821000810B51E4C20688006400F06D0D0
:100D4000226838210A401B48082A07D110BD083CF8
:100D500020688004410F1848C84010BD22680A402E
:100D6000102A15D1616803220A40032A00D01248D4
:100D700061684906490F491CFFF7FCF9616849049D
:100D8000490E48436168490F491CFFF7F3F910BD4C
:100D900020680840202802D10120C00310BD20682F
:100DA0000840182801D0002010BD7D20000210BD91
:100DB0000810024000127A000024F400F0B587B059
:100DC0000125002800D105E2049505900078C007B0
:100DD000F44F2AD0B868F96803252A468A43382197
:100DE000014010204840821850425041082914D038
:100DF000002812D105984268012001048A4208D0D7
:100E000005231B049A4200D006E182043B68134389
:100E10003B603A680A433A6008E13868800304D5C9
:100E200005984068002800D157E1059800788007B0
:100E300016D405980078000745D4059A1078400725
:100E40004ED4D069002800D143E1B96838220A4065
:100E5000102A00D0B6E0012800D012E1049DB9E1CB
:100E6000B9683820084010214140FA680326324012
:100E700002235340CA18514251410125AC020028B7
:100E80003AD0002938D13868059AD168002900D1B4
:100E9000DAE00721C9028843116901433960280259
:100EA000396801433960FFF7F1FA05463868204296
:100EB00000D0DCE0FFF7EAFA401B0228F6D93546FD
:100EC000284607B0F0BDB8683821014018293BD149
:100ED000386E8007B1D5059880690028ADD1FCE057
:100EE000B86838210140202945D1F86D8007A8D580
:100EF00090680028A5D1F0E039682142059B03D015
:100F0000D968002900D165E17F2109027A688A4306
:100F1000596909021143796000280DD10720C002E8
:100F20003968814318690843386038688004400F85
:100F3000B549C140B5480160B5480068FFF766FC97
:100F4000002800D046E174E7386E059989690029C8
:100F500000D1DBE0012108433866FFF797FA064627
:100F6000386E800700D568E7FFF790FA801B0325ED
:100F70000228F5D92EE1012003900107F86B084003
:100F8000029006D1F86B0843F863F86B08400690AE
:100F9000069801919F480068C0052CD4039804026C
:100FA0009C49086820430860FFF770FA0646994894
:100FB000006820421FD1FFF769FA801B0325022831
:100FC000F5D907E1012213063968994339600228EF
:100FD00000D086E0039304925406FFF757FA0646C2
:100FE0003868204200D1B0E0FFF750FA801B03259B
:100FF0000228F5D9EEE005988068874C012806D0D4
:10100000052800D0D0E0F86D04210143F965F86DA2
:1010100003990843F865D1E03B688B433B6081044A
:101020003B688B433B60002A00D180E04404FFF71B
:101030002DFA06463868204200D0F6E6FFF726FA79
:10104000801B6428F6D9C5E0290288433860FFF781
:101050001DFA05463868204200D1EAE6FFF716FA85
:10106000401B0228F6D93546284607B0F0BD7F2040
:10107000000279688143059840690002084378605E
:10108000D7E6F86803210140059B1A6A914224D1F2
:10109000702101405A6A91421FD17F21090201400B
:1010A0009A6A1202914218D11F2149040140DA6A5A
:1010B000914212D107214A0602401C461B6B9A42FC
:1010C000049D00D086E049070840616B884200D04B
:1010D00080E00025284607B0F0BD049D284607B0F3
:1010E000F0BDF8680325A843F860F8684B49014053
:1010F000F9605606FFF7CAF9044638683042E8D06E
:10110000FFF7C4F9001B0228F7D963E001218843E7
:101110003866FFF7BBF90646386E800700D48CE6C8
:10112000FFF7B4F9801B03250228F5D952E04404E7
:10113000FFF7ACF906463868204200D175E6FFF7A4
:10114000A5F9801B6428F6D944E0F86834490140C9
:101150000598026A456A836AC66A0196066B02961A
:10116000406B0A432A4319021143019A1143029A20
:1011700011430143F96038680399084338600498C3
:101180000007F9680143F960FFF780F906463868FF
:1011900020429ED1FFF77AF9801B03250228F6D959
:1011A00018E0C04600100240F96D039A9143F965BA
:1011B000F96D04229143F96500280ED0FFF766F916
:1011C0000646F86D800715D4FFF760F9801B0325EC
:1011D000A042F6D9284607B0F0BDFFF757F90646FA
:1011E000F86D800706D5FFF751F9801B0325A04253
:1011F000F6D9EFE702980028059A00D021E6F86BAF
:1012000001998843F8631CE60024F40008000020DC
:10121000040000200070004088130000FFFFFEEE75
:101220008C80C111401E010E01D00120704707497A
:10123000074A5060074803680B4003218907591883
:10124000016000209060072111607047FFFFFF00E0
:1012500010E000E020ED00E0B0B5002830D00446FA
:10126000054680356868002804D100202870204693
:1012700000F028F824206860206801680125A9434F
:101280000160204600F04CFD012817D0A06A00281C
:1012900002D0204600F044FC0920C00221684A68C0
:1012A00082434A6088682A22904388600868012245
:1012B00002430A60204600F09DFC05462846B0BD6A
:1012C0000120B0BD80B586B000681249884201D0C7
:1012D00006B080BD012041040F4A93680B43936020
:1012E00093680B40019301991168014311601168E3
:1012F000014000910590002104910390022002908A
:101300000C20019005200007009901A9FEF7D6FFE7
:1013100006B080BD0044004034100240FEE70000EB
:1013200080B50748006880694005400F03D0044835
:10133000FFF7F6F880BD0248FFF733F980BDC046DD
:101340001800002080B5806A816B002901D000223E
:101350008A6301464031C26B002A01D000239363A7
:101360004A78602A07D120224A7000220A7002635C
:10137000FFF7D4F880BD00220A700263FFF71AF964
:1013800080BD0000F0B583B04121415C28220A40B5
:10139000056806464036282A21D1A969AC69AA68A1
:1013A0000292EB68FE22240CC903C90FC768022F02
:1013B0001BD101911946029BDF0967407C07A40FEE
:1013C0001FD00B461340002232702A68B824A24373
:1013D0002A6001991A46FFF7A2F803B0F0BD002079
:1013E00030700820E86103B0F0BD002333702B6833
:1013F000B826B3432B6014402246FFF790F803B0A1
:10140000F0BD826C521C8264826C022AEBD1064CC5
:101410001A4622400023836433700823EB6101994C
:10142000FFF77DF803B0F0BDFF03000070B5044680
:101430004122865C42230020E054C84DE56260856D
:10144000656C0D436564A15C283E25464035022E3F
:101450000AD828221140282900D0F22368781040A9
:1014600028280CD0B4200BE0697821680A68FE2394
:101470009A430A606A78602A09D0202206E0042094
:10148000184321680B6883430B6032486A706063BD
:10149000A06B226B002813D0212A01D0112A0FD172
:1014A0000A68520404D5012292030B6893430B602F
:1014B000FEF7EEFE01282CD16878602816D11FE0D7
:1014C000E06B002819D0222A01D0122A15D10A680F
:1014D000120404D50122D2030B6893430B60FEF77C
:1014E000D7FE012829D16878602809D0002028700B
:1014F00020632046FFF75EF870BD6878602815D13C
:10150000202068700020287020632046FFF706F82E
:1015100070BD00202870A06B0F498163FEF77CFE30
:10152000002809D0A06B816B884770BD002028700F
:1015300020632046FFF73EF870BD00202870E06B66
:1015400005498163FEF768FE0028F5D0E06B816BEA
:10155000884770BDDD17000845130008F0B583B05B
:1015600002910446026817684120205C2021019105
:10157000D161F721014026464036FC20C543212990
:1015800004D0222909D122212B4601E0AB1C2121C4
:101590007078106818401060216300950123D9030A
:1015A00050680843506050686B4D05405560906925
:1015B00080070FD49069C007029D11D09B03780467
:1015C00014D40F421BD0106888431060E76B002FC3
:1015D00012D114E0002090629069C007029DEDD105
:1015E0009069184390619B037804EAD5106898438A
:1015F0001060A76B002F02D03868406860856807CC
:101600000ED5606A526A0270606A401C6062228D68
:101610000025002A04D0501E2085608D401E608564
:10162000608D002803D0606C0422024362640027AE
:10163000B7706763606C002831D0616C2046FFF79B
:10164000F5FE7078282849D1FA48E06227630198AE
:1016500070706763B770680712D5606A2168496A5D
:101660000170606A401C6062208D002808D0618D86
:10167000491E6185401E2085606C04210143616420
:101680007078707820680168FE229143016037709D
:101690001021C1612046FEF7F7FF03B0F0BDE06AFC
:1016A000E44A90420BD170780199717037702763CA
:1016B000222810D12046FFF721F803B0F0BD1046D4
:1016C00022681568B7701D420AD10D42009B05467D
:1016D0000CD0DA4907E02046FFF71AF803B0F0BD56
:1016E000D549009B0546106808401060707829288D
:1016F0000AD1282070702121216337707178014050
:1017000028290FD00A330EE070782A2819D1282012
:10171000707022212163377071780140282909D027
:10172000083308E0BA331068184010602046FEF70E
:10173000EFFF06E0B8331068184010602046FEF74F
:10174000DDFFE56201987070377027632046FEF771
:101750009BFF03B0F0BDC04600E800FE0000FFFFA5
:10176000B0B501680C68422200238354024640321F
:10177000650403D4240405D5B04C00E0AE4C0D68DC
:1017800025400D605478292C0CD128245470212533
:101790000563137053782340F422D243282B16D0CC
:1017A000921C15E054782A2C10D12824547022253C
:1017B0000563137053782340F422D243282B00D1C1
:1017C000B0320B6813400B60FEF798FFB0BDB23229
:1017D0000B6813400B60FEF79BFFB0BDF0B583B004
:1017E000164604464020205CE26A012802D102200D
:1017F00003B0F0BD0D46204640300127029007702F
:101800000E40B00609D52046294601943C461746AD
:10181000FFF7A4FE3A462746019CF0061AD470074B
:101820002AD430077ED4B007029E21D5608D0028CF
:1018300000D1B8E02068616A0A788262481C606260
:10184000208D401E2085608D401E608500203070F8
:1018500003B0F0BD608D00282FD020681021C16139
:10186000606C04210143616471480242029E61D0B0
:101870000020307003B0F0BD608D0028029E0CD0B7
:10188000606A2168496A0170606A401C6062208D4C
:10189000401E2085608D401E6085608D0028E7D148
:1018A00064488242E4D0206802680021B170530489
:1018B00065D4120467D5614A62E0029E70785D4982
:1018C00028283FD1780682423CD1E1620020206383
:1018D000202171706063B070690712D5616A226857
:1018E000526A0A70616A491C6162218D002908D020
:1018F000628D521E6285491E2185616C04220A4355
:1019000062647178717821680A68FE239A430A60DC
:1019100030701020C8612046FEF7B6FE00203070FF
:1019200003B0F0BD2046FFF72DFD029E0020307071
:1019300003B0F0BD616C2046FFF778FD00203070E9
:1019400003B0F0BD1546727820681023C361292AC0
:101950008ED18D428CD08169890701D500218162A9
:101960008169C90702D18169394381610268002117
:10197000B170530422D4120424D5304A1FE02E4AF9
:101980000368134003607278292A2BD128227270D1
:1019900021232363317073781340F421C943282B2A
:1019A0001ED1B23139E02248024200D060E7204621
:1019B000FFF7D6FE0020307003B0F0BD1E4A03686A
:1019C000134003607278292A0CD1282272702123D7
:1019D0002363317073781340F421C943282B1BD043
:1019E000891C1AE072782A2A00D041E728227270F6
:1019F00022232363317073781340F421C943282BC9
:101A000000D1B03102680A4002602046FEF776FE3F
:101A10000020307003B0F0BDB23102680A400260AD
:101A20002046FEF775FE0020307003B0F0BDC046C2
:101A3000FFFFFFFE0000FFFFFFBFFFFFFF7FFFFF75
:101A4000FEE77047704780B5FEF7C0FE80BD00001E
:101A500070B59CB0002514951395129511951095AD
:101A60000F9568462821FEF77AFB01267002FEF7E3
:101A700031FF70071B9070061A90700419900820AF
:101A800018901795022416941594402013901295DF
:101A9000300211900E940EA8FFF790F900280AD09A
:101AA0007D20C400194D40212846FEF7DFFC20466A
:101AB000FEF7F2FBF7E70D950C9507200A900B94C3
:101AC0000AA82146FFF728F800280AD07D20C40084
:101AD0000E4D40212846FEF7C9FC2046FEF7DCFBF0
:101AE000F7E70395202000906846FEF733FF0028B3
:101AF0000AD07D20C400054D40212846FEF7B6FCE3
:101B00002046FEF7C9FBF7E71CB070BD0008005087
:101B10000120C006014908607047C04608ED00E09A
:101B2000B0B5816ACA070CD18A0714D44A071CD4FD
:101B30000A0724D4CA062CD48A0634D44A063CD4D4
:101B40004CE00122520403685C689443C26A224359
:101B50005A608A07EAD50122120403685C6894433C
:101B6000026B22435A604A07E2D5012292040368BD
:101B70005C689443426B22435A600A07DAD501221B
:101B8000D20303685C689443826B22435A60CA069E
:101B9000D2D50122120303689C689443C26B22438E
:101BA0009A608A06CAD50122520303689C6894434E
:101BB000026C22439A604A0610D50122130502687E
:101BC00054689C43456C2C4354609D4206D10323CA
:101BD0005B0554689C43836C23435360090607D517
:101BE0000121C904026853688B43C06C18435060DC
:101BF000B0BD0000F0B585B004468C20002626500C
:101C000020468C30029027468037FEF73FFC054681
:101C10002068016809070496039727D5C1698902DE
:101C200024D4012047050190C60202E0C16939426F
:101C30001CD1FEF72BFC421B20680168374B9A42EF
:101C400049D84907F2D5C1693142EFD006620D216A
:101C5000490102688A4302608168019A9143816068
:101C60002020039A5060906002994FE00168490774
:101C700027D5C069400224D4012087050190C602FF
:101C800002E0C06938421CD1FEF700FC421B20680C
:101C90000168224B9A422CD84907F2D5C1693142DA
:101CA000EFD006620D21490102688A430260816813
:101CB000019A914381602020039A506090600299BC
:101CC00024E02020039A506090600499E166084661
:101CD000117005B0F0BD0D22520191430160816881
:101CE000019A914381602020039A50601146083187
:101CF0000CE00D225201914301608168019A9143E9
:101D000081602020039A506011460831202008602D
:101D100003200499117005B0F0BDC046FFFFFF011C
:101D2000F0B581B00446026811686F480840A168A8
:101D300023690B4361691943E3691943656E0D43D8
:101D4000054315600327380351688143E068084361
:101D50005060A169654DAA4202D0206A084300E0A4
:101D600008469168624E0E4006439660D06A0F2185
:101D70008843616A0843D062DD4882420BD0AA42A0
:101D80000BD05C48824210D15B4800688007000F8E
:101D90005A4E36580AE0002608E057480068000A04
:101DA0000C2606405548865900E01026204668302B
:101DB00000905348AA4216D00125EA03934226D147
:101DC000082E00D987E0C0467E4436797600B744B5
:101DD00004825982528282825800FEF799FF0028BD
:101DE0004DD0616A4EE00125082E00D973E0C0464F
:101DF0007E4436797600B744046E246E1C6E6E6E97
:101E00002200FEF785FF002817D0616A19E0082E2E
:101E100061D8C0467E4436797600B744045C4C5C99
:101E2000455C5C5C4B00FEF773FF002840D0616AA4
:101E300041E0FEF77FFF0028E7D100254BE00120BD
:101E4000C00349002F4A515AFEF794F9626857437C
:101E5000B84240D3110388423DD8010E5608000213
:101E6000002380195941FEF743F928494118284AAF
:101E7000914230D22CE0FEF75DFF0028B1D1002561
:101E800029E0104649001F4A515AFEF773F94000F5
:101E900061684A081018FEF76DF91B4901401AD015
:101EA0000007400F084313E0FEF744FF0028BED1AF
:101EB000002510E010464900124A515AFEF75AF91F
:101EC00061684A081018FEF755F980B2102802D34D
:101ED0002168C86000250F4800990860002020672D
:101EE0006067284601B0F0BDF369FFCF0080004075
:101EF000FFF4FF1100380140541002409021000807
:101F00000024F40078210008F0FF000000FDFFFF2E
:101F100000FD0F000100010088B0FEF761FCFFF733
:101F200097FD6B480025058007950695694801686F
:101F30000426314301600168314002910299016831
:101F40002022114301600168114002910299016849
:101F500001273943016000683840029002985E4CC6
:101F60004021019120462A46FEF788FA05955B48F4
:101F7000049003965A4803AE3146FEF79FF9069542
:101F8000059504970198039020463146FEF796F98F
:101F9000544855494E4A9160D0600198106157618C
:101FA0009561D561156255629562154608352846DA
:101FB000FEF716FB002809D07D20C50040212046F1
:101FC000FEF754FA2846FEF767F9F7E7002128469E
:101FD000FEF760FA002809D07D20C5004021204688
:101FE000FEF744FA2846FEF757F9F7E70026284699
:101FF0003146FEF771FA002809D07D20C500402146
:102000002046FEF733FA2846FEF746F9F7E7374849
:102010000C21374A0662466286623B07E1277F024F
:1020200084C0036046608660C1600661466108380E
:10203000FFF712F9002809D07D20C5004021204675
:10204000FEF714FA2846FEF727F9F7E72048811C27
:1020500003222846FEF76AFB002809D07D20C50030
:1020600040212046FEF702FA2846FEF715F9F7E769
:102070002846FEF7B1FA2028FAD11E4E0322284640
:102080003146FEF779FB002809D07D20C5004021AC
:102090002046FEF7EBF92846FEF7FEF8F7E728465C
:1020A000FEF79AFA2028FAD1094A907831788142CD
:1020B00004D1D0787178814200D1FEE77D20C5003F
:1020C00040212046FEF7D2F92846FEF7E5F8F7E76B
:1020D00010000020341002400008005000001110D1
:1020E00000140050BC7D70100054004064000020BB
:1020F000004400400C00002002E008C8121F08C184
:10210000002AFAD170477047002001E001C1121F78
:10211000002AFBD170470000000000000000000012
:1021200000000000000000000000000000000000AF
:10213000000000000000000001000000020000009C
:10214000030000000400000006000000070000007B
:10215000080000000900000000000000000000006E
:10216000000000000000000001000000020000006C
:10217000030000000400000001000200040006004B
:1021800008000A000C001000200040008000000140
:102190000000000004000000020000000800000031
:1021A000C02100080000002010000000F8200008F6
:1021B000D021000810000020E804000008210008D9
:1021C00001000000040000000024F40068696900B8
:04000005080000C12E
:00000001FF
