:020000040800F2
:10000000C0040020CD0000080F1100080D110008E9
:1000100000000000000000000000000000000000E0
:1000200000000000000000000000000013110008A4
:100030000000000000000000111100081511000868
:10004000DF00000800000000DF000008DF000008FB
:10005000DF0000084D010008DF000008DF00000895
:1000600000000000DF000008DF000008DF000008DB
:10007000DF000008DF000008DF00000800000000CB
:10008000DF000008DF000008DF000008DF000008D4
:10009000DF000008DF000008DF000008DF000008C4
:1000A000DF000008DF000008DF000008DF000008B4
:1000B000DF000008DF0000080348854600F034F840
:1000C0000048004739130008C00400200448804756
:1000D00004480047FEE7FEE7FEE7FEE7FEE7FEE72F
:1000E0001D110008B900000870B50446002903D0AE
:1000F00000202022012310E0002801D00020C0436E
:10010000C046C0460DE02546D5408D4205D30D467C
:100110009540641B1D46954040191546521E002D02
:10012000F1DC214670BD0000064C0125064E05E0BD
:10013000E36807CC2B430C3C98471034B442F7D308
:10014000FFF7BEFF041900082419000880B502203B
:1001500000F048F980BD000070B502285AD105248E
:100160002007202100F02EFA83480068416A834A64
:10017000914206D3834900228A60824900220A7193
:1001800046E0416A7E4A914207D37E4A11790123B3
:10019000DB07CB4092681A430AE07A4A1179436A36
:1001A000794DAB4208D30123DB07CB4092689A43D9
:1001B000744B9A60491C1971C9B2202928D1714920
:1001C0008A68130A8B71D5434D71FF259543DBB2C5
:1001D0009D42D2D1CA606D4B9A421CDD6C4B9A4253
:1001E0002CDC714B9A4247DC724B9A4200D1AEE054
:1001F000714B9A42C1D18A78002ABED10A78002A6E
:1002000000D1B6E0CB78002BB7D0521E0A70B4E70D
:100210000021416270BD694B9A421FDD684B9A42D2
:1002200037DC6A4B9A424ED0694B9A42A5D18A7804
:10023000002A00D195E000228A709EE7554B9A4231
:1002400034DC574B9A4244D0564B9A4295D1644A7B
:100250001378882B79D87723DB4377E05D4B9A427C
:100260004AD05D4B9A4252D05C4B9A4285D18A78F3
:10027000002A82D01E2262E04C4B9A424DD04C4B59
:100280009A4200D079E78A78002A00D175E71422D3
:1002900055E04C4B9A4246D04B4B9A4200D06CE70B
:1002A0008A78002A00D168E75A2248E03A4B9A42FD
:1002B00040D03A4B9A4200D05FE7CA78002A55D026
:1002C0000022CA7059E78A78002A00D155E70A222D
:1002D00035E08A78544254414B785D1E1E46AE414B
:1002E00026433BD054425441002B00D10124002C22
:1002F00000D042E7002232E0CA78534253418A7864
:10030000541EA2411A4300D037E70A781AE08A78CF
:10031000002A00D131E7C82211E08A78002A00D1F2
:100320002BE732220BE02E490A788F2A0AD38F223C
:100330000A7022E78A78002A00D11EE764220A7038
:10034000CA711AE7521C0A7017E75B1E13708A788D
:10035000002A00D111E70C70CC710EE701224A701F
:100360000BE700220A7001228A7006E70122CA7098
:1003700003E700220A7000E770000020411F000020
:10038000A506000010000020E90300007E807689A9
:1003900036C876891EE076891FE0768917E8768967
:1003A00037C8768927D876895EA076895FA0768956
:1003B0003FC076897F807689758A7689BE40768946
:1003C000A6587689A75876899F607689BF40768936
:1003D000AF507689F50A7689EF107689DF20768925
:1003E0000C000020B0B50446074D2868204203D019
:1003F0002C60204600F00AF86868204203D06C6048
:100400002046FFF7A9FEB0BD0C180240704700005F
:10041000F0B58BB007466548874205D005200090AF
:100420000D68002D06D1BEE0032000900D68002D60
:1004300000D1B8E00123002006460193044608904D
:10044000099006910A9712E03243059E584842608F
:100450000D682846D840089A121D089208365B1C81
:10046000A41C099A521C0992002800D19BE05A1E34
:1004700001980792904005400495E9D005964E6892
:10048000122E029461D80125B5404B4A15425CD02A
:100490000325A540BA68AA430699CF68A740174329
:1004A0000A998F60320907998A400A994F688743F1
:1004B00017430A9847600A9F0699E843099A54002F
:1004C000FA6802408D680394A5401543FD60102230
:1004D0003243122A12D11C21089A11400F228A405D
:1004E000079DED08AD007D192F6A9743069A1269A2
:1004F0008A403A430A9F06992A624E683A68024047
:10050000032530462840039CA04010433860F0008B
:10051000059E029C9CD5182030400F2282403E460A
:10052000079FAF433546224EF7193E6E964360371C
:100530000522120795420ED0204A954209D0204A42
:100540009542009D08D1022506E00320A040C0434B
:10055000B6E7012500E00025854035433D6015489C
:1005600005684868C20302D5049E354301E0049E35
:10057000B5430A9F0F4A15605568820301D535437C
:1005800000E0B5430B4A5560094A1568C20201D51F
:10059000354300E0B543064A15605268800200D535
:1005A00052E7B24351E70BB0F0BDC046000C00501B
:1005B00000180240801802400600060000040050A7
:1005C0000008005042690B4693430A401104C918C1
:1005D00081617047002A02D018228150704728227A
:1005E00081507047054800687047C0461E48007833
:1005F00002490A68101808607047C046BC00002015
:10060000B0B501242002D6490A6802430A600025D9
:10061000284600F009F8002801D02046B0BD00F0BF
:1006200025F82C462046B0BD70B50F4E3178012418
:10063000002916D005467D20C000FFF755FD014674
:10064000CD480068FFF750FD00F0B8FB032D08D837
:10065000002806D10024E0432946224600F02EF867
:100660007560204670BDC0460000002080B582B095
:100670000B484168012211434160416811400191DA
:100680000199110702680A4302600068084000905F
:1006900000980320400200F087FB02B080BDC046F6
:1006A0003C100240002805D41F2108400121814050
:1006B000014801607047C04600E100E0002805D411
:1006C0000322034693430C4A9A1806E00F22024085
:1006D000083A03239A43074BD2188007C00E8901BA
:1006E000C9B28140FF2383401068984308431060DB
:1006F0007047C0461CED00E000E400E0F0B581B0BA
:10070000032569021A4E3246143A13688B43034399
:100710001360012461020022884226D196480168B4
:100720003068400521D50092A702062048431149B0
:10073000FFF7DAFC201A022816D0316839420FD0B0
:10074000012811D0316839420AD000280CD0316814
:10075000394205D0001D032806D031683942EAD15C
:10076000009A104601B0F0BD2A46104601B0F0BD17
:100770001470004040420F00F0B583B00D460121D7
:1007800000281BD001910290754800680724204082
:10079000A84216D272490868A04328430860714EE7
:1007A000FFF720FF07466E4800682040A84208D0A7
:1007B000FFF718FFC01BB042F5D90321084603B06C
:1007C000F0BD029E30688107674B0CD5410703D509
:1007D00021031A680A431A600F2109021A688A4322
:1007E000B16811431960C0071BD15D480068204003
:1007F000A8422CD95A490868A04328430860594F99
:10080000FFF7F0FE0646564800682040A8421ED07A
:10081000FFF7E8FE801BB842F5D90321084603B074
:10082000F0BD0298406803285DD8810001A25158AC
:100830008F46C04645080008EB080008F508000888
:10084000FF080008194608390968490559E0029A65
:1008500010784007444B05D5200319688143D068C0
:100860000843186018688006400F22D01A683821A3
:100870000A403E48082A23D01A680A40102A5ED14E
:10088000596803220A40032A00D0394859684906AA
:10089000490F491CFFF728FC334949684904490EB0
:1008A000484331494968490F491CFFF71DFC2E4B4D
:1008B00006E01846083800688004410F2C48C840FC
:1008C000196889093C220A402A4989581F220A408E
:1008D000D0402949086029480068FFF7A5FE014675
:1008E000084603B0F0BD596D0AE019460839096899
:1008F000890306E0194608390968890101E0996D04
:100900008907019900D459E71968A1430143196087
:10091000144FFFF767FE0646134800683821014070
:1009200002984068C000814200D15EE7FFF75AFE9E
:10093000801BB842F0D90321084603B0F0BD186807
:100940000840202802D10120C003B9E718680840F8
:10095000182801D00020B3E77D200002B0E7C04690
:1009600000200240881300000810024000127A00A4
:100970000024F400B418000808000020040000203F
:10098000F0B587B00125002800D1F9E10495059064
:100990000078C007FC4F2AD0B868F96803252A46BA
:1009A0008A4338210140102048408218504250416B
:1009B000082914D0002812D10598426801200104AA
:1009C0008A4208D005231B049A4200D0DAE0820450
:1009D0003B6813433B603A680A433A60DBE038689F
:1009E000800304D505984068002800D176E1059879
:1009F0000078800723D40598007800070CD5B868E4
:100A000038210140182971D1386E800704D5059826
:100A10008069002800D161E1059A1078400700D470
:100A20002EE1B86838210140202974D1F86D800783
:100A300000D425E19068002800D021E14EE1B9689A
:100A40003820084010214140FA6803252A4002233B
:100A50005340CA1851425141002820D000291ED1CC
:100A60003868059AD168002900D1A2E00721C9029F
:100A70008843116901433960012001023A680A4341
:100A80003A608402FFF7AEFD06463868204200D087
:100A9000A1E0FFF7A7FD801B0228F6D970E13968B5
:100AA0004905059B03D5D968002900D116E17F21AE
:100AB00009027A688A43596909021143796000285A
:100AC0000DD10720C0023968814318690843386096
:100AD00038688004400FAD49C140AD480160AD4861
:100AE0000068FFF7A1FD002885D0F7E0386E059972
:100AF0008969002979D0012108433866FFF772FD22
:100B00000646386E800787D4FFF76CFD801B0325EF
:100B10000228F6D934E1012003900107F86B084060
:100B2000029006D1F86B0843F863F86B0840069012
:100B30000698019198480068C00513D403980402F0
:100B40009549086820430860FFF74CFD0646924827
:100B50000068204206D1FFF745FD801B03250228CF
:100B6000F5D90DE1059880688C4C012805D0052841
:100B70005AD1F86D04210143F965F86D03990843D2
:100B8000F8655BE03B688B433B6081043B688B43CB
:100B90003B60002A3AD04404FFF724FD064638683B
:100BA000204200D023E7FFF71DFD801B6428F6D903
:100BB000E6E001210A02904338608C02FFF712FD43
:100BC00006463868204200D115E7FFF70BFD801B71
:100BD0000228F6D9D4E07F20000279688143059885
:100BE000406900020843786005E7012188433866C0
:100BF000FFF7F8FC0646386E800700D40CE7FFF7D5
:100C0000F1FC801B03250228F5D9B9E04404FFF765
:100C1000E9FC06463868204200D1E8E6FFF7E2FC2E
:100C2000801B6428F6D9ABE0F96D039A9143F9650E
:100C3000F96D04229143F96500280CD0FFF7D2FC2E
:100C40000646F86D800713D4FFF7CCFC801B032504
:100C5000A042F6D994E0FFF7C5FC0646F86D800780
:100C600006D5FFF7BFFC801B0325A042F6D987E01D
:100C700002980028059A03D1F86B01998843F8631C
:100C8000D069002826D0B96838220A40102A29D114
:100C9000012823D0F86803210140059B1A6A91427C
:100CA0001CD1702101405A6A914217D17F2109025B
:100CB00001409A6A1202914210D11F214904014059
:100CC000DA6A9142049D5BD1072149070840196BFC
:100CD000884255D10025284607B0F0BD049D28461E
:100CE00007B0F0BD01221306396899433960022824
:100CF0000FD1039304925406FFF774FC064638683C
:100D000020421BD0FFF76EFC801B03250228F6D97A
:100D100036E0F8680325A843F860F86820490140E8
:100D2000F9605606FFF75EFC044638683042D1D0C1
:100D3000FFF758FC001B0228F7D921E0F868194991
:100D40000140059E20366DCE084310431902014331
:100D500029433143F960386803990843386004989F
:100D60000007F9680143F960FFF73CFC0646386864
:100D70002042AFD1FFF736FC801B03250228F6D9AD
:100D8000284607B0F0BDC046001002400024F40021
:100D900008000020040000200070004088130000BC
:100DA000FFFFFEEF8C80C11F03214902024A136836
:100DB0008B4303431360704700000140401E010E47
:100DC00001D0012070470749074A5060074803686F
:100DD0000B4003218907591801600020906007210A
:100DE00011607047FFFFFF0010E000E020ED00E021
:100DF00070B53C22825C012A01D1022070BD0246FE
:100E00003C32022353700068456883686D4CA042F1
:100E100001D02E4604E00F263605B5434E682E431A
:100E20007025AE430D6835434560644DA84204D03B
:100E3000634DA84201D0A04204D18024A343896815
:100E400019438160002010700121517070BDC046AF
:100E5000B0B5002824D0044605463C356878002803
:100E600004D100202870204600F060F8022068704D
:100E700020680368534A904202D05049884211D1F9
:100E800070218B43A1681943234B98420EDC4B4BD6
:100E9000984214D0234B984211D090420FD039E0A1
:100EA0000120B0BD19461C4B9842F0DD444A9042E7
:100EB00005D01A4A904202D0194A90422AD1032200
:100EC0001202914322690A4380218A43A169114396
:100ED0000160E168C16261688162134941180A22B8
:100EE000D141072906D801228A40E1210A4201D0D6
:100EF00061690163012141612973A970E970297158
:100F00006971A971E97129726972A972E9726970CE
:100F10000020B0BD0A46D7E7FF3F0140004801402E
:100F2000004401400020004000D4FEBF82B00068B1
:100F3000224988420ED02349884214D10120C002A0
:100F40000A494A6802434A60496801400191019890
:100F500002B0704705480168022211430160006831
:100F600010400090009802B07047C0463C1002400C
:100F70003D21415C012918D101463D3102220A7010
:100F800001680E48814205D00D48814202D00D48CB
:100F900081420CD188680C4A02400020062A03D006
:100FA00001231B049A4202D1704701207047086850
:100FB000012202430A6000207047C046000400403E
:100FC00000400140002C01400700010070B53C22A8
:100FD000825C012A01D1022070BD02463C3202230C
:100FE000537000688368474C1C4084600B683F2B3B
:100FF00019DD5F2B1EDD602B41D001246503AB4260
:1010000055D0702B79D1FF231B0284689C434B6819
:101010008D68C9681D4309022943214381608368A3
:101020007721194368E01F2B1EDC002B20D0102BEA
:101030001ED062E0402B4AD0502B5ED1036A046A76
:101040000125AC4304628469F025AC43CD682D01D1
:10105000254385610A24A3434968194301628368D3
:1010600029491940573147E0202B01D0302B44D17A
:101070008168254C0C402343072119433CE0036A57
:101080001024A34303620F231B0384699C43CB6892
:101090001B032343046A8361A0239C43496809011D
:1010A00021430162836818491940673124E0FF2316
:1010B0001B0285689D434B688E68C9681E43090200
:1010C000314329438160A3038168194314E0036A13
:1010D000046A0125AC4304628469F025AC43CD6801
:1010E0002D01254385610A24A34349681943016200
:1010F0008368054919404731816000201070012143
:10110000517070BD8800CEFF88FFCFFFFEE7FEE77D
:101110007047704780B5FFF769FA80BD0120C006AF
:10112000014908607047C04608ED00E0F0B583B0A3
:1011300000AC0EC4074605200507012600242846FA
:1011400031462246FFF746FA402000F0FBFA2846D7
:1011500031463246FFF73EFA284631463246FFF71F
:1011600039FA284631462246FFF734FA304600F075
:10117000E9FA6E4E70694462416A092908D8416AE9
:10118000092905D8416A092902D8416A0A29F3D3F5
:10119000012128462246FFF71DFA384600F0D2FA10
:1011A00070694462416A092908D8416A092905D849
:1011B000416A092902D8416A0A29F3D30121284644
:1011C0002246FFF707FA032000F0BCFA7069446278
:1011D000416A092908D8416A092905D8416A0929BB
:1011E00002D8416A0A29F3D3012128462246FFF793
:1011F000F1F9009800F0A6FA70694462416A092981
:1012000008D8416A092905D8416A092902D8416AE2
:101210000A29F3D3012128462246FFF7DBF90520EE
:1012200000F090FA70694462416A092908D8416A5D
:10123000092905D8416A092902D8416A0A29F3D344
:10124000012128462246FFF7C5F9019800F07AFAF5
:1012500070694462416A092908D8416A092905D898
:10126000416A092902D8416A0A29F3D30121284693
:101270002246FFF7AFF9072000F064FA7069446274
:10128000416A092908D8416A092905D8416A09290A
:1012900002D8416A0A29F3D3012128462246FFF7E2
:1012A00099F9029800F04EFA70694462416A09297E
:1012B00008D8416A092905D8416A092902D8416A32
:1012C0000A29F3D30126284631463246FFF782F930
:1012D000284631462246FFF77DF9204600F032FAD3
:1012E000284631463246FFF775F9114807782846F7
:1012F00031462246FFF76EF9384600F023FA2846B9
:1013000031463246FFF766F90848406944620949A8
:10131000426A8A4208D2426A8A4205D2426A8A42B4
:1013200002D2426A8A42F3D303B0F0BD100000201B
:101330000C000020409C000096B0FFF761F90026E9
:101340000F960E960D960C960B960A960124600247
:10135000FFF7D4F9600715906004149008271397DD
:10136000129602251195109540200E900D962002A0
:101370000C90099509A8FFF703FB002803D0EFF3B1
:10138000108072B6FEE7089607960720059006952E
:1013900005A82946FFF7F0F9002803D0EFF31080E5
:1013A00072B6FEE703970D96DC48016804221143EC
:1013B00001600168114005910599016820221143DF
:1013C00001600168114005910599016821430160A0
:1013D0000168214005910599016829430160006871
:1013E00028400590059805200290070733213846CC
:1013F0003246FFF7EFF80C960B960A9423200990DB
:1014000009A901913846FFF703F80C960B940A944A
:101410001020099004973846019F3946FEF7F8FFDF
:101420000B96BF480A900995BE483946FEF7F0FF73
:10143000029D284631463246FFF740F92846FFF71D
:1014400031F9B9488025B94A3F27B94982C00660B9
:1014500042608660C66005610C960B960A96083855
:10146000FFF7F6FC002803D0EFF3108072B6FEE71A
:10147000029727030997AC4809A9FFF7A7FD0028A1
:1014800003D0EFF3108072B6FEE707960696059636
:10149000A54C05A92046FFF7ABFC002803D0EFF3CD
:1014A000108072B6FEE70197F94FFD62A14878619E
:1014B0000298B861FE619D4838627E620C960B9678
:1014C0000A96069614373846FFF7C2FC002803D068
:1014D000EFF3108072B6FEE70198099009A938462B
:1014E000FFF774FD002803D0EFF3108072B6FEE71B
:1014F0000796059605A93846FFF77AFC002803D021
:10150000EFF3108072B6FEE72046FFF731FD20684A
:1015100046623846FFF72CFDFFF764F8DC490861A6
:10152000049C08E0802000F00DF9012120460A46C5
:10153000FFF750F8D649CF780125002620462946E6
:101540003246FFF747F8402000F0FCF820462946D5
:101550002A46FFF73FF8204629463246FFF73AF879
:10156000C02000F0EFF8204629462A46FFF732F85F
:10157000204629463246FFF72DF8304600F0E2F8C3
:10158000204629462A46FFF725F8204629463246B6
:10159000FFF720F8802000F0D5F8204629462A469B
:1015A000FFF718F8204629463246FFF713F8304671
:1015B00000F0C8F8204629462A46FFF70BF82046D7
:1015C00029463246FFF706F8002FABD0882000F0FE
:1015D000B9F80127204639463A46FEF7FBFF564840
:1015E00005780026204639463246FEF7F3FF4020B4
:1015F00000F0A8F8204639463A46FEF7EBFF2046B1
:1016000039463246FEF7E6FFC02000F09BF8204640
:1016100039463A46FEF7DEFF204639463246FEF7A7
:10162000D9FF304600F08EF8204639463A46FEF79C
:10163000D1FF204639463246FEF7CCFF802000F02D
:1016400081F8204639463A46FEF7C4FF204639461F
:101650003246FEF7BFFF304600F074F820463946A8
:101660003A46FEF7B7FF204639463246FEF7B2FF4C
:10167000284600F067F8204639463A46FEF7AAFFAA
:10168000834948780028039F029C084602D0C57908
:10169000002D0ED1007801466439C9B264291FD3E8
:1016A0002146C2B2D308182B1FD81FE06D1E290691
:1016B000F1D0FEF797FF764A1169401A1F49884218
:1016C00009D3FEF78FFF724A10611078401E107028
:1016D0000106EBD102E010780106E7D15670E5E78C
:1016E0000621C2B2D308182B00D95B21CD235A435F
:1016F000D50A6B43DA0A0A235A43AA1AD2B27A40AD
:101700000F4EB25C6B43C01AC0B27840335C2046C7
:10171000FFF70CFD049C5E490DE7C0463410024003
:10172000000021100004005070000020FFFF0000A6
:10173000002C0140000400400C000020E9030000E0
:10174000F4180008F0B585B007460190052005079C
:1017500002260022284631461446FEF73BFF0120B0
:101760003A46024007460390102102912846FEF7B0
:1017700031FF284631463A46FEF72CFF28463146CF
:1017800022460494FEF726FF019CA007C20F2846BC
:10179000029F3946FEF71EFF28463146039AFEF7A0
:1017A00019FF28463146049AFEF714FF6007C20F5E
:1017B00028463946FEF70EFF28463146039F3A4633
:1017C000FEF708FF28463146049AFEF703FF20077C
:1017D000C20F28460299FEF7FDFE284631463A46DA
:1017E000FEF7F8FE28463146049AFEF7F3FEE006BF
:1017F000C20F2846029F3946FEF7ECFE28463146C6
:10180000039AFEF7E7FE28463146049AFEF7E2FE09
:10181000A006C20F28463946FEF7DCFE28463146B0
:10182000039F3A46FEF7D6FE28463146049AFEF755
:10183000D1FE6006C20F2846029C2146FEF7CAFE72
:10184000284631463A46FEF7C5FE28463146049FF3
:101850003A46FEF7BFFE0198C20928462146FEF728
:10186000B9FE28463146039AFEF7B4FE084840699F
:101870004762416A092908D8416A092905D8416A9D
:10188000092902D8416A0A29F3D305B0F0BDC04640
:101890001000002002E008C8121F08C1002AFAD177
:1018A00070477047002001E001C1121F002AFBD1E0
:1018B0007047000000000000000000000000000071
:1018C0000000000000000000000000000000000018
:1018D0000000000001000000020000000300000002
:1018E00004000000060000000700000008000000DF
:1018F000090000007F6F3F3F3F3F3F3F3F065B4F88
:10190000666D7D0728190008000000201000000007
:10191000941800083819000810000020B0040000D6
:10192000A4180008000000000100000004000000EE
:081930000024F400880000000F
:04000005080000B936
:00000001FF
