:020000040800F2
:10000000A8050020D5000008C31E0008C11E000876
:1000100000000000000000000000000000000000E0
:10002000000000000000000000000000C71E0008E3
:100030000000000000000000C51E0008C91E0008E6
:10004000E7000008E7000008E7000008E7000008F4
:10005000E7000008E7000008DD020008E7000008EC
:1000600000000000E7000008E7000008E7000008C3
:10007000E7000008E7000008E7000008E7000008C4
:10008000E7000008E7000008E7000008E7000008B4
:1000900000000000E7000008E7000008E700000893
:1000A000E7000008E7000008E7000008E700000894
:1000B000E7000008E7000008000000000000000062
:1000C0000348854600F096F8004800477123000871
:1000D000A80500200448804704480047FEE7FEE7E3
:1000E000FEE7FEE7FEE7FEE7691F0008C100000823
:1000F000F0B51FB40646002082B0054640240191A9
:1001000000901BE0019922460F46304600F061F84E
:10011000049A059B801A994110D31046194622462D
:1001200000F047F8361A8F4101972246012000213E
:10013000009F00F03EF838184D4100902046641EA4
:100140000028DFDC019B00982946324607B0F0BD4D
:10015000D2B201E00270401C491EFBD2704700225F
:10016000F6E710B513460A4604461946FFF7F0FFB6
:10017000204610BD70B50446002903D0002020227F
:10018000012310E0002801D00020C043C046C04633
:100190000DE02546D5408D4205D30D469540641BA4
:1001A0001D46954040191546521E002DF1DC214692
:1001B00070BD10B5202A04DB0146203A9140002092
:1001C00010BD914020239C1A0346E3401943904000
:1001D00010BD10B5202A04DB0846203AD04000218B
:1001E00010BD0B46D340D0402024A21A91400843B2
:1001F000194610BD064C0125064E05E0E36807CC04
:100200002B430C3C98471034B442F7D3FFF75CFF04
:100210005826000878260008F0B581B0054600246D
:10022000009400688168C9071AD181682A4A2F3270
:10023000114208D0A86D10210143A965E86D012481
:100240002043E8650CE08168234A114001273943C7
:100250008160CF480068000205D4687E012825D15E
:10026000204601B0F0BDCE480068CE49FFF782FFBE
:10027000401C009000980028EFD00098401E00908D
:1002800000980028E9D00098401E009000980028AF
:10029000E3D00098401E009000980028DDD0009820
:1002A000401E009000980028E7D1D6E700F08EFCB1
:1002B000064604E000F08AFC801B0328BAD22868B6
:1002C0000168C907CCD18168C907F3D18168024AA6
:1002D000114039438160EDE7E8FFFF7F80B50420DE
:1002E00000F07CFB80BD0000F0B589B000250895CA
:1002F0005422825C012A03D10224204609B0F0BDB9
:100300000646543601243470026893685B0714D49F
:1003100004694B68022B18D1042004439A48844294
:100320006FD19848C0430B68D9430143906A084095
:1003300090620024002B75D567E0816D20220A436E
:1003400082653570204609B0F0BD079606930426F5
:1003500034438C4B8C4FBC4268D10F683B40906A51
:100360001843906238025369834389680140874883
:100370000840184350610024002F04D4079E3570B4
:10038000204609B0F0BD012681483B46076807209A
:100390008205394611407F480293834200D08CE0A9
:1003A000F0053B46034000D087E0794F3B6893431C
:1003B0001943014339607A4800687A49FFF7DAFE49
:1003C0000C214143481C089008980028D6D0079E6D
:1003D0000898401E08900898002823D00898401ECE
:1003E0000890089800281DD00898401E089008988A
:1003F000002817D00898401E089008980028E7D1D8
:1004000010E00B680024002B0CD561480168624A9B
:1004100093426ED0614A93426ED05E4A934201D1BC
:10042000052267E03570204609B0F0BD02960595BB
:100430001F27069C27400F2500950397BD40046E9B
:100440000195AC4304940F681F424ED0FB07059DF5
:100450002C4663D1BB075CD47B075CD43B075CD4E0
:10046000FB06029C5AD4BB066BD47B066BD43B06BE
:100470006BD4FB056BD40297BB056AD4029B5B056A
:100480006AD4029B1B056AD4029BDB046AD4029BDC
:100490009B046AD4029B5B046AD4029F3B04009CC9
:1004A000059D3BD4FB0366D4029B9B0366D4029F4D
:1004B0007B03DB1712241C4019E03748029B834260
:1004C00003D130063B46034008D03448029B8342A8
:1004D00000D053E7B005074000D04FE7D34F3B684B
:1004E000934319430143396048E77B00DC0E059DC7
:1004F00014E00322920501E00322D20511400722F5
:10050000920503689343591801603570204609B07D
:10051000F0BD012402E0022400E00324039EB44065
:10052000049B1C430466069B9B08C069984200D844
:1005300018E70198C043936A0340B800000FB04029
:100540000EE70524EAE70624E8E70724E6E708249F
:10055000E4E70924029FCAE70A24029FC7E70B24A5
:10056000029FC4E70C24029FC1E70D24029FBEE74F
:100570000E24029FBBE71024029FB8E71124029FBC
:10058000B5E7C046FFFF07000400008000FFFF073B
:1005900008270140001000B0004000B8002000B45F
:1005A00008000020400D03000068006C7047000048
:1005B000F0B58BB0044600200A90002C00D193E0E7
:1005C0000990A06D002807D125465435204600F03B
:1005D00035F900202870E06501273D072668B068DE
:1005E000C00026D4B0688D4901402943B1608C48D1
:1005F00000688C49FFF7BEFD40000A900A98002869
:1006000017D00A98401E0A900A98002811D00A981C
:10061000401E0A900A9800280BD00A98401E0A90A3
:100620000A98002805D00A98401E0A900A980028C7
:10063000E7D1B068284208D1A06D10210143A1651F
:10064000E06D012109910843E065B0680421014093
:10065000A06D102210404018A06D48D1049222468F
:1006600020320F210391C9430591F3390840801CC2
:10067000A065B068C00706923ED1F0681821884393
:10068000A1680143F160107F401E434243410320B3
:1006900081076068054601910D40276C616C0291ED
:1006A000A16C0791E16C08912F4302990F430799C0
:1006B0000F4308990F431F4331695B4B0B403B438A
:1006C00033610123D907884217D00199884214D099
:1006D0009907884211D0039989040840534B1D683B
:1006E0008D432818186008E001200BB0F0BD1043BE
:1006F000A06538460BB0F0BD0027206B411E884135
:100700000203207E8003637EDB030343A57E680330
:100710001843E3682169034313430120002908902B
:10072000079102DAC007814300E04105069A0B43B6
:10073000107B410019431078012809D1002D3FD0CA
:10074000A06D20220243A265E06D01220243E26512
:10075000626A002A05D00720800102400A43A16A8C
:100760001143F068324A02400A43F2603069314A6C
:1007700002403A433261706907229043626B024340
:100780007261706970229043A26B12010243726120
:10079000079A002A0FD008984005824220D1206E87
:1007A000039B0340B26A0F2B11D0F0230340F02BC0
:1007B0000DD1059812E0B06A059A1043B0620FE0BF
:1007C000012000040143626A002AC4D1C9E7E2693A
:1007D00092001C321C231340059A9A400243B262D5
:1007E000F068154A02408A420AD10020E065A06DF7
:1007F0000121014302208143A16509980BB0F0BD9E
:10080000A06D0499084302218843A065E06D089912
:100810000843E06508460BB0F0BDC046E8FFFF6F37
:1008200008000020400D030002FCFF1F08270140C4
:100830001902FEFF02FCFFDFE7FF3F8310B586B021
:100840000021059104910068104A904201D006B041
:1008500010BD012002050E4BDC681443DC60DC682F
:1008600014400094009A1A6802431A601A68024001
:100870000092039103200290A02001900520000720
:10088000009901A900F0C0F806B010BD0024014095
:1008900034100240F0B581B00D4604464069082886
:1008A00001D1082704E02068C068C0073FD10427B1
:1008B00000F08CF906462168086838421CD00120F7
:1008C0004202A36D1343A365CA681205920F4AD171
:1008D000A27E002A47D10A68120744D58A685207C7
:1008E00038D4224658324B680C25AB434B60FF2569
:1008F00002351368AB4334E0002D1FD0681C0CD1C7
:1009000008683842DBD108683842D8D108683842D4
:10091000D5D108683842F3D0D1E700F057F9801BF1
:10092000A8420DD8216808683842F6D0C7E7A06D04
:1009300020210143A165012001B0F0BD00F046F97E
:10094000542000212154A06D04210143A1650320FE
:1009500001B0F0BDA26D20231343A36522465C3293
:10096000E36D03431360227E0020002A01D001B012
:10097000F0BD0C220A6001B0F0BD000070B5044665
:1009800000688168022049070ED45421615C012966
:100990000AD02546543501262E702046FFF73CFC30
:1009A000002802D00021297070BDA06D08490140C7
:1009B00030020818A0650020E06521681C220A604A
:1009C00028708A68034B13401A1D8A6070BDC046A8
:1009D000FEF0FFFFE8FFFF7F70470000B0B5044660
:1009E000074D2868204203D02C60204600F00AF80A
:1009F0006868204203D06C602046FFF7EDFFB0BD71
:100A00000C18024070470000F0B58BB007466548EF
:100A1000874205D0052000900D68002D06D1BEE06C
:100A2000032000900D68002D00D1B8E001230020C4
:100A30000646019304460890099006910A9712E031
:100A40003243059E584842600D682846D840089AAF
:100A5000121D089208365B1CA41C099A521C0992AC
:100A6000002800D19BE05A1E019807929040054053
:100A70000495E9D005964E68122E029461D801259E
:100A8000B5404B4A15425CD00325A540BA68AA433D
:100A90000699CF68A74017430A998F6032090799D2
:100AA0008A400A994F68874317430A9847600A9F0C
:100AB0000699E843099A5400FA6802408D68039445
:100AC000A5401543FD6010223243122A12D11C2189
:100AD000089A11400F228A40079DED08AD007D194C
:100AE0002F6A9743069A12698A403A430A9F0699E9
:100AF0002A624E683A680240032530462840039C2B
:100B0000A04010433860F000059E029C9CD5182040
:100B100030400F2282403E46079FAF433546224E6B
:100B2000F7193E6E964360370522120795420ED0A4
:100B3000204A954209D0204A9542009D08D10225BD
:100B400006E00320A040C043B6E7012500E00025F1
:100B5000854035433D60154805684868C20302D5A5
:100B6000049E354301E0049EB5430A9F0F4A156079
:100B70005568820301D5354300E0B5430B4A556003
:100B8000094A1568C20201D5354300E0B543064A5B
:100B900015605268800200D552E7B24351E70BB0AE
:100BA000F0BDC046000C0050001802408018024002
:100BB000060006000004005000080050002A02D081
:100BC00018228150704728228150704705480068DC
:100BD0007047C0461F48007802490A68101808602C
:100BE0007047C046A0010020B0B50124200208498A
:100BF0000A6802430A600025284600F00BF8002826
:100C000001D02046B0BD00F027F82C462046B0BDEC
:100C10000020024070B50F4E31780124002916D013
:100C200005467D20C000FFF7A5FA01464948006847
:100C3000FFF7A0FA00F0FAFC032D08D8002806D12F
:100C40000024E0432946224600F028F8756020463B
:100C500070BDC0460000002082B0094841680122F2
:100C600011434160416811400191019911070268E7
:100C70000A430260006808400090009802B0704784
:100C80003C100240002805D41F210840012181406A
:100C9000014801607047C04600E100E0002805D42B
:100CA0000322034693430C4A9A1806E00F2202409F
:100CB000083A03239A43074BD2188007C00E8901D4
:100CC000C9B28140FF2383401068984308431060F5
:100CD0007047C0461CED00E000E400E0F0B581B0D4
:100CE000032569021A4E3246143A13688B430343B4
:100CF0001360012461020022884226D11548016850
:100D00003068400521D50092A702062048431249C9
:100D1000FFF730FA201A022816D0316839420FD076
:100D2000012811D0316839420AD000280CD031682E
:100D3000394205D0001D032806D031683942EAD176
:100D4000009A104601B0F0BD2A46104601B0F0BD31
:100D5000147000400800002040420F00F0B587B03A
:100D6000817889076A4F01D400254FE0059001235F
:100D700019073A46183A10680840049006D11068DE
:100D8000084310601068084006900698029203918C
:100D900001931E025F4C206830432060FFF716FF6E
:100DA0000546206830420AD1FFF710FF401B022899
:100DB000F7D9032505980499002922D026E00325B8
:100DC0002902B868084011D00599496A88420BD0B9
:100DD000B86801990904BA680A43BA60BA688A43D4
:100DE000BA604D490840B860C0077ED1BA684A4829
:100DF00002400598416A1143B96000250499002911
:100E000004D1029B1968039A914319600668F1079F
:100E10000BD1F10611D4B10518D471051FD4B10658
:100E200026D4012172042DD43BE03968032291437A
:100E300042680A433A60F106EDD5032189023A6817
:100E40008A43816811433960B105E6D503218904DD
:100E50003A688A434169114339607105DFD503213E
:100E600009053A688A43816911433960B106D8D5CA
:100E7000032109033A688A43C1681143396001219B
:100E800072040ED53A68254B1A40C46922433A6071
:100E90005A1C944205D10A043B46483B1C68144343
:100EA0001C60B2020DD58A053B689343046A234354
:100EB0003B60944205D10A063B46483B1C681443FC
:100EC0001C6032050ED58C03032292033B689343CA
:100ED000026913433B60A24204D10804483F3968C9
:100EE00001433960284607B0F0BDFFF76FFE0646A4
:100EF000864CB868800700D578E7FFF767FE801B4F
:100F0000A042F6D905980499002900D179E77DE738
:100F10005410024000700040FFFCFFFFFFFFFF3F46
:100F2000F0B583B00D46012100281BD0019102903D
:100F30007548006807242040A84216D27249086804
:100F4000A04328430860714EFFF740FE07466E48F5
:100F500000682040A84208D0FFF738FEC01BB0420E
:100F6000F5D90321084603B0F0BD029E3068810721
:100F7000914B0CD5410703D521031A680A431A6027
:100F80000F2109021A688A43B16811431960C0072A
:100F90001BD15D4800682040A8422CD95A490868F6
:100FA000A04328430860594FFFF710FE06465648F5
:100FB00000682040A8421ED0FFF708FE801BB84200
:100FC000F5D90321084603B0F0BD02984068032814
:100FD0005DD8810001A251588F46C046ED0F000830
:100FE000931000089D100008A71000081946083942
:100FF0000968490559E0029A107840076E4B05D5FB
:10100000200319688143D068084318601868800677
:10101000400F22D01A6838210A406848082A23D095
:101020001A680A40102A5ED1596803220A40032A2E
:1010300000D0634859684906490F491CFFF79AF8E0
:101040005D4949684904490E48435B494968490F6D
:10105000491CFFF78FF8584B06E01846083800681F
:101060008004410F5648C840196889093C220A404B
:10107000274989581F220A40D0402E490860254838
:101080000068FFF7C7FD0146084603B0F0BD596D83
:101090000AE0194608390968890306E01946083943
:1010A0000968890101E0996D8907019900D459E720
:1010B0001968A14301431960144FFFF787FD0646E5
:1010C0003D4800683821014002984068C0008142D4
:1010D00000D15EE7FFF77AFD801BB842F0D903210B
:1010E000084603B0F0BD18680840202802D101204E
:1010F000C003B9E718680840182801D00020B3E7FA
:101100007D200002B0E7C0460020024088130000A6
:10111000D025000804000020064800682649096818
:10112000890A1C220A40044989581F220A40D040DB
:101130007047C046080000201026000810B51E4C5D
:1011400020688006400F06D0226838210A401B48DC
:10115000082A07D110BD083C20688004410F1848B8
:10116000C84010BD22680A40102A15D161680322C8
:101170000A40032A00D0124861684906490F491CF9
:10118000FEF7F8FF61684904490E48436168490F5A
:10119000491CFEF7EFFF10BD20680840202802D14F
:1011A0000120C00310BD20680840182801D000208D
:1011B00010BD7D20000210BD0810024000127A0010
:1011C0000024F400F0B587B00125002800D105E225
:1011D000049505900078C007F44F2AD0B868F968E4
:1011E00003252A468A4338210140102048408218AE
:1011F00050425041082914D0002812D10598426865
:10120000012001048A4208D005231B049A4200D021
:1012100006E182043B6813433B603A680A433A6044
:1012200008E13868800304D505984068002800D19B
:1012300057E105980078800716D4059800780007D4
:1012400045D4059A107840074ED4D069002800D1C3
:1012500043E1B96838220A40102A00D0B6E00128DC
:1012600000D012E1049DB9E1B9683820084010218E
:101270004140FA680326324002235340CA185142C3
:1012800051410125AC0200283AD0002938D13868F4
:10129000059AD168002900D1DAE00721C902884304
:1012A0001169014339602802396801433960FFF749
:1012B0008DFC05463868204200D0DCE0FFF786FC54
:1012C000401B0228F6D93546284607B0F0BDB8685D
:1012D0003821014018293BD1386E8007B1D50598D7
:1012E00080690028ADD1FCE0B86838210140202990
:1012F00045D1F86D8007A8D590680028A5D1F0E009
:1013000039682142059B03D0D968002900D165E1E5
:101310007F2109027A688A43596909021143796079
:1013200000280DD10720C00239688143186908439D
:10133000386038688004400FB549C140B548016045
:10134000B5480068FFF766FC002800D046E174E766
:10135000386E05998969002900D1DBE00121084335
:101360003866FFF733FC0646386E800700D568E71D
:10137000FFF72CFC801B03250228F5D92EE1012064
:1013800003900107F86B0840029006D1F86B084300
:10139000F863F86B08400690069801919F48006832
:1013A000C0052CD4039804029C49086820430860B7
:1013B000FFF70CFC06469948006820421FD1FFF752
:1013C00005FC801B03250228F5D907E1012213063D
:1013D000396899433960022800D086E0039304926B
:1013E0005406FFF7F3FB06463868204200D1B0E010
:1013F000FFF7ECFB801B03250228F5D9EEE00598EA
:101400008068874C012806D0052800D0D0E0F86D10
:1014100004210143F965F86D03990843F865D1E0AB
:101420003B688B433B6081043B688B433B60002AF5
:1014300000D180E04404FFF7C9FB0646386820422B
:1014400000D0F6E6FFF7C2FB801B6428F6D9C5E0A2
:10145000290288433860FFF7B9FB05463868204207
:1014600000D1EAE6FFF7B2FB401B0228F6D9354669
:10147000284607B0F0BD7F200002796881430598B7
:101480004069000208437860D7E6F868032101400C
:10149000059B1A6A914224D1702101405A6A9142F7
:1014A0001FD17F21090201409A6A1202914218D18C
:1014B0001F2149040140DA6A914212D107214A06EC
:1014C00002401C461B6B9A42049D00D086E04907EF
:1014D0000840616B884200D080E00025284607B0B4
:1014E000F0BD049D284607B0F0BDF8680325A84369
:1014F000F860F8684B490140F9605606FFF766FB53
:10150000044638683042E8D0FFF760FB001B022831
:10151000F7D963E0012188433866FFF757FB064699
:10152000386E800700D48CE6FFF750FB801B032544
:101530000228F5D952E04404FFF748FB0646386814
:10154000204200D175E6FFF741FB801B6428F6D9E5
:1015500044E0F868344901400598026A456A836AA4
:10156000C66A0196066B0296406B0A432A4319022B
:101570001143019A1143029A11430143F9603868FB
:1015800003990843386004980007F9680143F9603B
:10159000FFF71CFB0646386820429ED1FFF716FB7A
:1015A000801B03250228F6D918E0C046001002402F
:1015B000F96D039A9143F965F96D04229143F96538
:1015C00000280ED0FFF702FB0646F86D800715D401
:1015D000FFF7FCFA801B0325A042F6D9284607B086
:1015E000F0BDFFF7F3FA0646F86D800706D5FFF762
:1015F000EDFA801B0325A042F6D9EFE702980028F8
:10160000059A00D021E6F86B01998843F8631CE63F
:101610000024F400080000200400002000700040B6
:1016200088130000FFFFFEEE8C80C111401E010EEA
:1016300001D0012070470749074A506007480368F6
:101640000B40032189075918016000209060072191
:1016500011607047FFFFFF0010E000E020ED00E0A8
:1016600070B53C22825C012A01D1022070BD024685
:101670003C3202235370006845688368654CA04281
:1016800001D02E4604E00F263605B5434E682E43A2
:101690007025AE430D68354345600125AE07B04265
:1016A00004D0A04202D05C4CA04204D18024A343C9
:1016B00089681943816000201070557070BDC04664
:1016C00070B5002828D0044605463C3568780028C7
:1016D00004D100202870204600F060F802206870D5
:1016E00021680E6801208307994205D0494A91423A
:1016F00002D0494A914211D170229643A2683243E6
:10170000224EB1420EDC994215D0434B994212D081
:10171000214B99420FD036E0012070BD32461B4E5E
:10172000B142F0DD3B4B994205D0194B994202D0B2
:10173000184B994227D103231B029A432369134371
:1017400080229343A2691A430A60E268CA6262680F
:101750008A62304A914205D00D4A914202D00D4A28
:10176000914201D162690A6348612873A870E870E8
:1017700028716871A871E87128726872A872E8729D
:101780006870002070BD1346DAE7C046FF2B0140A9
:1017900000480140004401400020004081B0006842
:1017A0001C49884201D001B070470120C0020549A0
:1017B0000A6802430A60096801400091009801B07C
:1017C0007047C0464010024010B53D21415C0129E0
:1017D00018D101463D3102220A70016801229007AA
:1017E000814205D00B48814202D00B4881420BD187
:1017F00088680A4B03400020062B02D01404A34241
:1018000002D110BD012010BD0868104308600020FF
:1018100010BDC046002C014000040040070001003C
:1018200070B53C22825C012A01D1022070BD0246C3
:101830003C320223537000688368474C1C4084602C
:101840000B683F2B19DD5F2B1EDD602B41D001247F
:101850006503AB4255D0702B79D1FF231B028468FE
:101860009C434B688D68C9681D4309022943214385
:10187000816083687721194368E01F2B1EDC002BF1
:1018800020D0102B1ED062E0402B4AD0502B5ED1CE
:10189000036A046A0125AC4304628469F025AC4301
:1018A000CD682D01254385610A24A3434968194366
:1018B0000162836829491940573147E0202B01D044
:1018C000302B44D18168254C0C4023430721194318
:1018D0003CE0036A1024A34303620F231B038469C3
:1018E0009C43CB681B032343046A8361A0239C436E
:1018F0004968090121430162836818491940673129
:1019000024E0FF231B0285689D434B688E68C968ED
:101910001E430902314329438160A30381681943AF
:1019200014E0036A046A0125AC4304628469F0256B
:10193000AC43CD682D01254385610A24A343496842
:1019400019430162836805491940473181600020CD
:1019500010700121517070BD8800CEFF88FFCFFF4D
:1019600080B586B001218A070068904201D006B098
:1019700080BD01910A4802680A430260006808407D
:10198000009002200590002104910391029005200F
:101990000007009901A9FFF737F806B080BDC046DF
:1019A00034100240F0B582B03C23C35C012B02D15D
:1019B000022002B0F0BD03463C330224E241052A76
:1019C00000D988E17A4412795200974402243A53AC
:1019D000708C0268106A0125A8431062106AA04347
:1019E0008E68064350680C6801949569F34FBA42BB
:1019F00006D0F54CA24203D0F44CA24200D0EDE058
:101A00000C24A643CC680427BC43EC4F3443BA42B1
:101A100000D0E6E0EBE00268106A1024A0431062F8
:101A2000146A2020844388680001204356680C68AB
:101A300001949469E14DAA4272D00746AA4279D135
:101A40007EE0012425020268106AA8431062600249
:101A5000146A844388680002204356680C68019425
:101A6000D569D64CA24200D189E00746A24200D0F7
:101A700091E096E0012425030268106AA8431062F1
:101A8000156A50688E6801960E680096D769CB4E2D
:101A9000B24206D0CC4EB24203D0CC4EB24200D0BD
:101AA000ADE0A603B0434E69B6010643A8E08D4DF4
:101AB00073350268106A28401062146A50688E6894
:101AC00001960E680096566DBC4FBA4206D0BE4FC6
:101AD000BA4203D0BD4FBA4200D0ABE028404D69B6
:101AE0002D020543A7E0012425050268106AA843DA
:101AF0001062156A50688E6801960E680096576DE0
:101B0000AE4EB24206D0B04EB24203D0AF4EB24259
:101B100000D0ABE0A604B0434E69B6020643A6E08F
:101B2000C027B843CF683F014025AF43A34D0743CB
:101B3000AA4205D0A448824202D0A448824208D1D9
:101B400003208002864348698D6980003043AE00DF
:101B50000643104618305660634D2C40019D2D02FF
:101B6000254395614C68946317620124E5029669E8
:101B70002E439661A4029569A543956190E00327E1
:101B8000BF02B843594CFF3CCF683F0227408B4C03
:101B90000743A24205D08C48824202D08B48824241
:101BA00008D103200003864348698C690001304353
:101BB0002601064310461C3056604A4C2540019CC5
:101BC0002543D5614C68D4631762D4690825254341
:101BD000D561D4690425AC43D46178E03446BA4277
:101BE00005D0794EB24202D0784EB2425BD1032684
:101BF0003602B0434E698F6906433E4354E00646C1
:101C000010461C305660384E3740009E36023E4328
:101C1000D6614E6816646603B543019E36032E43B3
:101C20001662E502D6692E43D661A402D569A543A2
:101C3000D56135E00546104654305560294DED1C00
:101C40002E40009D2E4356654D68956501256D0417
:101C5000AC43019D2D0425431562546D0825254391
:101C60005565546D0425AC43546530E00646104676
:101C7000543056601A4E3740009E36023E43566539
:101C80004E68D6656605B543019E36052E4316623D
:101C9000E502566D2E435665A402556DA543556564
:101CA0000969090214E006461046183056600D4EC8
:101CB0003540019E354395614D68556314629469C2
:101CC00008252543956194690425AC43946109690D
:101CD00002680A4302600020187002B0F0BDC046DE
:101CE000FF8FFFFE8CFFFEFFFF8CFFFEFFFBFFFF61
:101CF00070B5002828D0044605463C356878002891
:101D000004D100202870204600F064F8022068709A
:101D100021680E6801208307994205D0274A914225
:101D200002D0274A914211D170229643A2683243D1
:101D3000244EB1420EDC994215D0214B994212D06B
:101D4000234B99420FD036E0012070BD32461D4E24
:101D5000B142F0DD194B994205D01B4B994202D09C
:101D60001A4B994227D103231B029A432369134339
:101D700080229343A2691A430A60E268CA626268D9
:101D80008A620E4A914205D00F4A914202D00F4A10
:101D9000914201D162690A6348612873A870E870B2
:101DA00028716871A871E87128726872A872E87267
:101DB0006870002070BD1346DAE7C046002C014071
:101DC00000040040FF2B0140004801400044014056
:101DD0000020004081B001218A070068904201D0B4
:101DE00001B07047044802680A4302600068084076
:101DF0000090009801B070473C100240B0B5002838
:101E000030D00446054680356868002804D100209B
:101E10002870204600F028F82420686020680168B7
:101E20000125A9430160204600F0A6F9012817D03A
:101E3000A06A002802D0204600F09EF80920C002C7
:101E400021684A6882434A6088682A2290438860F1
:101E50000868012202430A60204600F0F7F80546B0
:101E60002846B0BD0120B0BD80B586B000681249DB
:101E7000884201D006B080BD012041040F4A93681A
:101E80000B43936093680B400193019911680143E0
:101E900011601168014000910590002104910390A8
:101EA000022002900C20019005200007009901A952
:101EB000FEF7AAFD06B080BD004400403410024089
:101EC000FEE7FEE77047704780B5FEF783FE80BDF2
:101ED00070B59CB000251495139512951195109529
:101EE0000F9568462821FEF73AF901267002FEF7A1
:101EF000F5FE70071B9070061A9070041990082068
:101F0000189017950224169415944020139012955A
:101F1000300211900E940EA8FFF754F9002803D058
:101F2000EFF3108072B6FEE70C9507200A90B0031D
:101F30000D900B940AA82146FEF7F2FF002803D06B
:101F4000EFF3108072B6FEE70895079581208003B5
:101F500000906846FEF702FF002803D0EFF31080E0
:101F600072B6FEE71CB070BD0120C00601490860D2
:101F70007047C04608ED00E0B0B5816ACA070CD1D1
:101F80008A0714D44A071CD40A0724D4CA062CD4BE
:101F90008A0634D44A063CD44CE001225204036839
:101FA0005C689443C26A22435A608A07EAD50122D8
:101FB000120403685C689443026B22435A604A0728
:101FC000E2D50122920403685C689443426B224389
:101FD0005A600A07DAD50122D20303685C68944389
:101FE000826B22435A60CA06D2D5012212030368CB
:101FF0009C689443C26B22439A608A06CAD5012228
:10200000520303689C689443026C22439A604A0618
:1020100010D501221305026854689C43456C2C437B
:1020200054609D4206D103235B0554689C43836C36
:1020300023435360090607D50121C9040268536888
:102040008B43C06C18435060B0BD0000F0B585B044
:1020500004468C200026265020468C3002902746CD
:102060008037FEF7B3FD054620680168090704962E
:10207000039727D5C169890224D40120470501901F
:10208000C60202E0C16939421CD1FEF79FFD421B26
:1020900020680168374B9A4249D84907F2D5C1698F
:1020A0003142EFD006620D21490102688A43026085
:1020B0008168019A914381602020039A506090606A
:1020C00002994FE00168490727D5C069400224D42E
:1020D000012087050190C60202E0C06938421CD188
:1020E000FEF774FD421B20680168224B9A422CD8EF
:1020F0004907F2D5C1693142EFD006620D2149018D
:1021000002688A4302608168019A914381602020BD
:10211000039A50609060029924E02020039A506056
:1021200090600499E1660846117005B0F0BD0D227B
:102130005201914301608168019A9143816020209E
:10214000039A5060114608310CE00D225201914370
:1021500001608168019A914381602020039A506058
:10216000114608312020086003200499117005B041
:10217000F0BDC046FFFFFF01F0B581B00446026824
:1021800011686F480840A16823690B4361691943CE
:10219000E3691943656E0D43054315600327380352
:1021A00051688143E06808435060A169654DAA42C7
:1021B00002D0206A084300E008469168624E0E4053
:1021C00006439660D06A0F218843616A0843D06253
:1021D000EF4882420BD0AA420BD05C48824210D119
:1021E0005B4800688007000F5A4E36580AE0002608
:1021F00008E057480068000A0C26064055488659F2
:1022000000E010262046683000905348AA4216D0BD
:102210000125EA03934226D1082E00D987E0C04663
:102220007E4436797600B744048259825282828293
:102230005800FEF771FF00284DD0616A4EE001257D
:10224000082E00D973E0C0467E4436797600B74444
:10225000046E246E1C6E6E6E2200FEF75DFF002879
:1022600017D0616A19E0082E61D8C0467E443679DD
:102270007600B744045C4C5C455C5C5C4B00FEF74C
:102280004BFF002840D0616A41E0FEF757FF00286D
:10229000E7D100254BE00120C00349002F4A515AE5
:1022A000FDF768FF62685743B84240D31103884284
:1022B0003DD8010E56080002002380195941FDF750
:1022C00017FF28494118284A914230D22CE0FEF7E6
:1022D00035FF0028B1D1002529E0104649001F4AEA
:1022E000515AFDF747FF400061684A081018FDF792
:1022F00041FF1B4901401AD00007400F084313E07B
:10230000FEF71CFF0028BED1002510E01046490052
:10231000124A515AFDF72EFF61684A081018FDF75E
:1023200029FF80B2102802D32168C86000250F4819
:1023300000990860002020676067284601B0F0BD62
:10234000F369FFCF00800040FFF4FF110038014027
:1023500054100240482600080024F40030260008EB
:10236000F0FF000000FDFFFF00FD0F000100010075
:102370008CB0FEF739FCFFF7ABFD00240694059402
:102380007E480168042529430160016829400991BC
:1023900009990168202211430160016800921140EF
:1023A00009910999016801273943016000683840A3
:1023B000099009987248402631462246FEF7FEFBF6
:1023C000049770480390019502956F4802AD294625
:1023D000FEF71AFB05940494039702966848294671
:1023E000FEF712FB0625284621462246FEF756FC3C
:1023F0002846FEF747FC65480C213A07E1235B02BB
:10240000634D056043608260C46004614161846122
:10241000C461046244628462FFF7F0FC002803D0C8
:10242000EFF3108072B6FEE75A4E5B483F215B4ADD
:102430007260B160F46030617461B461F4610594FC
:1024400004940394351D2846FFF73AF9002803D079
:10245000EFF3108072B6FEE73803029002A9284617
:10246000FFF7DEF9002803D0EFF3108072B6FEE725
:102470000B940A94099409A92846FFF7F1F800285B
:1024800003D0EFF3108072B6FEE72C214448445489
:1024900000994454C46444628462C76187760483AB
:1024A0004049FA0716C004604460019981600494B1
:1024B000039402943C210C384454046344638463C1
:1024C000FEF776F8002803D0EFF3108072B6FEE72F
:1024D0000494039434480290314802A9FDF704FFA4
:1024E000002803D0EFF3108072B6FEE72F4880215A
:1024F0008161E143BA0714C00460416084600A94BA
:1025000008940794069405940838FFF7F1FB002817
:1025100003D0EFF3108072B6FEE70B9409942348C2
:1025200009A9FFF79DF8002803D0EFF3108072B6D9
:10253000FEE7069404940394602002901B4802A9CD
:102540002246FFF72FFA002803D0EFF3108072B66F
:10255000FEE71648FFF704FA2846FFF735F9104C56
:102560002046FEF70BFA7D20C1002046FEF792F9C7
:102570002046FEF719F83080F5E7C04634100240D7
:10258000000800500000211000140050100100202D
:102590000044004010000020FFFF0000002C01401C
:1025A000600000200024014020000014C40000202E
:1025B00002E008C8121F08C1002AFAD1704770470C
:1025C000002001E001C1121F002AFBD1704700006A
:1025D00000000000000000000000000000000000FB
:1025E00000000000000000000000000000000000EB
:1025F00001000000020000000300000004000000D1
:1026000006000000070000000800000009000000AC
:1026100000000000000000000000000000000000BA
:1026200001000000020000000300000004000000A0
:10263000010002000400060008000A000C0010005F
:1026400020004000800000010000000004000000A5
:1026500002000000080000007826000800000020AA
:1026600010000000B0250008882600081000002097
:1026700098050000C02500080100000004000000CB
:082680000024F400000000003A
:04000005080000C12E
:00000001FF
