:020000040800F2
:1000000040050020CD000008912000087D16000862
:1000100000000000000000000000000000000000E0
:100020000000000000000000000000009520000813
:100030000000000000000000932000089720000846
:10004000DF00000800000000DF000008DF000008FB
:10005000DF000008DF000008DF000008DF00000804
:1000600000000000DF000008DF000008DF000008DB
:10007000DF000008DF000008DF00000800000000CB
:10008000DF000008DF000008DF000008DF000008D4
:10009000DF000008DF000008DF000008811600080C
:1000A000DF000008DF000008DF000008DF000008B4
:1000B000DF000008DF0000080348854600F034F840
:1000C00000480047FD2500084005002004488047FF
:1000D00004480047FEE7FEE7FEE7FEE7FEE7FEE72F
:1000E00065210008B900000870B50446002903D056
:1000F00000202022012310E0002801D00020C0436E
:10010000C046C0460DE02546D5408D4205D30D467C
:100110009540641B1D46954040191546521E002D02
:10012000F1DC214670BD0000064C0125064E05E0BD
:10013000E36807CC2B430C3C98471034B442F7D308
:10014000FFF7BEFF002900082029000870B525210F
:10015000415C02292DD10146243103681A680E241E
:10016000A2431A601C68012294431C60446C2568F9
:10017000124B1D402560046C1C2525401446AC40E4
:100180000F4D2E6826432E60846CC56C6560046D2F
:10019000002C05D025681D402560436D846D5C6092
:1001A00000240C704A70816B002900D088472046DB
:1001B00070BD0421C163012070BDC046FFFEFFFF7A
:1001C000040002402521405C70470000B0B50446A1
:1001D00000F0FEF80546601C02D0044800780419BF
:1001E00000F0F6F8401BA042FAD3B0BD000000209A
:1001F000F0B58BB007466548874205D005200090D2
:100200000D68002D06D1BEE0032000900D68002D82
:1002100000D1B8E00123002006460193044608906F
:10022000099006910A9712E03243059E58484260B1
:100230000D682846D840089A121D089208365B1CA3
:10024000A41C099A521C0992002800D19BE05A1E56
:1002500001980792904005400495E9D005964E68B4
:10026000122E029461D80125B5404B4A15425CD04C
:100270000325A540BA68AA430699CF68A74017434B
:100280000A998F60320907998A400A994F68874313
:1002900017430A9847600A9F0699E843099A540051
:1002A000FA6802408D680394A5401543FD60102252
:1002B0003243122A12D11C21089A11400F228A407F
:1002C000079DED08AD007D192F6A9743069A1269C4
:1002D0008A403A430A9F06992A624E683A68024069
:1002E000032530462840039CA04010433860F000AE
:1002F000059E029C9CD5182030400F2282403E462D
:10030000079FAF433546224EF7193E6E964360373E
:100310000522120795420ED0204A954209D0204A64
:100320009542009D08D1022506E00320A040C0436D
:10033000B6E7012500E00025854035433D601548BE
:1003400005684868C20302D5049E354301E0049E57
:10035000B5430A9F0F4A15605568820301D535439E
:1003600000E0B5430B4A5560094A1568C20201D541
:10037000354300E0B543064A15605268800200D557
:1003800052E7B24351E70BB0F0BDC046000C00503D
:1003900000180240801802400600060000040050C9
:1003A0000008005000690840411E884170474269BA
:1003B0000B4693430A401104C91881617047002A13
:1003C00002D01822815070472822815070470000C7
:1003D000E94800687047C046B0B502464120135C4A
:1003E0000220202B19D1134640331C78012C14D045
:1003F00024205870106802680124A243026022037E
:1004000005689543056002680A430260016821435C
:1004100001600020187020215970B0BDB0B50246AF
:100420004120135C0220202B19D1134640331C7845
:10043000012C14D024205870106802680124A243B3
:1004400002600F22120205689543090229430160E8
:100450000168214301600020187020215970B0BD4F
:1004600070477047F0B581B00122150201688B69B1
:100470001C462C40664266410F6880243C4067421F
:100480006741374304D1466C012737434764CD6148
:10049000654265415E05164600D52E46002E05D103
:1004A0009502466C082737434764CD616542654134
:1004B0009B05134609D4002B0AD0416C0B22114234
:1004C00001D001F063F901B0F0BD2B46002BF4D14F
:1004D0005202436C02241C434464CA61416C0B22E7
:1004E0001142EED1EFE780B502689169436B126863
:1004F000002B00D0984780BD80B500F00DF804288F
:1005000000D180BD052000072021FFF750FF7D208E
:10051000C000FFF75BFEF5E7406C70474121405C8F
:1005200070470000F0B581B0002822D0044605468F
:1005300040356878002804D100202870204600F05B
:10054000D9F8242068702068026801218A4302607B
:100550000F2212066368934303618368194A1340AC
:100560008360A368E668012E06D1CE03334383601F
:100570000AE0012001B0F0BD2127BF023B438360A8
:10058000022E01D1CB02436043680F4E1E434660EA
:10059000C3681340C360226963691343A2691202EE
:1005A0001A43C260E269236A1343036002680A4384
:1005B000026000206064202169702063A87001B08F
:1005C000F0BDC046FF7FFFFF0080000270470000C3
:1005D00080B5044801210170052000072021FFF7A4
:1005E000E6FE80BD1000002080B505200007202118
:1005F000FFF7DDFE80BD0000F0B504464120255C1C
:100600000220202D2DD12568AE69360429D4264636
:1006100040363778012F24D0222070701020B0701F
:100620000020606463852C4BE36262622B4A626344
:10063000628DFF2A02D90B4AFF2301E0638D0A4A2B
:1006400023856C68284F2740284C2140DBB21B04CF
:10065000591811433943696030702968F4220A43FC
:100660002A60F0BD0024008100240082F0B5044619
:100670004120255C0220202D2DD12568AE6936044D
:1006800029D4264640363778012F24D02120707097
:100690001020B0700020606463850F4BE3626262DB
:1006A0000E4A6263628DFF2A02D90D4AFF2301E0E0
:1006B000638D0C4A23856C680B4F27400B4C2140FF
:1006C000DBB21B0459181143394369603070296843
:1006D000F2220A432A60F0BD0000FFFFB11C0008AF
:1006E0000020008100200082009800FCFF03000031
:1006F0007047704770B586B000681849884201D0CD
:1007000006B070BD01260396154D28683043286059
:1007100028683040009006200590002404941220A0
:10072000029003204002019000980520000701A9D3
:10073000FFF75EFD7005A9680143A960A968014043
:1007400000910098172528462146224600F076F8A9
:10075000284600F067F806B070BDC046005400405F
:1007600034100240704770471F48007802490A68F9
:10077000101808607047C0463C010020B0B5012445
:10078000200208490A6802430A600025284600F052
:100790000BF8002801D02046B0BD00F027F82C4609
:1007A0002046B0BD0020024070B50F4E31780124C4
:1007B000002916D005467D20C000FFF795FC0146B4
:1007C0004C480068FFF790FC00F0C2FC032D08D8ED
:1007D000002806D10024E0432946224600F02EF8E6
:1007E0007560204670BDC0460000002080B582B014
:1007F0000B48416801221143416041681140019159
:100800000199110702680A430260006808400090DD
:1008100000980320400200F091FC02B080BDC04669
:100820003C100240002805D41F21084001218140CE
:10083000014801607047C04600E100E0002805D48F
:100840000322034693430C4A9A1806E00F22024003
:10085000083A03239A43074BD2188007C00E890138
:10086000C9B28140FF238340106898430843106059
:100870007047C0461CED00E000E400E0F0B581B038
:10088000032569021A4E3246143A13688B43034318
:100890001360012461020022884226D1F9480168D0
:1008A0003068400521D50092A7020620484312492E
:1008B000FFF71AFC201A022816D0316839420FD0EF
:1008C000012811D0316839420AD000280CD0316893
:1008D000394205D0001D032806D031683942EAD1DB
:1008E000009A104601B0F0BD2A46104601B0F0BD96
:1008F000147000400800002040420F00F0B587B09F
:1009000081788907564F01D400254FE005900123D7
:1009100019073A46183A10680840049006D1106842
:1009200008431060106808400690069802920391F0
:1009300001931E024B4C206830432060FFF748FDB6
:100940000546206830420AD1FFF742FD401B0228CD
:10095000F7D9032505980499002922D026E003251C
:100960002902B868084011D00599896988420BD0DE
:10097000B86801990904BA680A43BA60BA688A4338
:10098000BA6039490840B860C00757D1BA683648DC
:100990000240059881691143B96000250499002936
:1009A00004D1029B1968039A914319600668F10704
:1009B00007D1B1070DD4B10613D4012172041AD4A2
:1009C00028E039680322914342680A433A60B1073C
:1009D000F1D539680C22914382680A433A60B10626
:1009E000EBD5032109033A688A43C1681143396092
:1009F000012172040ED53A681C4B1A404469224307
:100A00003A605A1C944205D10A043B46483B1C6894
:100A100014431C6032050ED58C03032292033B68FD
:100A20009343026913433B60A24204D10804483F48
:100A3000396801433960284607B0F0BDFFF7C8FCAC
:100A40000646864CB8688007A0D4FFF7C1FC801B1F
:100A5000A042F7D9059804990029A2D0A6E7C0467C
:100A60005410024000700040FFFCFFFFFFFFFF3FFB
:100A7000F0B583B00D46012100281BD001910290F2
:100A80007548006807242040A84216D272490868B9
:100A9000A04328430860714EFFF79AFC07466E4852
:100AA00000682040A84208D0FFF792FCC01BB0426B
:100AB000F5D90321084603B0F0BD029E30688107D6
:100AC000914B0CD5410703D521031A680A431A60DC
:100AD0000F2109021A688A43B16811431960C007DF
:100AE0001BD15D4800682040A8422CD95A490868AB
:100AF000A04328430860594FFFF76AFC0646564852
:100B000000682040A8421ED0FFF762FC801BB8425C
:100B1000F5D90321084603B0F0BD029840680328C8
:100B20005DD8810001A251588F46C0463D0B000898
:100B3000E30B0008ED0B0008F70B00081946083915
:100B40000968490559E0029A107840076E4B05D5AF
:100B5000200319688143D06808431860186880062C
:100B6000400F22D01A6838210A406848082A23D04A
:100B70001A680A40102A5ED1596803220A40032AE3
:100B800000D0634859684906490F491CFFF7ACFA81
:100B90005D4949684904490E48435B494968490F22
:100BA000491CFFF7A1FA584B06E0184608380068C0
:100BB0008004410F5648C840196889093C220A4000
:100BC000274989581F220A40D0402E4908602548ED
:100BD0000068FFF7E9FD0146084603B0F0BD596D16
:100BE0000AE0194608390968890306E019460839F8
:100BF0000968890101E0996D8907019900D459E7D5
:100C00001968A14301431960144FFFF7E1FB064641
:100C10003D4800683821014002984068C000814288
:100C200000D15EE7FFF7D4FB801BB842F0D9032167
:100C3000084603B0F0BD18680840202802D1012002
:100C4000C003B9E718680840182801D00020B3E7AE
:100C50007D200002B0E7C04600200240881300005B
:100C60006828000804000020064800682649096832
:100C7000890A1C220A40044989581F220A40D04090
:100C80007047C04608000020A828000810B51E4C78
:100C900020688006400F06D0226838210A401B4891
:100CA000082A07D110BD083C20688004410F18486D
:100CB000C84010BD22680A40102A15D1616803227D
:100CC0000A40032A00D0124861684906490F491CAE
:100CD000FFF70AFA61684904490E48436168490F01
:100CE000491CFFF701FA10BD20680840202802D1F6
:100CF0000120C00310BD20680840182801D0002042
:100D000010BD7D20000210BD0810024000127A00C4
:100D10000024F400F0B587B00125002800D1F9E1E6
:100D2000049505900078C007FC4F2AD0B868F96890
:100D300003252A468A433821014010204840821862
:100D400050425041082914D0002812D10598426819
:100D5000012001048A4208D005231B049A4200D0D6
:100D6000DAE082043B6813433B603A680A433A6026
:100D7000DBE03868800304D505984068002800D17E
:100D800076E105980078800723D40598007800075D
:100D90000CD5B86838210140182971D1386E800708
:100DA00004D505988069002800D161E1059A107882
:100DB000400700D42EE1B86838210140202974D1C1
:100DC000F86D800700D425E19068002800D021E16B
:100DD0004EE1B9683820084010214140FA680325E7
:100DE0002A4002235340CA1851425141002820D0C2
:100DF00000291ED13868059AD168002900D1A2E0E7
:100E00000721C902884311690143396001200102A9
:100E10003A680A433A608402FFF7DAFA064638680D
:100E2000204200D0A1E0FFF7D3FA801B0228F6D9B8
:100E300070E139684905059B03D5D968002900D1BF
:100E400016E17F2109027A688A4359690902114330
:100E5000796000280DD10720C002396881431869E4
:100E60000843386038688004400FAD49C140AD4840
:100E70000160AD480068FFF797FC002885D0F7E0D7
:100E8000386E05998969002979D0012108433866AF
:100E9000FFF79EFA0646386E800787D4FFF798FA68
:100EA000801B03250228F6D934E1012003900107B5
:100EB000F86B0840029006D1F86B0843F863F86BB2
:100EC000084006900698019198480068C00513D420
:100ED000039804029549086820430860FFF778FAF0
:100EE000064692480068204206D1FFF771FA801B3F
:100EF00003250228F5D90DE1059880688C4C01285E
:100F000005D005285AD1F86D04210143F965F86D23
:100F100003990843F8655BE03B688B433B608104C1
:100F20003B688B433B60002A3AD04404FFF750FAF9
:100F300006463868204200D023E7FFF749FA801BB5
:100F40006428F6D9E6E001210A02904338608C0259
:100F5000FFF73EFA06463868204200D115E7FFF752
:100F600037FA801B0228F6D9D4E07F200002796886
:100F700081430598406900020843786005E7012134
:100F800088433866FFF724FA0646386E800700D497
:100F90000CE7FFF71DFA801B03250228F5D9B9E0FD
:100FA0004404FFF715FA06463868204200D1E8E607
:100FB000FFF70EFA801B6428F6D9ABE0F96D039AAF
:100FC0009143F965F96D04229143F96500280CD02D
:100FD000FFF7FEF90646F86D800713D4FFF7F8F91E
:100FE000801B0325A042F6D994E0FFF7F1F90646ED
:100FF000F86D800706D5FFF7EBF9801B0325A042AB
:10100000F6D987E002980028059A03D1F86B019978
:101010008843F863D069002826D0B96838220A408E
:10102000102A29D1012823D0F86803210140059B0B
:101030001A6A91421CD1702101405A6A914217D11B
:101040007F21090201409A6A1202914210D11F21A8
:1010500049040140DA6A9142049D5BD107214907A6
:101060000840196B884255D10025284607B0F0BDCD
:10107000049D284607B0F0BD012213063968994344
:10108000396002280FD1039304925406FFF7A0F9A8
:101090000646386820421BD0FFF79AF9801B0325CB
:1010A0000228F6D936E0F8680325A843F860F86806
:1010B00020490140F9605606FFF78AF9044638686E
:1010C0003042D1D0FFF784F9001B0228F7D921E084
:1010D000F86819490140059E20366DCE084310433B
:1010E0001902014329433143F960386803990843E1
:1010F000386004980007F9680143F960FFF768F960
:10110000064638682042AFD1FFF762F9801B0325FD
:101110000228F6D9284607B0F0BDC04600100240AC
:101120000024F400080000200400002000700040AB
:1011300088130000FFFFFEEF8C80C11F03214902CE
:10114000024A13688B430343136070470000014059
:10115000401E010E01D0012070470749074A506028
:10116000074803680B4003218907591801600020D4
:101170009060072111607047FFFFFF0010E000E062
:1011800020ED00E070B53C22825C012A01D10220F2
:1011900070BD02463C320223537000684568836884
:1011A000674CA04201D02E4604E00F263605B54319
:1011B0004E682E437025AE430D68354345605E4D45
:1011C000A84204D05D4DA84201D0A04204D18024A1
:1011D000A343896819438160002010700121517078
:1011E00070BDC046B0B5002824D0044605463C3545
:1011F0006878002804D100202870204600F060F8AC
:1012000002206870206803684D4A904202D04A4923
:10121000884211D170218B43A1681943234B984216
:101220000EDC454B984214D0234B984211D090428B
:101230000FD039E00120B0BD19461C4B9842F0DDBB
:101240003E4A904205D01A4A904202D0194A904232
:101250002AD103221202914322690A4380218A4340
:10126000A16911430160E168C1626168816213494B
:1012700041180A22D141072906D801228A40E121DA
:101280000A4201D061690163012141612973A9709A
:10129000E97029716971A971E97129726972A9727C
:1012A000E97269700020B0BD0A46D7E7FF3F0140F0
:1012B00000480140004401400020004000D4FEBF2F
:1012C00081B000681E49884201D001B070470120FA
:1012D000C00205490A6802430A600968014000919A
:1012E000009801B07047C046401002403D21415C6B
:1012F000012918D101463D3102220A7001680E48C9
:10130000814205D00D48814202D00D4881420CD166
:1013100088680C4A02400020062A03D001231B04DF
:101320009A4202D1704701207047086801220243A7
:101330000A6000207047C0460004004000400140A1
:10134000002C01400700010070B53C22825C012A9C
:1013500001D1022070BD02463C3202235370006866
:101360008368474C1C4084600B683F2B19DD5F2B62
:101370001EDD602B41D001246503AB4255D0702B9C
:1013800079D1FF231B0284689C434B688D68C96830
:101390001D43090229432143816083687721194352
:1013A00068E01F2B1EDC002B20D0102B1ED062E02B
:1013B000402B4AD0502B5ED1036A046A0125AC430E
:1013C00004628469F025AC43CD682D012543856115
:1013D0000A24A343496819430162836829491940D3
:1013E000573147E0202B01D0302B44D18168254C68
:1013F0000C402343072119433CE0036A1024A34314
:1014000003620F231B0384699C43CB681B032343A4
:10141000046A8361A0239C43496809012143016256
:10142000836818491940673124E0FF231B0285684F
:101430009D434B688E68C9681E43090231432943A6
:101440008160A3038168194314E0036A046A0125DB
:10145000AC4304628469F025AC43CD682D0125437B
:1014600085610A24A34349681943016283680549D9
:10147000194047318160002010700121517070BD0A
:101480008800CEFF88FFCFFFB0B58021415C0129E5
:1014900001D10220B0BD0246803224215160016892
:1014A0000B680C680125AC430C606C07A3430B6010
:1014B000002141661170202050600846B0BD000038
:1014C000F0B581B08022825C012A02D1022001B0F5
:1014D000F0BD054668352422EA610668376832683F
:1014E0000124A243326007225206B36893430B43A0
:1014F000B360406E0028204615D00097B768B068EA
:10150000400F2B49095C2B4A105CC000FEF7ECFD34
:1015100004463801009F400F2549095C254A105CAC
:10152000C000FEF7E1FD28806C803760002028763F
:101530002021E96101B0F0BDF0B581B08022825C6C
:10154000012A02D1022001B0F0BD054668352422EF
:10155000EA610668376832680124A24332600722D4
:101560005207B36893430B43B360406E0028204694
:1015700015D00097B768B068400F0D49095C0D4A57
:10158000105CC000FEF7B0FD04463801009F400F1C
:101590000749095C074A105CC000FEF7A5FD2880DA
:1015A0006C803760002028762021E96101B0F0BD11
:1015B000F8280008F0280008B0B5002830D004460C
:1015C000054680356868002804D100202870204630
:1015D00000F028F824206860206801680125A943EC
:1015E0000160204600F0C6FE012817D0A06A00283E
:1015F00002D0204600F0BEFD0920C00221684A68E2
:1016000082434A6088682A229043886008680122E1
:1016100002430A60204600F017FE05462846B0BD8A
:101620000120B0BD80B586B000681249884201D063
:1016300006B080BD012041040F4A93680B439360BC
:1016400093680B400193019911680143116011687F
:101650000140009105900021049103900220029026
:101660000C20019005200007009901A9FEF7C0FD9C
:1016700006B080BD0044004034100240FEE7000088
:1016800080B50748006880694005400F03D00448D2
:10169000FEF7E8FE80BD0248FEF725FF80BDC0468C
:1016A0001400002080B5806A816B002901D00022DF
:1016B0008A6301464031C26B002A01D00023936344
:1016C0004A78602A07D120224A7000220A700263F9
:1016D000FEF7C6FE80BD00220A700263FEF70CFF13
:1016E00080BD0000F0B583B04121415C28220A4052
:1016F000056806464036282A21D1A969AC69AA683E
:101700000292EB68FE22240CC903C90FC768022F9E
:101710001BD101911946029BDF0967407C07A40F8A
:101720001FD00B461340002232702A68B824A2430F
:101730002A6001991A46FEF794FE03B0F0BD00201E
:1017400030700820E86103B0F0BD002333702B68CF
:10175000B826B3432B6014402246FEF782FE03B046
:10176000F0BD826C521C8264826C022AEBD1064C62
:101770001A4622400023836433700823EB610199E9
:10178000FEF76FFE03B0F0BDFF03000070B5044626
:101790004122865C42230020E054894DE562608549
:1017A000656C0D436564A15C283E25464035022EDC
:1017B0000AD828221140282900D0F2236878104046
:1017C00028280CD0B4200BE0697821680A68FE2331
:1017D0009A430A606A78602A09D0202206E0042031
:1017E000184321680B6883430B6032486A7060635A
:1017F000A06B226B002813D0212A01D0112A0FD10F
:101800000A68520404D5012292030B6893430B60CB
:10181000FEF7D8FC01282CD16878602816D11FE08B
:10182000E06B002819D0222A01D0122A15D10A68AB
:10183000120404D50122D2030B6893430B60FEF718
:10184000C1FC012829D16878602809D000202870BF
:1018500020632046FEF750FE70BD6878602815D1E1
:10186000202068700020287020632046FEF7F8FDD5
:1018700070BD00202870A06B0F498163FEF766FCE5
:10188000002809D0A06B816B884770BD00202870AC
:1018900020632046FEF730FE70BD00202870E06B0C
:1018A00005498163FEF752FC0028F5D0E06B816B9F
:1018B000884770BD2D1E0008A5160008F0B581B040
:1018C00004682023E3614122855C865C0246403245
:1018D000212D07D128252E40F425ED43282E0DD0AB
:1018E000AD1C0CE0222E0FD1557828262E40F42571
:1018F000ED43282E00D1B035122601E0B235112675
:1019000027682F40276006636568C64E2E406660D4
:1019100000254563C44EC662CE0605D51026E66195
:10192000466C0427374347645678490705D5602E2F
:1019300003D1616AC9B200910099A16989070BD4EA
:10194000A169C9070CD1A16901260E43A661416CAA
:101950005478602C08D117E0A562A169C907F2D0BC
:10196000416C5478602C0FD000290DD15178212979
:101970000FD153700563157091789570402916D179
:10198000FEF7B7FE01B0F0BD416CFFF7FFFE01B0FE
:10199000F0BD5178222910D15370056315709178EC
:1019A0009570402907D1FEF7A3FE01B0F0BDFEF708
:1019B0001BFE01B0F0BDFEF70BFE01B0F0BDC0464E
:1019C0000000FFFF10B54221002242544121445C37
:1019D00020234354F421C94303464033212C0AD128
:1019E0001124046342631A705A7828231340282B69
:1019F00012D0891C11E01224046342631A705A78D1
:101A000028231340282B00D1B031026813680B4003
:101A10001360FEF7DDFD10BDB231026813680B40A4
:101A20001360FEF7E1FD10BDF0B583B002910446EE
:101A3000026817684120205C20210191D161F721C3
:101A4000014026464036FC20C543212904D02229E6
:101A500009D122212B4601E0AB1C212170781068AE
:101A600018401060216300950123D9035068084392
:101A7000506050686B4D05405560906980070FD4E9
:101A80009069C007029D11D09B03780414D40F42C3
:101A90001BD0106888431060E76B002F12D114E050
:101AA000002090629069C007029DEDD190691843B3
:101AB00090619B037804EAD5106898431060A76B87
:101AC000002F02D038684068608568070ED5606ACC
:101AD000526A0270606A401C6062228D0025002AF2
:101AE00004D0501E2085608D401E6085608D0028CA
:101AF00003D0606C0422024362640027B7706763FE
:101B0000606C002831D0616C2046FFF73FFE707892
:101B1000282849D1C248E062276301987070676342
:101B2000B770680712D5606A2168496A0170606AF7
:101B3000401C6062208D002808D0618D491E61859F
:101B4000401E2085606C04210143616470787078C8
:101B500020680168FE229143016037701021C16145
:101B60002046FEF733FD03B0F0BDE06AAC4A904278
:101B70000BD170780199717037702763222810D1CA
:101B80002046FEF7EFFD03B0F0BD10462268156851
:101B9000B7701D420AD10D42009B05460CD0434947
:101BA00007E02046FEF7DFFD03B0F0BD3E49009B95
:101BB0000546106808401060707829280AD128204E
:101BC00070702121216337707178014028290FD06E
:101BD0000A330EE070782A2819D12820707022214B
:101BE0002163377071780140282909D0083308E053
:101BF000BA331068184010602046FEF7B4FD06E0C6
:101C0000B8331068184010602046FEF7ABFDE5625F
:101C100001987070377027632046FEF7D7FC03B039
:101C2000F0BDC04600E800FE0000FFFFB0B501684F
:101C30000C6842220023835402464032650403D4D8
:101C4000240405D5194C00E0174C0D6825400D60A3
:101C50005478292C0CD12824547021250563137045
:101C600053782340F422D243282B16D0921C15E03F
:101C700054782A2C10D1282454702225056313701F
:101C800053782340F422D243282B00D1B0320B6882
:101C900013400B60FEF766FDB0BDB2320B68134017
:101CA0000B60FEF760FDB0BDFFBFFFFFFF7FFFFFD2
:101CB000F0B583B00C4605464021405C012802D1B6
:101CC000022003B0F0BD16462F4640370120387081
:101CD0002240D30615D4530726D4930734D42306C1
:101CE0003FD531403DD0698D002902D0298D002992
:101CF0004BD028684068800138D42846FFF762FE40
:101D000038E029681022CA616A6C042313436B64AB
:101D10008A69920701D500228A628A69D20729D18D
:101D20008A6902438A6125E0686A2968496A017004
:101D3000686A401C6862288D401E2885688D401E98
:101D400068850420844315E02868696A0A788262FD
:101D5000481C6862288D401E2885688D401E688555
:101D600008E0510606D5698D002921D0402128467A
:101D7000FFF70CFD2640B00603D528462146FFF7A5
:101D80009DFD0020387003B0F0BD296802914B68BA
:101D9000224A1A406B8D1B0A15D0FF202885029914
:101DA0004868204B034098181F4A80184860E1E7B4
:101DB00029684A689201DDD4EA6AB24B9A429CD102
:101DC00080034A6826E06B8D00932B85EB6A0193B4
:101DD000AC4B0199994211D1029949680191114B7B
:101DE00001990B400193009BDBB21B049A18019BE5
:101DF0009A184006101802994860BBE7E86A0190FB
:101E000002994B6807481840009BDBB21B049A18E4
:101E1000019B1A4302434A60ACE7C046FF0300003F
:101E20000000FFFF009C00FC0000FF01F0B583B044
:101E3000164604464020205CE26A012802D10220B6
:101E400003B0F0BD0D4620464030012702900770D8
:101E50000E40B00609D52046294601943C46174657
:101E6000FFF7E2FD3A462746019CF0061AD47007B8
:101E70002AD430077ED4B007029E21D5608D002879
:101E800000D1B8E02068616A0A788262481C60620A
:101E9000208D401E2085608D401E608500203070A2
:101EA00003B0F0BD608D00282FD020681021C161E3
:101EB000606C04210143616471480242029E61D05A
:101EC0000020307003B0F0BD608D0028029E0CD061
:101ED000606A2168496A0170606A401C6062208DF6
:101EE000401E2085608D401E6085608D0028E7D1F2
:101EF00064488242E4D0206802680021B170530433
:101F000065D4120467D5614A62E0029E70785D492B
:101F100028283FD1780682423CD1E162002020632C
:101F2000202171706063B070690712D5616A226800
:101F3000526A0A70616A491C6162218D002908D0C9
:101F4000628D521E6285491E2185616C04220A43FE
:101F500062647178717821680A68FE239A430A6086
:101F600030701020C8612046FEF730FB0020307032
:101F700003B0F0BD2046FFF7B5FB029E0020307095
:101F800003B0F0BD616C2046FFF700FC002030700C
:101F900003B0F0BD1546727820681023C361292A6A
:101FA0008ED18D428CD08169890701D50021816253
:101FB0008169C90702D181693943816102680021C1
:101FC000B170530422D4120424D5304A1FE02E4AA3
:101FD0000368134003607278292A2BD1282272707B
:101FE00021232363317073781340F421C943282BD4
:101FF0001ED1B23139E02248024200D060E72046CB
:10200000FFF714FE0020307003B0F0BD1E4A0368D5
:10201000134003607278292A0CD128227270212380
:102020002363317073781340F421C943282B1BD0EC
:10203000891C1AE072782A2A00D041E7282272709F
:1020400022232363317073781340F421C943282B72
:1020500000D1B03102680A4002602046FEF782FBE0
:102060000020307003B0F0BDB23102680A40026057
:102070002046FEF778FB0020307003B0F0BDC0466C
:10208000FFFFFFFE0000FFFFFFBFFFFFFF7FFFFF1F
:10209000FEE77047704780B5FEF766FB80BD70B500
:1020A00098B00025119510950F950E950D950C95EE
:1020B00006950595049503950295019500950126D1
:1020C0007002FEF7DBFB7007179070041690082073
:1020D00015901495022413941294402010900F959B
:1020E00030020E900B940BA8FEF714FE00280BD0C4
:1020F0007D20C4000520050720212846FEF757F95A
:102100002046FEF763F8F7E70A9509950720079040
:10211000089407A82146FEF7ABFC00280BD07D20D1
:10212000C4000520050720212846FEF740F9204677
:10213000FEF74CF8F7E703950295222000906846D9
:10214000FEF7DCFB00280BD07D20C400052005072E
:1021500020212846FEF72BF92046FEF737F8F7E74F
:1021600018B070BD0120C006014908607047C04624
:1021700008ED00E0B0B5816ACA070CD18A0714D413
:102180004A071CD40A0724D4CA062CD48A0634D49D
:102190004A063CD44CE00122520403685C68944334
:1021A000C26A22435A608A07EAD5012212040368F0
:1021B0005C689443026B22435A604A07E2D50122CD
:1021C000920403685C689443426B22435A600A0796
:1021D000DAD50122D20303685C689443826B224300
:1021E0005A60CA06D2D50122120303689C68944340
:1021F000C26B22439A608A06CAD501225203036841
:102200009C689443026C22439A604A0610D50122CE
:102210001305026854689C43456C2C4354609D42EE
:1022200006D103235B0554689C43836C23435360AE
:10223000090607D50121C904026853688B43C06CA5
:1022400018435060B0BD0000F0B585B004468C2046
:102250000026265020468C30029027468037FEF715
:10226000B7F805462068016809070496039727D543
:10227000C169890224D4012047050190C60202E009
:10228000C16939421CD1FEF7A3F8421B20680168DE
:10229000374B9A4249D84907F2D5C1693142EFD04C
:1022A00006620D21490102688A4302608168019A31
:1022B000914381602020039A5060906002994FE022
:1022C0000168490727D5C069400224D40120870549
:1022D0000190C60202E0C06938421CD1FEF778F8CE
:1022E000421B20680168224B9A422CD84907F2D53C
:1022F000C1693142EFD006620D21490102688A436B
:1023000002608168019A914381602020039A5060A5
:102310009060029924E02020039A50609060049914
:10232000E1660846117005B0F0BD0D2252019143DF
:1023300001608168019A914381602020039A506076
:10234000114608310CE00D22520191430160816871
:10235000019A914381602020039A50601146083110
:102360002020086003200499117005B0F0BDC0461C
:10237000FFFFFF01F0B581B00446006802685249D2
:102380001140A2682369134365691D43E26915433F
:10239000636E2B430B4303600321090343688B43A4
:1023A000E16819434160A169236A0B438168474D85
:1023B0000D401D438560C36A0F218B43616A0B4347
:1023C000C3620023424DA84206DC444DA84210D00F
:1023D000434DA84215D013E03E4DA84211D03E4BCC
:1023E00098420DD13F4800688007000F3E4B1B58B4
:1023F00007E03C4800680C2303403B48C35800E01A
:102400001023264668360125EF033848BA4210D11A
:10241000082B50D87B441B795B009F44044C234C11
:102420001C4C4C4C2200FEF71FFC002817D0616AA0
:1024300018E0082B3FD8C0467B441B795B009F44C3
:10244000043A2A3A233A3A3A2900FEF70DFC0028CA
:102450001ED0616A1FE0FEF719FC0028E7D10025B5
:1024600029E038464900224A515AFDF73DFE400016
:1024700061684A081018FDF737FE1E4901401AD05E
:102480000007400F084313E0FEF700FC0028E0D1EE
:10249000002510E038464900154A515AFDF724FE40
:1024A00061684A081018FDF71FFE80B2102802D399
:1024B0002168C860002510483060002020676067F0
:1024C000284601B0F0BDC046F369FFCFFFF4FF110D
:1024D000FF4B0040004C00400038014000440040E9
:1024E0000048004054100240E02800080024F40096
:1024F000C8280008F0FF000001000100F0B581B01D
:1025000001204603C84F38463146FDF74BFF0028EF
:10251000F9D13220FDF75AFE38463146FDF742FF29
:102520000128F9D1BE48051D334C4021032328461C
:102530002246FEF79BF800283AD12846FDF7EEFF29
:102540002028FAD12846FDF7E7FF0428EDD03846C9
:102550003146FDF727FF0028F9D13220FDF736FE7E
:1025600038463146FDF71EFF0128F9D1AC4E721CEA
:10257000402103232846FEF73FF8002824D12846AF
:10258000FDF7CCFF2028FAD12846FDF7C5FF042827
:10259000EDD02846FDF7C2FF2028FAD170782178C7
:1025A00081421DD1B0786178814219D101B0F0BD6E
:1025B0007D20C4000520050720212846FDF7F7FEF1
:1025C0002046FDF703FEF7E77D20C4000520050740
:1025D00020212846FDF7EBFE2046FDF7F7FDF7E743
:1025E0007D20C4000520050720212846FDF7DFFED9
:1025F0002046FDF7EBFDF7E70C0000208AB0FEF760
:10260000BDF8FFF74CFD8648002505700695059539
:102610008448016804221143016001681140079158
:10262000079901682022114301600168114001925D
:102630000791079901680127394301600068384014
:102640000790079805200407204611462A46FDF703
:10265000B6FE0495039578030290734802AE3146A6
:10266000FDF7C6FD0220059004950397019802909E
:1026700020463146FDF7BCFD6C486D49684A516003
:1026800011460831A1C155619561D5611562556248
:10269000161D3046FDF746FF002809D07D20C500F5
:1026A00020212046FDF783FE2846FDF78FFDF7E742
:1026B00000213046FDF790FE002809D07D20C5009E
:1026C00020212046FDF773FE2846FDF77FFDF7E742
:1026D000002530462946FDF7A1FE002809D07D20BF
:1026E000C50020212046FDF762FE2846FDF76EFD5D
:1026F000F7E750480C21504A0562456285623B0766
:10270000E126760244C0036045608560C1600561D2
:1027100045610838FEF750FF002809D07D20C5002C
:1027200020212046FDF743FE2846FDF74FFDF7E741
:1027300040480021FEF700FF002809D07D20C50099
:1027400020212046FDF733FE2846FDF73FFDF7E741
:10275000384800252946FEF7B3FE002809D07D2021
:10276000C50020212046FDF722FE2846FDF72EFD5C
:10277000F7E73048FEF788FE002809D07D20C50025
:1027800020212046FDF713FE2846FDF71FFDF7E741
:102790002A482B493F222B4B036042608560C16071
:1027A000056145618561059504950395FEF71AFD60
:1027B000002809D07D20C50020212046FDF7F7FD27
:1027C0002846FDF703FDF7E7380302901B4802A9EE
:1027D000FEF7BAFD002809D07D20C5002021204643
:1027E000FDF7E5FD2846FDF7F1FCF7E709950895AB
:1027F0000795124807A9FEF7C5FC002809D07D20DF
:10280000C50020212046FDF7D2FD2846FDF7DEFC5D
:10281000F7E70A48FEF76AFDFFF770FEFEE7C046DD
:10282000100000203410024000080050BC7D7010E1
:1028300000540040AC000020004400406000002034
:10284000FFFF0000002C014002E008C8121F08C171
:10285000002AFAD170477047002001E001C1121F21
:10286000002AFBD1704700000000000000000000BB
:102870000000000000000000000000000000000058
:102880000000000000000000010000000200000045
:102890000300000004000000060000000700000024
:1028A0000800000009000000000000000000000017
:1028B0000000000000000000010000000200000015
:1028C00003000000040000000100020004000600F4
:1028D00008000A000C0010002000400080000001E9
:1028E00000000000040000000200000008000000DA
:1028F00001010103070100000804020408010101AD
:1029000020290008000000201000000048280008CE
:102910003029000810000020300500005828000869
:1029200001000000040000000024F4006861690058
:04000005080000B936
:00000001FF
