:020000040800F2
:1000000080050020D50000084517000843170008A8
:1000100000000000000000000000000000000000E0
:100020000000000000000000000000004917000868
:100030000000000000000000471700084B170008F0
:10004000E7000008E7000008E7000008E7000008F4
:10005000E7000008E7000008E7000008E7000008E4
:1000600000000000E7000008E7000008E7000008C3
:10007000E7000008E7000008E7000008E7000008C4
:10008000E7000008E7000008E7000008E7000008B4
:1000900000000000E7000008E7000008E700000893
:1000A000E7000008E7000008E70000082521000835
:1000B00031210008E70000080000000000000000F7
:1000C0000348854600F0E6F8004800473D21000857
:1000D000800500200448804704480047FEE7FEE70B
:1000E000FEE7FEE7FEE7FEE755170008C10000083F
:1000F000F0B51FB40646002082B0054640240191A9
:1001000000901BE0019922460F46304600F0B1F8FE
:10011000049A059B801A994110D31046194622462D
:1001200000F097F8361A8F410197224601200021EE
:10013000009F00F08EF838184D4100902046641E54
:100140000028DFDC019B00982946324607B0F0BD4D
:10015000D2B201E00270401C491EFBD2704700225F
:10016000F6E710B513460A4604461946FFF7F0FFB6
:10017000204610BD10B5044605E00B780370401C06
:10018000002B00D0491C521EF7D2204610BDCAB227
:10019000401E4178401C8A4202D00029F9D100203B
:1001A0007047421C0178401C0029FBD1801A70471F
:1001B00010B5002200E0521C835C8C5CA34201D18C
:1001C000002BF8D1D8B2E1B2401A10BD70B5104D75
:1001D000002800D12868002414E00A4602E09E426C
:1001E00003D0521C1378002BF9D1DAB2224307D086
:1001F000002B06D0002C04D000210170401C04E02C
:100200000446401C0678002EE7D12860204670BDC9
:100210000000002070B50446002903D000202022F1
:10022000012310E0002801D00020C043C046C04692
:100230000DE02546D5408D4205D30D469540641B03
:100240001D46954040191546521E002DF1DC2146F1
:1002500070BD10B5202A04DB0146203A91400020F1
:1002600010BD914020239C1A0346E340194390405F
:1002700010BD10B5202A04DB0846203AD0400021EA
:1002800010BD0B46D340D0402024A21A9140084311
:10029000194610BD064C0125064E05E0E36807CC63
:1002A0002B430C3C98471034B442F7D3FFF70CFFB4
:1002B000682500088825000870B500282CD0014664
:1002C00024314A78022A29D1046822680E239A43ED
:1002D0002260426C1568304B1D4015602568012274
:1002E00095432560046C1C2525401446AC402B4DDD
:1002F0002E6826432E60846CC56C6560046D002CEE
:1003000005D025681D402560436D806D58604A709A
:10031000002000220A7070BD012070BD0422C2635B
:10032000012000220A7070BD70B52521415C0229B0
:100330002DD10146243103681A680E24A2431A60A5
:100340001C68012294431C60446C2568124B1D40BC
:100350002560046C1C2525401446AC400F4D2E68CA
:1003600026432E60846CC56C6560046D002C05D03E
:1003700025681D402560436D846D5C6000240C7011
:100380004A70816B002900D08847204670BD042147
:10039000C163012070BDC046FFFEFFFF04000240A4
:1003A000B0B5044600F0E6F80546601C02D093485C
:1003B0000078041900F0DEF8401BA042FAD3B0BD6B
:1003C000F0B58BB007466548874205D00520009000
:1003D0000D68002D06D1BEE0032000900D68002DB1
:1003E00000D1B8E00123002006460193044608909E
:1003F000099006910A9712E03243059E58484260E0
:100400000D682846D840089A121D089208365B1CD1
:10041000A41C099A521C0992002800D19BE05A1E84
:1004200001980792904005400495E9D005964E68E2
:10043000122E029461D80125B5404B4A15425CD07A
:100440000325A540BA68AA430699CF68A740174379
:100450000A998F60320907998A400A994F68874341
:1004600017430A9847600A9F0699E843099A54007F
:10047000FA6802408D680394A5401543FD60102280
:100480003243122A12D11C21089A11400F228A40AD
:10049000079DED08AD007D192F6A9743069A1269F2
:1004A0008A403A430A9F06992A624E683A68024097
:1004B000032530462840039CA04010433860F000DC
:1004C000059E029C9CD5182030400F2282403E465B
:1004D000079FAF433546224EF7193E6E964360376D
:1004E0000522120795420ED0204A954209D0204A93
:1004F0009542009D08D1022506E00320A040C0439C
:10050000B6E7012500E00025854035433D601548EC
:1005100005684868C20302D5049E354301E0049E85
:10052000B5430A9F0F4A15605568820301D53543CC
:1005300000E0B5430B4A5560094A1568C20201D56F
:10054000354300E0B543064A15605268800200D585
:1005500052E7B24351E70BB0F0BDC046000C00506B
:1005600000180240801802400600060000040050F7
:1005700000080050054800687047C0461F480078D2
:1005800002490A68101808607047C0467C010020C4
:10059000B0B50124200208490A6802430A60002518
:1005A000284600F00BF8002801D02046B0BD00F02E
:1005B00027F82C462046B0BD0020024070B50F4EF3
:1005C00031780124002916D005467D20C000FFF7B0
:1005D00021FE014649480068FFF71CFE00F0FAFCC6
:1005E000032D08D8002806D10024E04329462246DE
:1005F00000F028F87560204670BDC0460400002059
:1006000082B00948416801221143416041681140AC
:1006100001910199110702680A43026000680840CD
:100620000090009802B070473C100240002805D4AA
:100630001F21084001218140014801607047C046E8
:1006400000E100E0002805D40322034693430C4A4E
:100650009A1806E00F220240083A03239A43074BF8
:10066000D2188007C00E8901C9B28140FF238340A0
:1006700010689843084310607047C0461CED00E0C6
:1006800000E400E0F0B581B0032569021A4E32465D
:10069000143A13688B430343136001246102002260
:1006A000884226D1154801683068400521D500925E
:1006B000A702062048431249FFF7ACFD201A022882
:1006C00016D0316839420FD0012811D03168394233
:1006D0000AD000280CD03168394205D0001D03280B
:1006E00006D031683942EAD1009A104601B0F0BD17
:1006F0002A46104601B0F0BD147000400C000020E6
:1007000040420F00F0B587B0817889076A4F01D465
:1007100000254FE00590012319073A46183A106862
:100720000840049006D11068084310601068084023
:10073000069006980292039101931E025F4C206876
:1007400030432060FFF716FF0546206830420AD18B
:10075000FFF710FF401B0228F7D9032505980499DD
:10076000002922D026E003252902B868084011D0CC
:100770000599496A88420BD0B86801990904BA689A
:100780000A43BA60BA688A43BA604D490840B86003
:10079000C0077ED1BA684A4802400598416A1143B1
:1007A000B96000250499002904D1029B1968039AB5
:1007B000914319600668F1070BD1F10611D4B10518
:1007C00018D471051FD4B10626D4012172042DD48A
:1007D0003BE039680322914342680A433A60F106DC
:1007E000EDD5032189023A688A4381681143396053
:1007F000B105E6D5032189043A688A43416911436A
:1008000039607105DFD5032109053A688A4381699A
:1008100011433960B106D8D5032109033A688A43E8
:10082000C16811433960012172040ED53A68254B25
:100830001A40C46922433A605A1C944205D10A0402
:100840003B46483B1C6814431C60B2020DD58A0528
:100850003B689343046A23433B60944205D10A06F4
:100860003B46483B1C6814431C6032050ED58C0384
:10087000032292033B689343026913433B60A24205
:1008800004D10804483F396801433960284607B05D
:10089000F0BDFFF76FFE0646864CB868800700D5AE
:1008A00078E7FFF767FE801BA042F6D90598049908
:1008B000002900D179E77DE7541002400070004024
:1008C000FFFCFFFFFFFFFF3FF0B583B00D460121A6
:1008D00000281BD001910290754800680724204031
:1008E000A84216D272490868A04328430860714E96
:1008F000FFF740FE07466E4800682040A84208D037
:10090000FFF738FEC01BB042F5D90321084603B0FB
:10091000F0BD029E30688107914B0CD5410703D58D
:1009200021031A680A431A600F2109021A688A43D0
:10093000B16811431960C0071BD15D4800682040B1
:10094000A8422CD95A490868A04328430860594F47
:10095000FFF710FE0646564800682040A8421ED009
:10096000FFF708FE801BB842F5D90321084603B003
:10097000F0BD0298406803285DD8810001A251585B
:100980008F46C046950900083B0A0008450A000842
:100990004F0A0008194608390968490559E0029AC2
:1009A000107840076E4B05D5200319688143D06845
:1009B0000843186018688006400F22D01A68382152
:1009C0000A406848082A23D01A680A40102A5ED1D3
:1009D000596803220A40032A00D06348596849062F
:1009E000490F491CFFF716FC5D4949684904490E47
:1009F00048435B494968490F491CFFF70BFC584BBA
:100A000006E01846083800688004410F5648C84080
:100A1000196889093C220A40274989581F220A403F
:100A2000D0402E49086025480068FFF7C7FD014601
:100A3000084603B0F0BD596D0AE019460839096847
:100A4000890306E0194608390968890101E0996DB2
:100A50008907019900D459E71968A1430143196036
:100A6000144FFFF787FD06463D48006838210140D6
:100A700002984068C000814200D15EE7FFF77AFD2E
:100A8000801BB842F0D90321084603B0F0BD1868B6
:100A90000840202802D10120C003B9E718680840A7
:100AA000182801D00020B3E77D200002B0E7C0463F
:100AB0000020024088130000B8240008080000202D
:100AC0000648006826490968890A1C220A40044928
:100AD00089581F220A40D0407047C0460C000020B1
:100AE000F824000810B51E4C20688006400F06D080
:100AF000226838210A401B48082A07D110BD083C4B
:100B000020688004410F1848C84010BD22680A4080
:100B1000102A15D1616803220A40032A00D0124826
:100B200061684906490F491CFFF774FB6168490475
:100B3000490E48436168490F491CFFF76BFB10BD24
:100B400020680840202802D10120C00310BD206881
:100B50000840182801D0002010BD7D20000210BDE3
:100B60000810024000127A000024F400F0B587B0AB
:100B70000125002800D105E2049505900078C00702
:100B8000F44F2AD0B868F96803252A468A433821E9
:100B9000014010204840821850425041082914D08A
:100BA000002812D105984268012001048A4208D029
:100BB00005231B049A4200D006E182043B681343DC
:100BC0003B603A680A433A6008E13868800304D51C
:100BD00005984068002800D157E105980078800703
:100BE00016D405980078000745D4059A1078400778
:100BF0004ED4D069002800D143E1B96838220A40B8
:100C0000102A00D0B6E0012800D012E1049DB9E11D
:100C1000B9683820084010214140FA680326324064
:100C200002235340CA18514251410125AC02002809
:100C30003AD0002938D13868059AD168002900D106
:100C4000DAE00721C90288431169014339602802AB
:100C5000396801433960FFF78DFC0546386820424A
:100C600000D0DCE0FFF786FC401B0228F6D93546B1
:100C7000284607B0F0BDB8683821014018293BD19B
:100C8000386E8007B1D5059880690028ADD1FCE0A9
:100C9000B86838210140202945D1F86D8007A8D5D2
:100CA00090680028A5D1F0E039682142059B03D067
:100CB000D968002900D165E17F2109027A688A4359
:100CC000596909021143796000280DD10720C0023B
:100CD0003968814318690843386038688004400FD8
:100CE000B549C140B5480160B5480068FFF766FCEA
:100CF000002800D046E174E7386E0599896900291B
:100D000000D1DBE0012108433866FFF733FC0646DB
:100D1000386E800700D568E7FFF72CFC801B0325A1
:100D20000228F5D92EE1012003900107F86B084055
:100D3000029006D1F86B0843F863F86B0840069000
:100D4000069801919F480068C0052CD403980402BE
:100D50009C49086820430860FFF70CFC0646994848
:100D6000006820421FD1FFF705FC801B03250228E5
:100D7000F5D907E101221306396899433960022841
:100D800000D086E0039304925406FFF7F3FB064677
:100D90003868204200D1B0E0FFF7ECFB801B032550
:100DA0000228F5D9EEE005988068874C012806D026
:100DB000052800D0D0E0F86D04210143F965F86DF5
:100DC00003990843F865D1E03B688B433B6081049D
:100DD0003B688B433B60002A00D180E04404FFF76E
:100DE000C9FB06463868204200D0F6E6FFF7C2FB92
:100DF000801B6428F6D9C5E0290288433860FFF7D4
:100E0000B9FB05463868204200D1EAE6FFF7B2FB9D
:100E1000401B0228F6D93546284607B0F0BD7F2092
:100E200000027968814305984069000208437860B0
:100E3000D7E6F86803210140059B1A6A914224D144
:100E4000702101405A6A91421FD17F21090201405D
:100E50009A6A1202914218D11F2149040140DA6AAC
:100E6000914212D107214A0602401C461B6B9A424E
:100E7000049D00D086E049070840616B884200D09D
:100E800080E00025284607B0F0BD049D284607B045
:100E9000F0BDF8680325A843F860F8684B490140A5
:100EA000F9605606FFF766FB044638683042E8D022
:100EB000FFF760FB001B0228F7D963E0012188439C
:100EC0003866FFF757FB0646386E800700D48CE67D
:100ED000FFF750FB801B03250228F5D952E044049C
:100EE000FFF748FB06463868204200D175E6FFF759
:100EF00041FB801B6428F6D944E0F868344901407E
:100F00000598026A456A836AC66A0196066B02966C
:100F1000406B0A432A4319021143019A1143029A72
:100F200011430143F9603868039908433860049815
:100F30000007F9680143F960FFF71CFB06463868B3
:100F400020429ED1FFF716FB801B03250228F6D90D
:100F500018E0C04600100240F96D039A9143F9650C
:100F6000F96D04229143F96500280ED0FFF702FBCA
:100F70000646F86D800715D4FFF7FCFA801B0325A1
:100F8000A042F6D9284607B0F0BDFFF7F3FA0646AF
:100F9000F86D800706D5FFF7EDFA801B0325A04208
:100FA000F6D9EFE702980028059A00D021E6F86B01
:100FB00001998843F8631CE60024F4000C0000202B
:100FC000080000200070004088130000FFFFFEEEC4
:100FD0008C80C111401E010E01D0012070470749CD
:100FE000074A5060074803680B40032189075918D6
:100FF000016000209060072111607047FFFFFF0033
:1010000010E000E020ED00E0B0B58021415C012956
:1010100001D10220B0BD0246803224215160016816
:101020000B680C680125AC430C606C07A3430B6094
:10103000002141661170202050600846B0BD704705
:1010400070470000F0B581B08022825C012A02D195
:10105000022001B0F0BD054668352422EA61066829
:10106000376832680124A243326007225206B3680F
:1010700093430B43B360406E0028204615D0009781
:10108000B768B068400F2B49095C2B4A105CC00060
:10109000FFF7C0F804463801009F400F2549095C5E
:1010A000254A105CC000FFF7B5F828806C803760D7
:1010B000002028762021E96101B0F0BDF0B581B0B3
:1010C0008022825C012A02D1022001B0F0BD0546D7
:1010D00068352422EA610668376832680124A24331
:1010E000326007225207B36893430B43B360406EEC
:1010F0000028204615D00097B768B068400F0D490A
:10110000095C0D4A105CC000FFF784F80446380102
:10111000009F400F0749095C074A105CC000FFF7B9
:1011200079F828806C803760002028762021E961DA
:1011300001B0F0BD48250008402500087047704701
:1011400070470000F0B58BB001460368DF692020CE
:1011500006900125EE0232462F323A4018680C46BE
:101160005C3407949C68202A08930A97099410D14C
:101170000246069F3A4001231B072340D218064629
:1011800015D00A6F002A00D1A0E1084690470BB0A5
:10119000F0BD03960F363742064608D02C46D34A98
:1011A00032402D07681C099B184082187BD13246BB
:1011B000102604923240534253410A9F3A4632402D
:1011C000544254410591CA6E521E551EAA412243F3
:1011D0001A433ED001240126B305099803405A4220
:1011E0005A41FB02234600D51346002B059800D137
:1011F000E9E03A0608D5802204990A40F305099DE2
:101200001D40521900D04CE14023049D1D406A420C
:101210006A417D06254600D51546002D00D109E11D
:10122000B20704980240504250413A02224600D58B
:101230000246002A059800D13EE10499002900DB0E
:101240003EE10026F90100D53DE1002C00D03DE152
:1012500048E108990E628868400600D5BAE00C465D
:101260000798418802884388002B059800D12DE11A
:10127000511A0A0400D129E109225201236893433B
:101280002360A2689A4B1340A360079A069BD3621F
:101290000022C26602672268B243226089B2FFF769
:1012A000CEFE0BB0F0BD0190009505910A9A224048
:1012B00053425341220204963240554255411D4348
:1012C00006D10122089B1A62079D2B6B13432B63E7
:1012D0000120099B029003405A425A410A998D0706
:1012E0002546039E00D51546002D07D10222089DF4
:1012F0002A620798026B0425154305635A425A4136
:101300004B0723460ED51346002B059D0DD1042215
:10131000089802620798026B0223134303630A07CB
:1013200016D504E0002B059DF1D00A0710D50199D0
:101330004A1E914104988206224600D40A46012A98
:1013400006D10822089802620798036B13430363CF
:101350000298830604990B405A425A410A98304237
:101360000ED01446002C079B099C0DD108980662EC
:101370001A6B069802431A631A6B002A08D1A5E07B
:10138000002C079B099CF1D01A6B002A00D19DE02C
:1013900006980A9A024005D0009A14400140214361
:1013A00000D095E00899079C206B282202408B68AA
:1013B000402003409A184BD12846FFF7C1FE002079
:1013C00020630BB0F0BD3105089A1162FFF7B7FE3C
:1013D0000BB0F0BD059DE86F03685C68A7B2002FF5
:1013E00074D0079A1288974270D2079F7C803C463F
:1013F0001B689B0616D4404A20320B6813400B60D2
:101400008A6801239A438A608A6840239A438A60E3
:10141000069AE2620022EA660A68B2430A60FEF7B0
:101420004BFF22886088101A81B22846FFF707FE1A
:101430000BB0F0BD08990868984308600021059832
:1014400041670799069A8A6200F07AF90BB0F0BDFD
:10145000092252010B6893430B608A68244B1340A6
:101460008B60EA6E012A03D10A6810239A430A604E
:10147000069AE2620022EA662A678A68520616D550
:101480008A6882438A60E86F002810D01949816316
:10149000FEF74AFF002819D0E86F816B88470BB030
:1014A000F0BD416F002911D088470BB0F0BD284630
:1014B000FFF746FE0BB0F0BDFFF740FE0BB0F0BDEE
:1014C000F90100D4C1E63446002C0BD00BB0F0BDBE
:1014D0002A6F002A0899079C00D165E728469047A3
:1014E000296861E7FFF7ACFD0BB0F0BD20010004F7
:1014F000FEFFFFEF65190008DFFEFFFFB0B5002813
:1015000030D00446054680356868002804D10020A4
:101510002870204600F028F82420686020680168C0
:101520000125A9430160204600F0F8FB012817D0EF
:10153000A06A002802D0204600F014F90920C00259
:1015400021684A6882434A6088682A2290438860FA
:101550000868012202430A60204600F06DF9054642
:101560002846B0BD0120B0BDB0B586B000240594BA
:10157000049403940294019400682249884218D08C
:10158000214988423CD101208103204AD3680B4382
:10159000D360D3680B400093009911680143116038
:1015A00011680140009103204002019000981B2522
:1015B00013E001204104154A93680B43936093683C
:1015C0000B400093009911680143116011680140BC
:1015D00000910C20019000981C2501200590049496
:1015E0000394022002900520000701A9FEF7E8FEFF
:1015F000284621462246FFF725F82846FFF716F829
:1016000006B0B0BD00440040003801403410024034
:1016100070B58823C4580223202C10D1012400293E
:101620001AD0002A18D001252C038668A64208D1BA
:10163000CC0706D00469002C03D1284670BD18469B
:1016400070BD064680363478012C1C4604D0002438
:10165000C466357000F060FC204670BDB0B5074C24
:101660002146143106480A252A46FFF7D1FF1E34C9
:10167000044821462A46FFF7CBFFB0BD20000020DA
:10168000EC0000205C000020F0B581B08423C45839
:101690000223202C13D1012500290DD0002A0BD0C4
:1016A0008668012400942703BE420CD1CC070AD0DF
:1016B0000469002C07D1009D284601B0F0BD1D46ED
:1016C000284601B0F0BD044680342578012D1D4622
:1016D000F2D0034654335A800025E5601A80016534
:1016E00021216160009B5907426E8A4206D1BE42A9
:1016F00002D10169002908D0104907E0BE4202D199
:101700000169002909D00B4908E00B490022227029
:101710004167D9050068083004E005492570416734
:101720000068802102680A430260284601B0F0BDCB
:10173000F91F00089520000839200008D120000872
:101740007047FEE7FEE77047704780B5FEF716FF6B
:1017500080BD00000120C006014908607047C046F6
:1017600008ED00E0B0B5816ACA070CD18A0714D42D
:101770004A071CD40A0724D4CA062CD48A0634D4B7
:101780004A063CD44CE00122520403685C6894434E
:10179000C26A22435A608A07EAD50122120403680A
:1017A0005C689443026B22435A604A07E2D50122E7
:1017B000920403685C689443426B22435A600A07B0
:1017C000DAD50122D20303685C689443826B22431A
:1017D0005A60CA06D2D50122120303689C6894435A
:1017E000C26B22439A608A06CAD50122520303685B
:1017F0009C689443026C22439A604A0610D50122E9
:101800001305026854689C43456C2C4354609D4208
:1018100006D103235B0554689C43836C23435360C8
:10182000090607D50121C904026853688B43C06CBF
:1018300018435060B0BD0000F0B585B004468C2060
:101840000026265020468C30029027468037FEF72F
:1018500091FE05462068016809070496039727D57D
:10186000C169890224D4012047050190C60202E023
:10187000C16939421CD1FEF77DFE421B2068016818
:10188000374B9A4249D84907F2D5C1693142EFD066
:1018900006620D21490102688A4302608168019A4B
:1018A000914381602020039A5060906002994FE03C
:1018B0000168490727D5C069400224D40120870563
:1018C0000190C60202E0C06938421CD1FEF752FE08
:1018D000421B20680168224B9A422CD84907F2D556
:1018E000C1693142EFD006620D21490102688A4385
:1018F00002608168019A914381602020039A5060C0
:101900009060029924E02020039A5060906004992E
:10191000E1660846117005B0F0BD0D2252019143F9
:1019200001608168019A914381602020039A506090
:10193000114608310CE00D2252019143016081688B
:10194000019A914381602020039A5060114608312A
:101950002020086003200499117005B0F0BDC04636
:10196000FFFFFF0180B5806A0146563100220A81DF
:1019700056214252FFF7E4FB80BDB0B5044660201B
:10198000225A88202158206822290ED121465C3114
:10199000436A1A40A36D1A804A88521E4A809A1CD4
:1019A000A2654A88002A05D0B0BD816908220A4391
:1019B0008261B0BD092252010368934303608268CB
:1019C00001239A4382602022CA6200252567E26EC5
:1019D000012A09D1026810239A430260098820462F
:1019E000FFF72DFBE566B0BD2046FFF737FEE56645
:1019F000B0BD0000F0B585B006466020355A3068AD
:101A0000C169036884688822B258222A00D081E024
:101A10000394029334465C3420220092A289002A67
:101A20007BD0009A114078D0012203991140039194
:101A300004921102029A0A4002920195416A2940D9
:101A4000B26D11806188491E6180911CB165C769C2
:101A500079072CD0029B5A425A41FB07049B00D0C5
:101A60001346002B04D101220262236B134323632C
:101A7000039B5A425A41BB07049B00D51346002BD7
:101A800005D102220262226B042313432363039BCA
:101A90005A425A410029049926D4002927D0206BA4
:101AA000002804D03046FFF74BFB002020636088FD
:101AB00000282BD101200102306802688A430260AD
:101AC0008168954A114081602021E16200253567D7
:101AD000F16E012915D1016810229143016021881E
:101AE0003046FFF7ACFA0FE011460029D7D10421A8
:101AF0000162206B022101432163206B0028D1D1B8
:101B0000D5E73046FFF7AAFDF566019DB80604D576
:101B1000306893E7183008220EE0608800280ED065
:101B2000A18988420BD2074830677B48411C306846
:101B300082680A408260009A01681143016005B022
:101B4000F0BDC0467B190008B0B504466020225A9B
:101B500088202058216822280FD120465C30496A0D
:101B60001140A26D11704188491E4180A16D491C30
:101B7000A1654188002905D0B0BD886908220243CB
:101B80008A61B0BD09214A0121680B6893430B604B
:101B90008A6801239A438A602022C2620025256751
:101BA000E26E012A09D10A6810239A430A6001886B
:101BB0002046FFF744FAE566B0BD2046FFF74EFD2C
:101BC000E566B0BDF0B585B004466020255A2068B2
:101BD000C169036886688822A258222A00D083E05F
:101BE0000396029326465C3620220092B289002A90
:101BF0007DD0009A11407AD00122039911400391BF
:101C000004921102029A0A4002920195406A284009
:101C1000A16D08707088401E7080A06D401CA0658A
:101C20002068C76979072CD0029B5A425A41FB07AA
:101C3000049B00D01346002B04D101220262336BB7
:101C400013433363039B5A425A41BB07049B00D59D
:101C50001346002B05D102220262326B0423134388
:101C60003363039B5A425A410029049926D4002920
:101C700027D0306B002804D02046FFF761FA0020FF
:101C80003063708800282BD101200102206802688F
:101C90008A4302608168204A114081602021F162FC
:101CA00000252567E16E012915D1016810229143B5
:101CB000016031882046FFF7C2F90FE01146002984
:101CC000D7D104210162306B022101433163306BB3
:101CD0000028D1D1D5E72046FFF7C0FCE566019D7D
:101CE000B80604D5206891E7183008220EE0708805
:101CF00000280ED0B18988420BD2BE482067064822
:101D0000411C206882680A408260009A0168114381
:101D1000016005B0F0BDC046FEFFFFEFF0B581B039
:101D20000446026811686F480840A16823690B43A4
:101D300061691943E3691943656E0D4305431560F5
:101D40000327380351688143E06808435060A16964
:101D5000654DAA4202D0206A084300E00846916817
:101D6000624E0E4006439660D06A0F218843616A36
:101D70000843D0625E4882420BD0AA420BD05D4835
:101D8000824210D15C4800688007000F5B4E3658D5
:101D90000AE0002608E058480068000A0C260640C1
:101DA0005648865900E01026204668300090544876
:101DB000AA4216D00125EA03934226D1082E00D963
:101DC00087E0C0467E4436797600B7440482598263
:101DD000528282825800FEF773FE00284DD0616A5D
:101DE0004EE00125082E00D973E0C0467E443679C6
:101DF0007600B744046E246E1C6E6E6E2200FEF7F1
:101E00005FFE002817D0616A19E0082E61D8C0462D
:101E10007E4436797600B744045C4C5C455C5C5C7F
:101E20004B00FEF74DFE002840D0616A41E0FEF70E
:101E300059FE0028E7D100254BE00120C0034900EE
:101E4000304A515AFEF7E6F962685743B84240D328
:101E5000110388423DD8010E560800020023801964
:101E60005941FEF745F929494118294A914230D292
:101E70002CE0FEF737FE0028B1D1002529E01046FE
:101E80004900204A515AFEF7C5F9400061684A08E6
:101E90001018FEF7BFF91C4901401AD00007400F87
:101EA000084313E0FEF71EFE0028BED1002510E017
:101EB00010464900134A515AFEF7ACF961684A08C6
:101EC0001018FEF7A7F980B2102802D32168C86065
:101ED00000251048009908600020206760672846A8
:101EE00001B0F0BDF369FFCF00800040FFF4FF11A7
:101EF00000440040003801405410024030250008E2
:101F00000024F40018250008F0FF000000FDFFFF8A
:101F100000FD0F0001000100F0B584B05C23C25247
:101F2000816504465C346280866801468031002EFB
:101F3000009203960BD001231D07AE420CD01B0369
:101F40009E420ED10369002B04D1514A0CE0036973
:101F5000002B08D1FF2207E00269002A03D03F22AC
:101F600002E0002200E07F22A28000220192CA60EB
:101F7000222202918A600668B26801273A43B26061
:101F80003D023A037B07416E994203D1A189009B30
:101F900099420DD90399914202D1016900291ED0BD
:101FA000144A0299019B0B7002672035334610E0FA
:101FB0000399914202D10169002912D00B4A02997A
:101FC000019C334608330C70026730682843306048
:101FD0003D07186828431860002004B0F0BD044A8B
:101FE000DFE7014AEBE7C046F5190008C51B00080A
:101FF0007B190008491B000810B58421415821298C
:102000000FD1014656310A88002A0BD0026D138881
:102010001F4C1C4003689C62921C02650888401E8D
:10202000088010BD0068016880229143016001684A
:1020300040220A43026010BD70B584214158212915
:102040001AD102465632938A002B15D00168104CE3
:1020500002E05B1E1D040FD01588002D0DD0CD6948
:102060002D06F6D5056D2E8826408E62AD1C0565C1
:1020700015886D1E1580ECE770BD0120C0058A68CB
:1020800082438A600868402202430A6070BDC046ED
:10209000FF01000010B58421415821290DD10146CE
:1020A00056310A88002A09D00268036D1C789462B0
:1020B0005A1C02650888401E088010BD006801682F
:1020C000802291430160016840220A43026010BDF2
:1020D000B0B584214158212918D102465632938A3D
:1020E000002B13D0016802E05B1E1C040ED0148884
:1020F000002C0CD0CC692406F6D5046D25788D62B1
:10210000641C04651488641E1480EDE7B0BD0120D2
:10211000C0058A6882438A600868402202430A60D8
:10212000B0BD000080B59A48FFF70CF880BDC046EE
:1021300080B56248FFF706F880BDC0469EB0FEF746
:1021400027FA10AD281D3421FEF709F800240B945E
:102150000A9409940894079406940594049401261B
:102160007002FEF78FFA17944020159014943702EE
:102170001397022010902846FEF7F8FC002803D0A1
:10218000EFF3108072B6FEE70F940E940D940720C3
:102190000C900CA82146FEF797FB002803D0EFF324
:1021A000108072B6FEE70394029602A8FEF7AAFA20
:1021B000002803D0EFF3108072B6FEE73D490868AF
:1021C0003043086072480C22019242610461C4608D
:1021D0008460394A02604B22D501456009688461F8
:1021E000C461046244628462314010911099FFF727
:1021F00085F9002803D0EFF3108072B6FEE72C4675
:10220000019E63480021FEF759FF002803D0EFF339
:10221000108072B6FEE75E4800252946FEF712FFE1
:10222000002803D0EFF3108072B6FEE75848FEF79F
:10223000EBFE002803D0EFF3108072B6FEE71F48D4
:102240001F4932C0056045608660C5600561456113
:102250008561C5610C38FFF751F9002803D0EFF311
:10226000108072B6FEE74648014604461E314848D3
:102270000A263246FFF7CCF9214614312C460F4886
:102280003246FFF7C5F93E48054604703F4C00F062
:1022900019F82A46323210AE3046214600F07AF85C
:1022A0000A2206483146FFF7EFF93846F430FEF7C8
:1022B00077F8ECE73410024000380140EC000020D1
:1022C00000440040F0B583B02D4C2646143630460D
:1022D000FDF767FF07466060254628352846FDF76D
:1022E00060FFA0600A2F04DB30463946FDF737FF58
:1022F00004E02078002801D0002020700A2228461F
:102300003146FDF737FF2021FDF741FFE06000284F
:102310002AD01C492846FDF759FF0746206100785E
:1023200000281ED00026184C06E0761C3846FDF723
:1023300038FF241D864214D2256838462946FDF709
:1023400037FF0028F1D16F46384610492A4600F081
:1023500021F80A220E483946FFF796F9084807691E
:10236000E3E70120064C20706420FEF719F82046B0
:1023700032301E340A222146FDF7FCFE03B0F0BDC8
:1023800020000020552500081000002050250008DE
:102390005C0000200FB410B504A9074B02AA0398F3
:1023A00000F01BF8044602A9002000F07FF8204648
:1023B00010BC08BC04B01847AD24000802E008C8EF
:1023C000121F08C1002AFAD170477047002001E0AF
:1023D00001C1121F002AFBD17047FFB581B005462D
:1023E000002706E025280AD0049A039990476D1C1F
:1023F0007F1C28780028F5D1384605B0F0BD0022B2
:1024000069786D1C10462E2913D1697804226D1C41
:102410002A2909D102996D1C01C9029109E00A23F8
:102420005843303808186D1C29780B46303B092B6F
:10243000F5D92B78002BDFD0632B07D0732B10D06E
:10244000049A1846039990477F1C2DE002996C4628
:102450000B782370091D0291002161706E460121E5
:1024600004E0029940C902910021C94352070AD5EC
:10247000002400E0641C84420DDA8C42FADB325DF9
:10248000002AF7D107E0002400E0641C8C42FCDB4A
:10249000305D0028F9D13F1904E03078049A761CA9
:1024A00003999047641EF8D26D1CA2E70A68531C7A
:1024B0000B6010707047000000000000000000007A
:1024C000000000000000000000000000000000000C
:1024D00000000000000000000100000002000000F9
:1024E00003000000040000000600000007000000D8
:1024F00008000000090000000000000000000000CB
:1025000000000000000000000100000002000000C8
:1025100003000000040000000100020004000600A7
:1025200008000A000C00100020004000800000019C
:10253000000000000400000002000000080000008D
:102540000101010307010000080402040801010160
:102550000A25730D00200074696D6500776966694E
:1025600000706C61790000008825000800000020E0
:1025700020000000BC230008A8250008200000203F
:1025800060050000CC2300080000000001000000EE
:10259000040000000024F40061250008572500080D
:0825A0005C25000800000000AA
:04000005080000C12E
:00000001FF
